Archive member included to satisfy reference by file (symbol)

c:/program files (x86)/atmel/studio/7.0/toolchain/avr8/avr8-gnu-toolchain/bin/../lib/gcc/avr/4.9.2/avr6\libgcc.a(_exit.o)
                              C:/Program Files (x86)/Atmel/Studio/7.0/Packs/atmel/ATmega_DFP/1.0.98/gcc/dev/atmega2560/avr6/crtatmega2560.o (exit)
c:/program files (x86)/atmel/studio/7.0/toolchain/avr8/avr8-gnu-toolchain/bin/../lib/gcc/avr/4.9.2/avr6\libgcc.a(_tablejump2.o)
                              jsmcfsm5.o (__tablejump2__)
c:/program files (x86)/atmel/studio/7.0/toolchain/avr8/avr8-gnu-toolchain/bin/../lib/gcc/avr/4.9.2/avr6\libgcc.a(_copy_data.o)
                              rf24.o (__do_copy_data)
c:/program files (x86)/atmel/studio/7.0/toolchain/avr8/avr8-gnu-toolchain/bin/../lib/gcc/avr/4.9.2/avr6\libgcc.a(_clear_bss.o)
                              test.o (__do_clear_bss)
c:/program files (x86)/atmel/studio/7.0/toolchain/avr8/avr8-gnu-toolchain/bin/../lib/gcc/avr/4.9.2/avr6\libgcc.a(_cmpdi2_s8.o)
                              rf24.o (__cmpdi2_s8)
c:/program files (x86)/atmel/studio/7.0/toolchain/avr8/avr8-gnu-toolchain/bin/../lib/gcc/avr/4.9.2/../../../../avr/lib/avr6\libc.a(malloc.o)
                              new.o (malloc)
c:/program files (x86)/atmel/studio/7.0/toolchain/avr8/avr8-gnu-toolchain/bin/../lib/gcc/avr/4.9.2/../../../../avr/lib/avr6\libc.a(printf.o)
                              rf24.o (printf)
c:/program files (x86)/atmel/studio/7.0/toolchain/avr8/avr8-gnu-toolchain/bin/../lib/gcc/avr/4.9.2/../../../../avr/lib/avr6\libc.a(puts.o)
                              rf24.o (puts)
c:/program files (x86)/atmel/studio/7.0/toolchain/avr8/avr8-gnu-toolchain/bin/../lib/gcc/avr/4.9.2/../../../../avr/lib/avr6\libc.a(vfprintf_std.o)
                              c:/program files (x86)/atmel/studio/7.0/toolchain/avr8/avr8-gnu-toolchain/bin/../lib/gcc/avr/4.9.2/../../../../avr/lib/avr6\libc.a(printf.o) (vfprintf)
c:/program files (x86)/atmel/studio/7.0/toolchain/avr8/avr8-gnu-toolchain/bin/../lib/gcc/avr/4.9.2/../../../../avr/lib/avr6\libc.a(strnlen_P.o)
                              c:/program files (x86)/atmel/studio/7.0/toolchain/avr8/avr8-gnu-toolchain/bin/../lib/gcc/avr/4.9.2/../../../../avr/lib/avr6\libc.a(vfprintf_std.o) (strnlen_P)
c:/program files (x86)/atmel/studio/7.0/toolchain/avr8/avr8-gnu-toolchain/bin/../lib/gcc/avr/4.9.2/../../../../avr/lib/avr6\libc.a(strnlen.o)
                              c:/program files (x86)/atmel/studio/7.0/toolchain/avr8/avr8-gnu-toolchain/bin/../lib/gcc/avr/4.9.2/../../../../avr/lib/avr6\libc.a(vfprintf_std.o) (strnlen)
c:/program files (x86)/atmel/studio/7.0/toolchain/avr8/avr8-gnu-toolchain/bin/../lib/gcc/avr/4.9.2/../../../../avr/lib/avr6\libc.a(fputc.o)
                              c:/program files (x86)/atmel/studio/7.0/toolchain/avr8/avr8-gnu-toolchain/bin/../lib/gcc/avr/4.9.2/../../../../avr/lib/avr6\libc.a(vfprintf_std.o) (fputc)
c:/program files (x86)/atmel/studio/7.0/toolchain/avr8/avr8-gnu-toolchain/bin/../lib/gcc/avr/4.9.2/../../../../avr/lib/avr6\libc.a(iob.o)
                              c:/program files (x86)/atmel/studio/7.0/toolchain/avr8/avr8-gnu-toolchain/bin/../lib/gcc/avr/4.9.2/../../../../avr/lib/avr6\libc.a(printf.o) (__iob)
c:/program files (x86)/atmel/studio/7.0/toolchain/avr8/avr8-gnu-toolchain/bin/../lib/gcc/avr/4.9.2/../../../../avr/lib/avr6\libc.a(ultoa_invert.o)
                              c:/program files (x86)/atmel/studio/7.0/toolchain/avr8/avr8-gnu-toolchain/bin/../lib/gcc/avr/4.9.2/../../../../avr/lib/avr6\libc.a(vfprintf_std.o) (__ultoa_invert)

Allocating common symbols
Common symbol       size              file

__brkval            0x2               c:/program files (x86)/atmel/studio/7.0/toolchain/avr8/avr8-gnu-toolchain/bin/../lib/gcc/avr/4.9.2/../../../../avr/lib/avr6\libc.a(malloc.o)
__flp               0x2               c:/program files (x86)/atmel/studio/7.0/toolchain/avr8/avr8-gnu-toolchain/bin/../lib/gcc/avr/4.9.2/../../../../avr/lib/avr6\libc.a(malloc.o)
__iob               0x6               c:/program files (x86)/atmel/studio/7.0/toolchain/avr8/avr8-gnu-toolchain/bin/../lib/gcc/avr/4.9.2/../../../../avr/lib/avr6\libc.a(iob.o)

Discarded input sections

 .data          0x00000000        0x0 C:/Program Files (x86)/Atmel/Studio/7.0/Packs/atmel/ATmega_DFP/1.0.98/gcc/dev/atmega2560/avr6/crtatmega2560.o
 .bss           0x00000000        0x0 C:/Program Files (x86)/Atmel/Studio/7.0/Packs/atmel/ATmega_DFP/1.0.98/gcc/dev/atmega2560/avr6/crtatmega2560.o
 .text          0x00000000        0x0 jsmcfsm5.o
 .data          0x00000000        0x0 jsmcfsm5.o
 .bss           0x00000000        0x0 jsmcfsm5.o
 .text._ZN8JSMCFSM512IsMSSStoppedEP15MotorControllerS1_
                0x00000000       0x48 jsmcfsm5.o
 .text          0x00000000        0x0 mc.o
 .data          0x00000000        0x0 mc.o
 .bss           0x00000000        0x0 mc.o
 .text._ZN15MotorController11GetM_ID_DMSEv
                0x00000000        0x6 mc.o
 .text._ZN15MotorController11GetM_ID_DMDEv
                0x00000000        0x6 mc.o
 .text._ZN15MotorController12GetM_ID_DMRREv
                0x00000000        0x8 mc.o
 .text._ZN15MotorController12GetM_MIN_SPDEv
                0x00000000        0x6 mc.o
Memory Configuration

Name             Origin             Length             Attributes
text             0x00000000         0x00100000         xr
data             0x00800200         0x0000fe00         rw !x
eeprom           0x00810000         0x00010000         rw !x
fuse             0x00820000         0x00000400         rw !x
lock             0x00830000         0x00000400         rw !x
signature        0x00840000         0x00000400         rw !x
user_signatures  0x00850000         0x00000400         rw !x
*default*        0x00000000         0xffffffff

Linker script and memory map

Address of section .data set to 0x800200
LOAD C:/Program Files (x86)/Atmel/Studio/7.0/Packs/atmel/ATmega_DFP/1.0.98/gcc/dev/atmega2560/avr6/crtatmega2560.o
LOAD jsmcfsm5.o
LOAD mc.o
LOAD mcaidev.o
LOAD new.o
LOAD objtimers.o
LOAD pmmio.o
LOAD pwmpfc.o
LOAD rf24.o
LOAD spi.o
LOAD syserror.o
LOAD test.o
LOAD timer2oi.o
LOAD timerbase.o
START GROUP
LOAD c:/program files (x86)/atmel/studio/7.0/toolchain/avr8/avr8-gnu-toolchain/bin/../lib/gcc/avr/4.9.2/../../../../avr/lib/avr6\libm.a
END GROUP
LOAD c:/program files (x86)/atmel/studio/7.0/toolchain/avr8/avr8-gnu-toolchain/bin/../lib/gcc/avr/4.9.2/avr6\libgcc.a
LOAD c:/program files (x86)/atmel/studio/7.0/toolchain/avr8/avr8-gnu-toolchain/bin/../lib/gcc/avr/4.9.2/../../../../avr/lib/avr6\libm.a
START GROUP
LOAD c:/program files (x86)/atmel/studio/7.0/toolchain/avr8/avr8-gnu-toolchain/bin/../lib/gcc/avr/4.9.2/avr6\libgcc.a
LOAD c:/program files (x86)/atmel/studio/7.0/toolchain/avr8/avr8-gnu-toolchain/bin/../lib/gcc/avr/4.9.2/../../../../avr/lib/avr6\libm.a
LOAD c:/program files (x86)/atmel/studio/7.0/toolchain/avr8/avr8-gnu-toolchain/bin/../lib/gcc/avr/4.9.2/../../../../avr/lib/avr6\libc.a
LOAD C:/Program Files (x86)/Atmel/Studio/7.0/Packs/atmel/ATmega_DFP/1.0.98/gcc/dev/atmega2560/avr6\libatmega2560.a
END GROUP

.hash
 *(.hash)

.dynsym
 *(.dynsym)

.dynstr
 *(.dynstr)

.gnu.version
 *(.gnu.version)

.gnu.version_d
 *(.gnu.version_d)

.gnu.version_r
 *(.gnu.version_r)

.rel.init
 *(.rel.init)

.rela.init
 *(.rela.init)

.rel.text
 *(.rel.text)
 *(.rel.text.*)
 *(.rel.gnu.linkonce.t*)

.rela.text
 *(.rela.text)
 *(.rela.text.*)
 *(.rela.gnu.linkonce.t*)

.rel.fini
 *(.rel.fini)

.rela.fini
 *(.rela.fini)

.rel.rodata
 *(.rel.rodata)
 *(.rel.rodata.*)
 *(.rel.gnu.linkonce.r*)

.rela.rodata
 *(.rela.rodata)
 *(.rela.rodata.*)
 *(.rela.gnu.linkonce.r*)

.rel.data
 *(.rel.data)
 *(.rel.data.*)
 *(.rel.gnu.linkonce.d*)

.rela.data
 *(.rela.data)
 *(.rela.data.*)
 *(.rela.gnu.linkonce.d*)

.rel.ctors
 *(.rel.ctors)

.rela.ctors
 *(.rela.ctors)

.rel.dtors
 *(.rel.dtors)

.rela.dtors
 *(.rela.dtors)

.rel.got
 *(.rel.got)

.rela.got
 *(.rela.got)

.rel.bss
 *(.rel.bss)

.rela.bss
 *(.rela.bss)

.rel.plt
 *(.rel.plt)

.rela.plt
 *(.rela.plt)

.text           0x00000000     0x1c60
 *(.vectors)
 .vectors       0x00000000       0xe4 C:/Program Files (x86)/Atmel/Studio/7.0/Packs/atmel/ATmega_DFP/1.0.98/gcc/dev/atmega2560/avr6/crtatmega2560.o
                0x00000000                __vector_default
                0x00000000                __vectors
 *(.vectors)
 *(.progmem.gcc*)
 .progmem.gcc_sw_table._ZN8JSMCFSM510MachState1EP15MotorControllerS1_P7MCAIDev
                0x000000e4       0x16 jsmcfsm5.o
 .progmem.gcc_sw_table._ZN8JSMCFSM510MachState2EP15MotorControllerS1_P7MCAIDev
                0x000000fa       0x16 jsmcfsm5.o
 .progmem.gcc_sw_table._ZN8JSMCFSM510MachState3EP15MotorControllerS1_P7MCAIDev
                0x00000110       0x16 jsmcfsm5.o
 .progmem.gcc_sw_table._ZN8JSMCFSM510MachState4EP15MotorControllerS1_P7MCAIDev
                0x00000126       0x16 jsmcfsm5.o
                0x0000013c                . = ALIGN (0x2)
                0x0000013c                __trampolines_start = .
 *(.trampolines)
 .trampolines   0x0000013c        0x0 linker stubs
 *(.trampolines*)
                0x0000013c                __trampolines_end = .
 *(.progmem*)
 .progmem.data._ZL17child_pipe_enable
                0x0000013c        0x6 rf24.o
 .progmem.data._ZL18child_payload_size
                0x00000142        0x6 rf24.o
 .progmem.data._ZL10child_pipe
                0x00000148        0x6 rf24.o
                0x0000014e                . = ALIGN (0x2)
 *(.jumptables)
 *(.jumptables*)
 *(.lowtext)
 *(.lowtext*)
                0x0000014e                __ctors_start = .
 *(.ctors)
                0x0000014e                __ctors_end = .
                0x0000014e                __dtors_start = .
 *(.dtors)
                0x0000014e                __dtors_end = .
 SORT(*)(.ctors)
 SORT(*)(.dtors)
 *(.init0)
 .init0         0x0000014e        0x0 C:/Program Files (x86)/Atmel/Studio/7.0/Packs/atmel/ATmega_DFP/1.0.98/gcc/dev/atmega2560/avr6/crtatmega2560.o
                0x0000014e                __init
 *(.init0)
 *(.init1)
 *(.init1)
 *(.init2)
 .init2         0x0000014e       0x10 C:/Program Files (x86)/Atmel/Studio/7.0/Packs/atmel/ATmega_DFP/1.0.98/gcc/dev/atmega2560/avr6/crtatmega2560.o
 *(.init2)
 *(.init3)
 *(.init3)
 *(.init4)
 .init4         0x0000015e       0x1a c:/program files (x86)/atmel/studio/7.0/toolchain/avr8/avr8-gnu-toolchain/bin/../lib/gcc/avr/4.9.2/avr6\libgcc.a(_copy_data.o)
                0x0000015e                __do_copy_data
 .init4         0x00000178       0x10 c:/program files (x86)/atmel/studio/7.0/toolchain/avr8/avr8-gnu-toolchain/bin/../lib/gcc/avr/4.9.2/avr6\libgcc.a(_clear_bss.o)
                0x00000178                __do_clear_bss
 *(.init4)
 *(.init5)
 *(.init5)
 *(.init6)
 *(.init6)
 *(.init7)
 *(.init7)
 *(.init8)
 *(.init8)
 *(.init9)
 .init9         0x00000188        0x8 C:/Program Files (x86)/Atmel/Studio/7.0/Packs/atmel/ATmega_DFP/1.0.98/gcc/dev/atmega2560/avr6/crtatmega2560.o
 *(.init9)
 *(.text)
 .text          0x00000190        0x2 C:/Program Files (x86)/Atmel/Studio/7.0/Packs/atmel/ATmega_DFP/1.0.98/gcc/dev/atmega2560/avr6/crtatmega2560.o
                0x00000190                __vector_38
                0x00000190                __vector_22
                0x00000190                __vector_28
                0x00000190                __vector_1
                0x00000190                __vector_32
                0x00000190                __vector_34
                0x00000190                __vector_24
                0x00000190                __vector_12
                0x00000190                __vector_55
                0x00000190                __vector_46
                0x00000190                __bad_interrupt
                0x00000190                __vector_6
                0x00000190                __vector_31
                0x00000190                __vector_35
                0x00000190                __vector_39
                0x00000190                __vector_3
                0x00000190                __vector_23
                0x00000190                __vector_30
                0x00000190                __vector_45
                0x00000190                __vector_25
                0x00000190                __vector_11
                0x00000190                __vector_54
                0x00000190                __vector_13
                0x00000190                __vector_17
                0x00000190                __vector_19
                0x00000190                __vector_56
                0x00000190                __vector_7
                0x00000190                __vector_49
                0x00000190                __vector_41
                0x00000190                __vector_43
                0x00000190                __vector_27
                0x00000190                __vector_5
                0x00000190                __vector_33
                0x00000190                __vector_47
                0x00000190                __vector_52
                0x00000190                __vector_37
                0x00000190                __vector_4
                0x00000190                __vector_44
                0x00000190                __vector_51
                0x00000190                __vector_9
                0x00000190                __vector_2
                0x00000190                __vector_21
                0x00000190                __vector_36
                0x00000190                __vector_29
                0x00000190                __vector_40
                0x00000190                __vector_8
                0x00000190                __vector_26
                0x00000190                __vector_48
                0x00000190                __vector_14
                0x00000190                __vector_53
                0x00000190                __vector_10
                0x00000190                __vector_50
                0x00000190                __vector_16
                0x00000190                __vector_18
                0x00000190                __vector_20
                0x00000190                __vector_42
                0x00000192                . = ALIGN (0x2)
 *(.text.*)
 .text._ZN8JSMCFSM510SyncMotorsEP15MotorControllerS1_
                0x00000192       0x48 jsmcfsm5.o
                0x00000192                _ZN8JSMCFSM510SyncMotorsEP15MotorControllerS1_
 .text._ZN8JSMCFSM59GetMtrDirEP15MotorControllerS1_
                0x000001da       0x1c jsmcfsm5.o
                0x000001da                _ZN8JSMCFSM59GetMtrDirEP15MotorControllerS1_
 .text._ZN8JSMCFSM514SetMtrRampRateEP15MotorControllerS1_h
                0x000001f6       0x24 jsmcfsm5.o
                0x000001f6                _ZN8JSMCFSM514SetMtrRampRateEP15MotorControllerS1_h
 .text._ZN8JSMCFSM514SetMtrRampDownEP15MotorController
                0x0000021a       0x24 jsmcfsm5.o
                0x0000021a                _ZN8JSMCFSM514SetMtrRampDownEP15MotorController
 .text._ZN8JSMCFSM517SetMotorsRampDownEP15MotorControllerS1_
                0x0000023e       0x30 jsmcfsm5.o
                0x0000023e                _ZN8JSMCFSM517SetMotorsRampDownEP15MotorControllerS1_
 .text._ZN8JSMCFSM59SetMtrRevEP15MotorControllerS1_P7MCAIDev
                0x0000026e       0x4c jsmcfsm5.o
                0x0000026e                _ZN8JSMCFSM59SetMtrRevEP15MotorControllerS1_P7MCAIDev
 .text._ZN8JSMCFSM515SetMtrFPLftTurnEP15MotorControllerS1_P7MCAIDev
                0x000002ba       0x4c jsmcfsm5.o
                0x000002ba                _ZN8JSMCFSM515SetMtrFPLftTurnEP15MotorControllerS1_P7MCAIDev
 .text._ZN8JSMCFSM515SetMtrFPRgtTurnEP15MotorControllerS1_P7MCAIDev
                0x00000306       0x4c jsmcfsm5.o
                0x00000306                _ZN8JSMCFSM515SetMtrFPRgtTurnEP15MotorControllerS1_P7MCAIDev
 .text._ZN8JSMCFSM59SetMtrFwdEP15MotorControllerS1_P7MCAIDev
                0x00000352       0x4c jsmcfsm5.o
                0x00000352                _ZN8JSMCFSM59SetMtrFwdEP15MotorControllerS1_P7MCAIDev
 .text._ZN8JSMCFSM510MachState0EP15MotorControllerS1_P7MCAIDev
                0x0000039e       0x40 jsmcfsm5.o
                0x0000039e                _ZN8JSMCFSM510MachState0EP15MotorControllerS1_P7MCAIDev
 .text._ZN8JSMCFSM510MachState1EP15MotorControllerS1_P7MCAIDev
                0x000003de       0x56 jsmcfsm5.o
                0x000003de                _ZN8JSMCFSM510MachState1EP15MotorControllerS1_P7MCAIDev
 .text._ZN8JSMCFSM510MachState2EP15MotorControllerS1_P7MCAIDev
                0x00000434       0x56 jsmcfsm5.o
                0x00000434                _ZN8JSMCFSM510MachState2EP15MotorControllerS1_P7MCAIDev
 .text._ZN8JSMCFSM510MachState3EP15MotorControllerS1_P7MCAIDev
                0x0000048a       0x56 jsmcfsm5.o
                0x0000048a                _ZN8JSMCFSM510MachState3EP15MotorControllerS1_P7MCAIDev
 .text._ZN8JSMCFSM510MachState4EP15MotorControllerS1_P7MCAIDev
                0x000004e0       0x56 jsmcfsm5.o
                0x000004e0                _ZN8JSMCFSM510MachState4EP15MotorControllerS1_P7MCAIDev
 .text._ZN8JSMCFSM59FSM5StateEP15MotorControllerS1_P7MCAIDev
                0x00000536       0x82 jsmcfsm5.o
                0x00000536                _ZN8JSMCFSM59FSM5StateEP15MotorControllerS1_P7MCAIDev
 .text._ZN8JSMCFSM513ExecFSM5StateEP15MotorControllerS1_P7MCAIDev
                0x000005b8        0x4 jsmcfsm5.o
                0x000005b8                _ZN8JSMCFSM513ExecFSM5StateEP15MotorControllerS1_P7MCAIDev
 .text._ZN15MotorController11SetM_ID_DMSEh
                0x000005bc        0x6 mc.o
                0x000005bc                _ZN15MotorController11SetM_ID_DMSEh
 .text._ZN15MotorController11SetM_ID_DMDEh
                0x000005c2        0x6 mc.o
                0x000005c2                _ZN15MotorController11SetM_ID_DMDEh
 .text._ZN15MotorController12SetM_ID_DMRREj
                0x000005c8        0x8 mc.o
                0x000005c8                _ZN15MotorController12SetM_ID_DMRREj
 .text._ZN15MotorController8IncM_AMSEv
                0x000005d0       0x10 mc.o
                0x000005d0                _ZN15MotorController8IncM_AMSEv
 .text._ZN15MotorController8DecM_AMSEv
                0x000005e0       0x10 mc.o
                0x000005e0                _ZN15MotorController8DecM_AMSEv
 .text._ZN15MotorController10IsMStoppedEv
                0x000005f0       0x26 mc.o
                0x000005f0                _ZN15MotorController10IsMStoppedEv
 .text._ZN15MotorController9SetMtrPWMEv
                0x00000616        0xe mc.o
                0x00000616                _ZN15MotorController9SetMtrPWMEv
 .text._ZN15MotorController8SetM_MRREj
                0x00000624        0x8 mc.o
                0x00000624                _ZN15MotorController8SetM_MRREj
 .text._ZN15MotorController9RampMotorEv
                0x0000062c       0x46 mc.o
                0x0000062c                _ZN15MotorController9RampMotorEv
 .text._ZN15MotorController12GetM_DIR_FWDEv
                0x00000672        0x6 mc.o
                0x00000672                _ZN15MotorController12GetM_DIR_FWDEv
 .text._ZN15MotorController12GetM_DIR_REVEv
                0x00000678        0x6 mc.o
                0x00000678                _ZN15MotorController12GetM_DIR_REVEv
 .text._ZN15MotorController13GetM_DIR_OPENEv
                0x0000067e        0x6 mc.o
                0x0000067e                _ZN15MotorController13GetM_DIR_OPENEv
 .text._ZN15MotorController7GetMDirEv
                0x00000684        0xc mc.o
                0x00000684                _ZN15MotorController7GetMDirEv
 .text._ZN15MotorController9SetMDPinsEv
                0x00000690       0x20 mc.o
                0x00000690                _ZN15MotorController9SetMDPinsEv
 .text._ZN15MotorController8SetM_AMDEv
                0x000006b0        0xe mc.o
                0x000006b0                _ZN15MotorController8SetM_AMDEv
 .text._ZN15MotorController9IsMDSOpenEv
                0x000006be        0xe mc.o
                0x000006be                _ZN15MotorController9IsMDSOpenEv
 .text._ZN15MotorController11IsMDSClosedEv
                0x000006cc       0x10 mc.o
                0x000006cc                _ZN15MotorController11IsMDSClosedEv
 .text._ZN15MotorController11SetMtrSpeedEv
                0x000006dc       0x16 mc.o
                0x000006dc                _ZN15MotorController11SetMtrSpeedEv
 .text._ZN15MotorController12SetAMSStatusEv
                0x000006f2       0x84 mc.o
                0x000006f2                _ZN15MotorController12SetAMSStatusEv
 .text._ZN15MotorController12SetDMDRmpDwnEv
                0x00000776       0x3e mc.o
                0x00000776                _ZN15MotorController12SetDMDRmpDwnEv
 .text._ZN15MotorController8SetM_MDSEv
                0x000007b4       0x72 mc.o
                0x000007b4                _ZN15MotorController8SetM_MDSEv
 .text._ZN15MotorController19IsDriveMotorStoppedEv
                0x00000826        0xe mc.o
                0x00000826                _ZN15MotorController19IsDriveMotorStoppedEv
 .text._ZN15MotorController5StopMEv
                0x00000834       0x1c mc.o
                0x00000834                _ZN15MotorController5StopMEv
 .text._ZN15MotorController14KillSwitchStopEv
                0x00000850       0x26 mc.o
                0x00000850                _ZN15MotorController14KillSwitchStopEv
 .text._ZN15MotorController11IsMBEnabledEv
                0x00000876       0x10 mc.o
                0x00000876                _ZN15MotorController11IsMBEnabledEv
 .text._ZN15MotorController8SetMBPinEv
                0x00000886       0x14 mc.o
                0x00000886                _ZN15MotorController8SetMBPinEv
 .text._ZN15MotorController8ClrMBPinEv
                0x0000089a       0x14 mc.o
                0x0000089a                _ZN15MotorController8ClrMBPinEv
 .text._ZN15MotorController7SetMBOnEv
                0x000008ae       0x24 mc.o
                0x000008ae                _ZN15MotorController7SetMBOnEv
 .text._ZN15MotorController11SetMtrBreakEv
                0x000008d2       0x10 mc.o
                0x000008d2                _ZN15MotorController11SetMtrBreakEv
 .text._ZN15MotorController9SyncMotorEv
                0x000008e2       0x70 mc.o
                0x000008e2                _ZN15MotorController9SyncMotorEv
 .text._ZN15MotorController15ResetStopDurTmrEv
                0x00000952       0x12 mc.o
                0x00000952                _ZN15MotorController15ResetStopDurTmrEv
 .text._ZN15MotorController8MCDriverEv
                0x00000964       0x3e mc.o
                0x00000964                _ZN15MotorController8MCDriverEv
 .text._ZN7MCAIDev10GetM1SpeedEv
                0x000009a2        0x6 mcaidev.o
                0x000009a2                _ZN7MCAIDev10GetM1SpeedEv
 .text._ZN7MCAIDev10SetM1SpeedEh
                0x000009a8       0x22 mcaidev.o
                0x000009a8                _ZN7MCAIDev10SetM1SpeedEh
 .text._ZN7MCAIDev10GetM2SpeedEv
                0x000009ca        0x6 mcaidev.o
                0x000009ca                _ZN7MCAIDev10GetM2SpeedEv
 .text._ZN7MCAIDev10SetM2SpeedEh
                0x000009d0       0x22 mcaidev.o
                0x000009d0                _ZN7MCAIDev10SetM2SpeedEh
 .text._ZN7MCAIDev7GetMDirEv
                0x000009f2        0x6 mcaidev.o
                0x000009f2                _ZN7MCAIDev7GetMDirEv
 .text._ZN7MCAIDev7SetMDirEh
                0x000009f8       0x22 mcaidev.o
                0x000009f8                _ZN7MCAIDev7SetMDirEh
 .text._ZN7MCAIDev6DriverEP4RF24
                0x00000a1a       0x70 mcaidev.o
                0x00000a1a                _ZN7MCAIDev6DriverEP4RF24
 .text._ZN7MCAIDev18IsKillSwitchActiveEv
                0x00000a8a        0x6 mcaidev.o
                0x00000a8a                _ZN7MCAIDev18IsKillSwitchActiveEv
 .text._Znaj    0x00000a90        0x4 new.o
                0x00000a90                _Znaj
 .text._ZN9ObjTimersC2EP9TimerBasej
                0x00000a94       0xac objtimers.o
                0x00000a94                _ZN9ObjTimersC1EP9TimerBasej
                0x00000a94                _ZN9ObjTimersC2EP9TimerBasej
 .text._ZN9ObjTimers10StartTimerEjm
                0x00000b40       0x6a objtimers.o
                0x00000b40                _ZN9ObjTimers10StartTimerEjm
 .text._ZN9ObjTimers9TimerDoneEj
                0x00000baa       0x66 objtimers.o
                0x00000baa                _ZN9ObjTimers9TimerDoneEj
 .text._ZN9ObjTimers12UpdateTimersEv
                0x00000c10       0x66 objtimers.o
                0x00000c10                _ZN9ObjTimers12UpdateTimersEv
 .text._ZN5PMMIO11SetPortBitsEPVhhh
                0x00000c76        0xe pmmio.o
                0x00000c76                _ZN5PMMIO11SetPortBitsEPVhhh
 .text._ZN5PMMIO11GetPortBitsEPVhh
                0x00000c84        0xa pmmio.o
                0x00000c84                _ZN5PMMIO11GetPortBitsEPVhh
 .text._ZN5PMMIO12Set16BitPortEPVjj
                0x00000c8e        0x8 pmmio.o
                0x00000c8e                _ZN5PMMIO12Set16BitPortEPVjj
 .text._ZN5PMMIO12Get16BitPortEPVj
                0x00000c96        0xc pmmio.o
                0x00000c96                _ZN5PMMIO12Get16BitPortEPVj
 .text._ZN6PWMPFC12GetDutyCycleEv
                0x00000ca2       0x36 pwmpfc.o
                0x00000ca2                _ZN6PWMPFC12GetDutyCycleEv
 .text._ZN6PWMPFC12SetDutyCycleEj
                0x00000cd8       0x2a pwmpfc.o
                0x00000cd8                _ZN6PWMPFC12SetDutyCycleEj
 .text._ZN4RF243csnEh
                0x00000d02       0x36 rf24.o
                0x00000d02                _ZN4RF243csnEh
 .text._ZN4RF242ceEh
                0x00000d38        0xe rf24.o
                0x00000d38                _ZN4RF242ceEh
 .text._ZN4RF2413read_registerEh
                0x00000d46       0x36 rf24.o
                0x00000d46                _ZN4RF2413read_registerEh
 .text._ZN4RF2414write_registerEhPKhh
                0x00000d7c       0x5e rf24.o
                0x00000d7c                _ZN4RF2414write_registerEhPKhh
 .text._ZN4RF2414write_registerEhh
                0x00000dda       0x40 rf24.o
                0x00000dda                _ZN4RF2414write_registerEhh
 .text._ZN4RF2412read_payloadEPvh
                0x00000e1a       0x8a rf24.o
                0x00000e1a                _ZN4RF2412read_payloadEPvh
 .text._ZN4RF248flush_rxEv
                0x00000ea4       0x28 rf24.o
                0x00000ea4                _ZN4RF248flush_rxEv
 .text._ZN4RF248flush_txEv
                0x00000ecc       0x28 rf24.o
                0x00000ecc                _ZN4RF248flush_txEv
 .text._ZN4RF2410get_statusEv
                0x00000ef4       0x28 rf24.o
                0x00000ef4                _ZN4RF2410get_statusEv
 .text._ZN4RF24C2EPVhS1_hS1_S1_hP8SPIClass
                0x00000f1c       0x64 rf24.o
                0x00000f1c                _ZN4RF24C2EPVhS1_hS1_S1_hP8SPIClass
                0x00000f1c                _ZN4RF24C1EPVhS1_hS1_S1_hP8SPIClass
 .text._ZN4RF2410setChannelEh
                0x00000f80        0xe rf24.o
                0x00000f80                _ZN4RF2410setChannelEh
 .text._ZN4RF2414startListeningEv
                0x00000f8e       0x60 rf24.o
                0x00000f8e                _ZN4RF2414startListeningEv
 .text._ZN4RF249availableEPh
                0x00000fee       0x56 rf24.o
                0x00000fee                _ZN4RF249availableEPh
 .text._ZN4RF249availableEv
                0x00001044        0x8 rf24.o
                0x00001044                _ZN4RF249availableEv
 .text._ZN4RF244readEPvh
                0x0000104c       0x16 rf24.o
                0x0000104c                _ZN4RF244readEPvh
 .text._ZN4RF2415openReadingPipeEhy
                0x00001062       0xe2 rf24.o
                0x00001062                _ZN4RF2415openReadingPipeEhy
 .text._ZN4RF2410setPALevelE13rf24_pa_dbm_e
                0x00001144       0x3e rf24.o
                0x00001144                _ZN4RF2410setPALevelE13rf24_pa_dbm_e
 .text._ZN4RF2411setDataRateE15rf24_datarate_e
                0x00001182       0x4c rf24.o
                0x00001182                _ZN4RF2411setDataRateE15rf24_datarate_e
 .text._ZN4RF2412setCRCLengthE16rf24_crclength_e
                0x000011ce       0x2e rf24.o
                0x000011ce                _ZN4RF2412setCRCLengthE16rf24_crclength_e
 .text._ZN4RF245beginEv
                0x000011fc       0x94 rf24.o
                0x000011fc                _ZN4RF245beginEv
 .text._ZN8SPIClass5beginEPVhS1_
                0x00001290       0x46 spi.o
                0x00001290                _ZN8SPIClass5beginEPVhS1_
 .text._ZN8SPIClass11setBitOrderEh
                0x000012d6       0x14 spi.o
                0x000012d6                _ZN8SPIClass11setBitOrderEh
 .text._ZN8SPIClass11setDataModeEh
                0x000012ea        0xa spi.o
                0x000012ea                _ZN8SPIClass11setDataModeEh
 .text._ZN8SPIClass15setClockDividerEh
                0x000012f4       0x1e spi.o
                0x000012f4                _ZN8SPIClass15setClockDividerEh
 .text._ZN11SystemError8SysErrorEj
                0x00001312       0x12 syserror.o
                0x00001312                _ZN11SystemError8SysErrorEj
 .text._ZN3MC1C2EP9TimerBaseP6PWMPFC
                0x00001324       0xac test.o
                0x00001324                _ZN3MC1C1EP9TimerBaseP6PWMPFC
                0x00001324                _ZN3MC1C2EP9TimerBaseP6PWMPFC
 .text._ZN3MC2C2EP9TimerBaseP6PWMPFC
                0x000013d0       0xb0 test.o
                0x000013d0                _ZN3MC2C2EP9TimerBaseP6PWMPFC
                0x000013d0                _ZN3MC2C1EP9TimerBaseP6PWMPFC
 .text.main     0x00001480      0x35a test.o
                0x00001480                main
 .text.__vector_15
                0x000017da       0x5c timer2oi.o
                0x000017da                __vector_15
 .text._ZN8Timer2OI12UpdateTimersEv
                0x00001836       0x5e timer2oi.o
                0x00001836                _ZN8Timer2OI12UpdateTimersEv
 .text._ZN8Timer2OI10StartTimerEN4T2OI1tEm
                0x00001894       0x1e timer2oi.o
                0x00001894                _ZN8Timer2OI10StartTimerEN4T2OI1tEm
 .text._ZN8Timer2OI9TimerDoneEN4T2OI1tE
                0x000018b2       0x2e timer2oi.o
                0x000018b2                _ZN8Timer2OI9TimerDoneEN4T2OI1tE
 .text._ZN9TimerBaseC2Ev
                0x000018e0       0x10 timerbase.o
                0x000018e0                _ZN9TimerBaseC2Ev
                0x000018e0                _ZN9TimerBaseC1Ev
 .text._ZN9TimerBase12AssignObjectEP9ObjTimers
                0x000018f0       0x86 timerbase.o
                0x000018f0                _ZN9TimerBase12AssignObjectEP9ObjTimers
 .text._ZN9TimerBase15UpdateObjTimersEv
                0x00001976       0x64 timerbase.o
                0x00001976                _ZN9TimerBase15UpdateObjTimersEv
 .text.libgcc   0x000019da       0x10 c:/program files (x86)/atmel/studio/7.0/toolchain/avr8/avr8-gnu-toolchain/bin/../lib/gcc/avr/4.9.2/avr6\libgcc.a(_tablejump2.o)
                0x000019da                __tablejump2__
 .text.libgcc   0x000019ea       0x18 c:/program files (x86)/atmel/studio/7.0/toolchain/avr8/avr8-gnu-toolchain/bin/../lib/gcc/avr/4.9.2/avr6\libgcc.a(_cmpdi2_s8.o)
                0x000019ea                __cmpdi2_s8
 .text.avr-libc
                0x00001a02      0x25a c:/program files (x86)/atmel/studio/7.0/toolchain/avr8/avr8-gnu-toolchain/bin/../lib/gcc/avr/4.9.2/../../../../avr/lib/avr6\libc.a(malloc.o)
                0x00001a02                malloc
                0x00001b2c                free
                0x00001c5c                . = ALIGN (0x2)
 *(.fini9)
 .fini9         0x00001c5c        0x0 c:/program files (x86)/atmel/studio/7.0/toolchain/avr8/avr8-gnu-toolchain/bin/../lib/gcc/avr/4.9.2/avr6\libgcc.a(_exit.o)
                0x00001c5c                _exit
                0x00001c5c                exit
 *(.fini9)
 *(.fini8)
 *(.fini8)
 *(.fini7)
 *(.fini7)
 *(.fini6)
 *(.fini6)
 *(.fini5)
 *(.fini5)
 *(.fini4)
 *(.fini4)
 *(.fini3)
 *(.fini3)
 *(.fini2)
 *(.fini2)
 *(.fini1)
 *(.fini1)
 *(.fini0)
 .fini0         0x00001c5c        0x4 c:/program files (x86)/atmel/studio/7.0/toolchain/avr8/avr8-gnu-toolchain/bin/../lib/gcc/avr/4.9.2/avr6\libgcc.a(_exit.o)
 *(.fini0)
                0x00001c60                _etext = .

.data           0x00800200        0x6 load address 0x00001c60
                0x00800200                PROVIDE (__data_start, .)
 *(.data)
 .data          0x00800200        0x6 c:/program files (x86)/atmel/studio/7.0/toolchain/avr8/avr8-gnu-toolchain/bin/../lib/gcc/avr/4.9.2/../../../../avr/lib/avr6\libc.a(malloc.o)
                0x00800200                __malloc_heap_end
                0x00800202                __malloc_heap_start
                0x00800204                __malloc_margin
 *(.data*)
 *(.rodata)
 *(.rodata*)
 *(.gnu.linkonce.d*)
                0x00800206                . = ALIGN (0x2)
                0x00800206                _edata = .
                0x00800206                PROVIDE (__data_end, .)

.bss            0x00800206        0xc
                0x00800206                PROVIDE (__bss_start, .)
 *(.bss)
 *(.bss*)
 .bss._ZN6TMR2OIL10TIMER2_INTE
                0x00800206        0x2 test.o
 .bss._ZN6TMR2OIL10TIMER2_INTE
                0x00800208        0x2 timer2oi.o
 .bss._ZN6TMR2OIL10TIMER2_CNTE
                0x0080020a        0x4 timer2oi.o
 *(COMMON)
 COMMON         0x0080020e        0x4 c:/program files (x86)/atmel/studio/7.0/toolchain/avr8/avr8-gnu-toolchain/bin/../lib/gcc/avr/4.9.2/../../../../avr/lib/avr6\libc.a(malloc.o)
                0x0080020e                __brkval
                0x00800210                __flp
                0x00800212                PROVIDE (__bss_end, .)
                0x00001c60                __data_load_start = LOADADDR (.data)
                0x00001c66                __data_load_end = (__data_load_start + SIZEOF (.data))

.noinit         0x00800212        0x0
                0x00800212                PROVIDE (__noinit_start, .)
 *(.noinit*)
                0x00800212                PROVIDE (__noinit_end, .)
                0x00800212                _end = .
                0x00800212                PROVIDE (__heap_start, .)

.eeprom         0x00810000        0x0
 *(.eeprom*)
                0x00810000                __eeprom_end = .

.fuse
 *(.fuse)
 *(.lfuse)
 *(.hfuse)
 *(.efuse)

.lock
 *(.lock*)

.signature
 *(.signature*)

.user_signatures
 *(.user_signatures*)

.stab
 *(.stab)

.stabstr
 *(.stabstr)

.stab.excl
 *(.stab.excl)

.stab.exclstr
 *(.stab.exclstr)

.stab.index
 *(.stab.index)

.stab.indexstr
 *(.stab.indexstr)

.comment        0x00000000       0x30
 *(.comment)
 .comment       0x00000000       0x30 jsmcfsm5.o
                                 0x31 (size before relaxing)
 .comment       0x00000030       0x31 mc.o
 .comment       0x00000030       0x31 mcaidev.o
 .comment       0x00000030       0x31 new.o
 .comment       0x00000030       0x31 objtimers.o
 .comment       0x00000030       0x31 pmmio.o
 .comment       0x00000030       0x31 pwmpfc.o
 .comment       0x00000030       0x31 rf24.o
 .comment       0x00000030       0x31 spi.o
 .comment       0x00000030       0x31 syserror.o
 .comment       0x00000030       0x31 test.o
 .comment       0x00000030       0x31 timer2oi.o
 .comment       0x00000030       0x31 timerbase.o
 .comment       0x00000030       0x31 c:/program files (x86)/atmel/studio/7.0/toolchain/avr8/avr8-gnu-toolchain/bin/../lib/gcc/avr/4.9.2/../../../../avr/lib/avr6\libc.a(malloc.o)

.note.gnu.avr.deviceinfo
                0x00000000       0x40
 .note.gnu.avr.deviceinfo
                0x00000000       0x40 C:/Program Files (x86)/Atmel/Studio/7.0/Packs/atmel/ATmega_DFP/1.0.98/gcc/dev/atmega2560/avr6/crtatmega2560.o

.note.gnu.build-id
 *(.note.gnu.build-id)

.debug
 *(.debug)

.line
 *(.line)

.debug_srcinfo
 *(.debug_srcinfo)

.debug_sfnames
 *(.debug_sfnames)

.debug_aranges  0x00000000      0x700
 *(.debug_aranges)
 .debug_aranges
                0x00000000       0xa0 jsmcfsm5.o
 .debug_aranges
                0x000000a0      0x200 mc.o
 .debug_aranges
                0x000002a0       0x80 mcaidev.o
 .debug_aranges
                0x00000320       0x58 new.o
 .debug_aranges
                0x00000378       0x40 objtimers.o
 .debug_aranges
                0x000003b8       0x38 pmmio.o
 .debug_aranges
                0x000003f0       0x38 pwmpfc.o
 .debug_aranges
                0x00000428      0x1b8 rf24.o
 .debug_aranges
                0x000005e0       0x40 spi.o
 .debug_aranges
                0x00000620       0x20 syserror.o
 .debug_aranges
                0x00000640       0x30 test.o
 .debug_aranges
                0x00000670       0x58 timer2oi.o
 .debug_aranges
                0x000006c8       0x38 timerbase.o

.debug_pubnames
 *(.debug_pubnames)

.debug_info     0x00000000     0xea11
 *(.debug_info .gnu.linkonce.wi.*)
 .debug_info    0x00000000     0x3038 jsmcfsm5.o
 .debug_info    0x00003038     0x2461 mc.o
 .debug_info    0x00005499     0x1293 mcaidev.o
 .debug_info    0x0000672c      0x230 new.o
 .debug_info    0x0000695c      0x620 objtimers.o
 .debug_info    0x00006f7c      0x26d pmmio.o
 .debug_info    0x000071e9      0x39e pwmpfc.o
 .debug_info    0x00007587     0x35ec rf24.o
 .debug_info    0x0000ab73      0x405 spi.o
 .debug_info    0x0000af78       0xd7 syserror.o
 .debug_info    0x0000b04f     0x2f1c test.o
 .debug_info    0x0000df6b      0x688 timer2oi.o
 .debug_info    0x0000e5f3      0x41e timerbase.o

.debug_abbrev   0x00000000     0x2301
 *(.debug_abbrev)
 .debug_abbrev  0x00000000      0x395 jsmcfsm5.o
 .debug_abbrev  0x00000395      0x3a8 mc.o
 .debug_abbrev  0x0000073d      0x33a mcaidev.o
 .debug_abbrev  0x00000a77      0x13f new.o
 .debug_abbrev  0x00000bb6      0x2cc objtimers.o
 .debug_abbrev  0x00000e82      0x128 pmmio.o
 .debug_abbrev  0x00000faa      0x1d0 pwmpfc.o
 .debug_abbrev  0x0000117a      0x528 rf24.o
 .debug_abbrev  0x000016a2      0x1a5 spi.o
 .debug_abbrev  0x00001847       0xa3 syserror.o
 .debug_abbrev  0x000018ea      0x494 test.o
 .debug_abbrev  0x00001d7e      0x2e1 timer2oi.o
 .debug_abbrev  0x0000205f      0x2a2 timerbase.o

.debug_line     0x00000000     0x2e43
 *(.debug_line .debug_line.* .debug_line_end)
 .debug_line    0x00000000      0x44f jsmcfsm5.o
 .debug_line    0x0000044f      0x8f9 mc.o
 .debug_line    0x00000d48      0x344 mcaidev.o
 .debug_line    0x0000108c      0x1b7 new.o
 .debug_line    0x00001243      0x2a1 objtimers.o
 .debug_line    0x000014e4       0xff pmmio.o
 .debug_line    0x000015e3      0x11b pwmpfc.o
 .debug_line    0x000016fe      0xde2 rf24.o
 .debug_line    0x000024e0      0x149 spi.o
 .debug_line    0x00002629       0x77 syserror.o
 .debug_line    0x000026a0      0x46b test.o
 .debug_line    0x00002b0b      0x1de timer2oi.o
 .debug_line    0x00002ce9      0x15a timerbase.o

.debug_frame    0x00000000     0x14a4
 *(.debug_frame)
 .debug_frame   0x00000000      0x30c jsmcfsm5.o
 .debug_frame   0x0000030c      0x478 mc.o
 .debug_frame   0x00000784      0x140 mcaidev.o
 .debug_frame   0x000008c4       0x94 new.o
 .debug_frame   0x00000958       0xd8 objtimers.o
 .debug_frame   0x00000a30       0x54 pmmio.o
 .debug_frame   0x00000a84       0x60 pwmpfc.o
 .debug_frame   0x00000ae4      0x764 rf24.o
 .debug_frame   0x00001248       0x78 spi.o
 .debug_frame   0x000012c0       0x24 syserror.o
 .debug_frame   0x000012e4       0x80 test.o
 .debug_frame   0x00001364       0xc0 timer2oi.o
 .debug_frame   0x00001424       0x80 timerbase.o

.debug_str      0x00000000     0x2aa4
 *(.debug_str)
 .debug_str     0x00000000     0x220b jsmcfsm5.o
                               0x23f2 (size before relaxing)
 .debug_str     0x0000220b       0x16 mc.o
                               0x11a3 (size before relaxing)
 .debug_str     0x00002221       0x24 mcaidev.o
                                0xffd (size before relaxing)
 .debug_str     0x00002245       0xcf new.o
                                0x230 (size before relaxing)
 .debug_str     0x00002314       0x66 objtimers.o
                                0x3d0 (size before relaxing)
 .debug_str     0x0000237a       0x14 pmmio.o
                                0x27d (size before relaxing)
 .debug_str     0x0000238e       0x17 pwmpfc.o
                                0x341 (size before relaxing)
 .debug_str     0x000023a5      0x373 rf24.o
                               0x1114 (size before relaxing)
 .debug_str     0x00002718       0x2a spi.o
                                0x3cb (size before relaxing)
 .debug_str     0x00002742       0x1c syserror.o
                                0x1f1 (size before relaxing)
 .debug_str     0x0000275e      0x2f3 test.o
                               0x270f (size before relaxing)
 .debug_str     0x00002a51       0x28 timer2oi.o
                                0x544 (size before relaxing)
 .debug_str     0x00002a79       0x2b timerbase.o
                                0x34a (size before relaxing)

.debug_loc      0x00000000     0x5e4e
 *(.debug_loc)
 .debug_loc     0x00000000     0x1271 jsmcfsm5.o
 .debug_loc     0x00001271      0xe07 mc.o
 .debug_loc     0x00002078      0x45b mcaidev.o
 .debug_loc     0x000024d3       0xc0 new.o
 .debug_loc     0x00002593      0x41f objtimers.o
 .debug_loc     0x000029b2       0xc9 pmmio.o
 .debug_loc     0x00002a7b      0x1aa pwmpfc.o
 .debug_loc     0x00002c25     0x28ff rf24.o
 .debug_loc     0x00005524      0x1d3 spi.o
 .debug_loc     0x000056f7      0x34a test.o
 .debug_loc     0x00005a41      0x204 timer2oi.o
 .debug_loc     0x00005c45      0x209 timerbase.o

.debug_macinfo
 *(.debug_macinfo)

.debug_weaknames
 *(.debug_weaknames)

.debug_funcnames
 *(.debug_funcnames)

.debug_typenames
 *(.debug_typenames)

.debug_varnames
 *(.debug_varnames)

.debug_pubtypes
 *(.debug_pubtypes)

.debug_ranges   0x00000000      0x630
 *(.debug_ranges)
 .debug_ranges  0x00000000       0x90 jsmcfsm5.o
 .debug_ranges  0x00000090      0x1f0 mc.o
 .debug_ranges  0x00000280       0x70 mcaidev.o
 .debug_ranges  0x000002f0       0x48 new.o
 .debug_ranges  0x00000338       0x30 objtimers.o
 .debug_ranges  0x00000368       0x28 pmmio.o
 .debug_ranges  0x00000390       0x28 pwmpfc.o
 .debug_ranges  0x000003b8      0x1a8 rf24.o
 .debug_ranges  0x00000560       0x30 spi.o
 .debug_ranges  0x00000590       0x10 syserror.o
 .debug_ranges  0x000005a0       0x20 test.o
 .debug_ranges  0x000005c0       0x48 timer2oi.o
 .debug_ranges  0x00000608       0x28 timerbase.o

.debug_macro
 *(.debug_macro)
OUTPUT(rfmcfsm5.elf elf32-avr)
LOAD linker stubs
