
rfmcfsm5.elf:     file format elf32-avr

Sections:
Idx Name          Size      VMA       LMA       File off  Algn
  0 .data         00000006  00800200  00001c60  00001cf4  2**0
                  CONTENTS, ALLOC, LOAD, DATA
  1 .text         00001c60  00000000  00000000  00000094  2**1
                  CONTENTS, ALLOC, LOAD, READONLY, CODE
  2 .bss          0000000c  00800206  00800206  00001cfa  2**0
                  ALLOC
  3 .comment      00000030  00000000  00000000  00001cfa  2**0
                  CONTENTS, READONLY
  4 .note.gnu.avr.deviceinfo 00000040  00000000  00000000  00001d2c  2**2
                  CONTENTS, READONLY
  5 .debug_aranges 00000700  00000000  00000000  00001d6c  2**0
                  CONTENTS, READONLY, DEBUGGING
  6 .debug_info   0000ea11  00000000  00000000  0000246c  2**0
                  CONTENTS, READONLY, DEBUGGING
  7 .debug_abbrev 00002301  00000000  00000000  00010e7d  2**0
                  CONTENTS, READONLY, DEBUGGING
  8 .debug_line   00002e43  00000000  00000000  0001317e  2**0
                  CONTENTS, READONLY, DEBUGGING
  9 .debug_frame  000014a4  00000000  00000000  00015fc4  2**2
                  CONTENTS, READONLY, DEBUGGING
 10 .debug_str    00002aa4  00000000  00000000  00017468  2**0
                  CONTENTS, READONLY, DEBUGGING
 11 .debug_loc    00005e4e  00000000  00000000  00019f0c  2**0
                  CONTENTS, READONLY, DEBUGGING
 12 .debug_ranges 00000630  00000000  00000000  0001fd5a  2**0
                  CONTENTS, READONLY, DEBUGGING

Disassembly of section .text:

00000000 <__vectors>:
       0:	a6 c0       	rjmp	.+332    	; 0x14e <__ctors_end>
       2:	00 00       	nop
       4:	c5 c0       	rjmp	.+394    	; 0x190 <__bad_interrupt>
       6:	00 00       	nop
       8:	c3 c0       	rjmp	.+390    	; 0x190 <__bad_interrupt>
       a:	00 00       	nop
       c:	c1 c0       	rjmp	.+386    	; 0x190 <__bad_interrupt>
       e:	00 00       	nop
      10:	bf c0       	rjmp	.+382    	; 0x190 <__bad_interrupt>
      12:	00 00       	nop
      14:	bd c0       	rjmp	.+378    	; 0x190 <__bad_interrupt>
      16:	00 00       	nop
      18:	bb c0       	rjmp	.+374    	; 0x190 <__bad_interrupt>
      1a:	00 00       	nop
      1c:	b9 c0       	rjmp	.+370    	; 0x190 <__bad_interrupt>
      1e:	00 00       	nop
      20:	b7 c0       	rjmp	.+366    	; 0x190 <__bad_interrupt>
      22:	00 00       	nop
      24:	b5 c0       	rjmp	.+362    	; 0x190 <__bad_interrupt>
      26:	00 00       	nop
      28:	b3 c0       	rjmp	.+358    	; 0x190 <__bad_interrupt>
      2a:	00 00       	nop
      2c:	b1 c0       	rjmp	.+354    	; 0x190 <__bad_interrupt>
      2e:	00 00       	nop
      30:	af c0       	rjmp	.+350    	; 0x190 <__bad_interrupt>
      32:	00 00       	nop
      34:	ad c0       	rjmp	.+346    	; 0x190 <__bad_interrupt>
      36:	00 00       	nop
      38:	ab c0       	rjmp	.+342    	; 0x190 <__bad_interrupt>
      3a:	00 00       	nop
      3c:	0c 94 ed 0b 	jmp	0x17da	; 0x17da <__vector_15>
      40:	a7 c0       	rjmp	.+334    	; 0x190 <__bad_interrupt>
      42:	00 00       	nop
      44:	a5 c0       	rjmp	.+330    	; 0x190 <__bad_interrupt>
      46:	00 00       	nop
      48:	a3 c0       	rjmp	.+326    	; 0x190 <__bad_interrupt>
      4a:	00 00       	nop
      4c:	a1 c0       	rjmp	.+322    	; 0x190 <__bad_interrupt>
      4e:	00 00       	nop
      50:	9f c0       	rjmp	.+318    	; 0x190 <__bad_interrupt>
      52:	00 00       	nop
      54:	9d c0       	rjmp	.+314    	; 0x190 <__bad_interrupt>
      56:	00 00       	nop
      58:	9b c0       	rjmp	.+310    	; 0x190 <__bad_interrupt>
      5a:	00 00       	nop
      5c:	99 c0       	rjmp	.+306    	; 0x190 <__bad_interrupt>
      5e:	00 00       	nop
      60:	97 c0       	rjmp	.+302    	; 0x190 <__bad_interrupt>
      62:	00 00       	nop
      64:	95 c0       	rjmp	.+298    	; 0x190 <__bad_interrupt>
      66:	00 00       	nop
      68:	93 c0       	rjmp	.+294    	; 0x190 <__bad_interrupt>
      6a:	00 00       	nop
      6c:	91 c0       	rjmp	.+290    	; 0x190 <__bad_interrupt>
      6e:	00 00       	nop
      70:	8f c0       	rjmp	.+286    	; 0x190 <__bad_interrupt>
      72:	00 00       	nop
      74:	8d c0       	rjmp	.+282    	; 0x190 <__bad_interrupt>
      76:	00 00       	nop
      78:	8b c0       	rjmp	.+278    	; 0x190 <__bad_interrupt>
      7a:	00 00       	nop
      7c:	89 c0       	rjmp	.+274    	; 0x190 <__bad_interrupt>
      7e:	00 00       	nop
      80:	87 c0       	rjmp	.+270    	; 0x190 <__bad_interrupt>
      82:	00 00       	nop
      84:	85 c0       	rjmp	.+266    	; 0x190 <__bad_interrupt>
      86:	00 00       	nop
      88:	83 c0       	rjmp	.+262    	; 0x190 <__bad_interrupt>
      8a:	00 00       	nop
      8c:	81 c0       	rjmp	.+258    	; 0x190 <__bad_interrupt>
      8e:	00 00       	nop
      90:	7f c0       	rjmp	.+254    	; 0x190 <__bad_interrupt>
      92:	00 00       	nop
      94:	7d c0       	rjmp	.+250    	; 0x190 <__bad_interrupt>
      96:	00 00       	nop
      98:	7b c0       	rjmp	.+246    	; 0x190 <__bad_interrupt>
      9a:	00 00       	nop
      9c:	79 c0       	rjmp	.+242    	; 0x190 <__bad_interrupt>
      9e:	00 00       	nop
      a0:	77 c0       	rjmp	.+238    	; 0x190 <__bad_interrupt>
      a2:	00 00       	nop
      a4:	75 c0       	rjmp	.+234    	; 0x190 <__bad_interrupt>
      a6:	00 00       	nop
      a8:	73 c0       	rjmp	.+230    	; 0x190 <__bad_interrupt>
      aa:	00 00       	nop
      ac:	71 c0       	rjmp	.+226    	; 0x190 <__bad_interrupt>
      ae:	00 00       	nop
      b0:	6f c0       	rjmp	.+222    	; 0x190 <__bad_interrupt>
      b2:	00 00       	nop
      b4:	6d c0       	rjmp	.+218    	; 0x190 <__bad_interrupt>
      b6:	00 00       	nop
      b8:	6b c0       	rjmp	.+214    	; 0x190 <__bad_interrupt>
      ba:	00 00       	nop
      bc:	69 c0       	rjmp	.+210    	; 0x190 <__bad_interrupt>
      be:	00 00       	nop
      c0:	67 c0       	rjmp	.+206    	; 0x190 <__bad_interrupt>
      c2:	00 00       	nop
      c4:	65 c0       	rjmp	.+202    	; 0x190 <__bad_interrupt>
      c6:	00 00       	nop
      c8:	63 c0       	rjmp	.+198    	; 0x190 <__bad_interrupt>
      ca:	00 00       	nop
      cc:	61 c0       	rjmp	.+194    	; 0x190 <__bad_interrupt>
      ce:	00 00       	nop
      d0:	5f c0       	rjmp	.+190    	; 0x190 <__bad_interrupt>
      d2:	00 00       	nop
      d4:	5d c0       	rjmp	.+186    	; 0x190 <__bad_interrupt>
      d6:	00 00       	nop
      d8:	5b c0       	rjmp	.+182    	; 0x190 <__bad_interrupt>
      da:	00 00       	nop
      dc:	59 c0       	rjmp	.+178    	; 0x190 <__bad_interrupt>
      de:	00 00       	nop
      e0:	57 c0       	rjmp	.+174    	; 0x190 <__bad_interrupt>
      e2:	00 00       	nop
      e4:	07 02       	muls	r16, r23
      e6:	0d 02       	muls	r16, r29
      e8:	0d 02       	muls	r16, r29
      ea:	11 02       	muls	r17, r17
      ec:	0d 02       	muls	r16, r29
      ee:	0d 02       	muls	r16, r29
      f0:	0d 02       	muls	r16, r29
      f2:	11 02       	muls	r17, r17
      f4:	0d 02       	muls	r16, r29
      f6:	07 02       	muls	r16, r23
      f8:	0d 02       	muls	r16, r29
      fa:	32 02       	muls	r19, r18
      fc:	38 02       	muls	r19, r24
      fe:	38 02       	muls	r19, r24
     100:	3c 02       	muls	r19, r28
     102:	38 02       	muls	r19, r24
     104:	38 02       	muls	r19, r24
     106:	32 02       	muls	r19, r18
     108:	3c 02       	muls	r19, r28
     10a:	38 02       	muls	r19, r24
     10c:	38 02       	muls	r19, r24
     10e:	38 02       	muls	r19, r24
     110:	5d 02       	muls	r21, r29
     112:	63 02       	muls	r22, r19
     114:	63 02       	muls	r22, r19
     116:	67 02       	muls	r22, r23
     118:	63 02       	muls	r22, r19
     11a:	63 02       	muls	r22, r19
     11c:	63 02       	muls	r22, r19
     11e:	67 02       	muls	r22, r23
     120:	63 02       	muls	r22, r19
     122:	63 02       	muls	r22, r19
     124:	5d 02       	muls	r21, r29
     126:	88 02       	muls	r24, r24
     128:	8e 02       	muls	r24, r30
     12a:	8e 02       	muls	r24, r30
     12c:	92 02       	muls	r25, r18
     12e:	8e 02       	muls	r24, r30
     130:	88 02       	muls	r24, r24
     132:	8e 02       	muls	r24, r30
     134:	92 02       	muls	r25, r18
     136:	8e 02       	muls	r24, r30
     138:	8e 02       	muls	r24, r30
     13a:	8e 02       	muls	r24, r30

0000013c <__trampolines_end>:
     13c:	00 01       	movw	r0, r0
     13e:	02 03       	mulsu	r16, r18
     140:	04 05       	cpc	r16, r4

00000142 <_ZL18child_payload_size>:
     142:	11 12 13 14 15 16                                   ......

00000148 <_ZL10child_pipe>:
     148:	0a 0b 0c 0d 0e 0f                                   ......

0000014e <__ctors_end>:
     14e:	11 24       	eor	r1, r1
     150:	1f be       	out	0x3f, r1	; 63
     152:	cf ef       	ldi	r28, 0xFF	; 255
     154:	d1 e2       	ldi	r29, 0x21	; 33
     156:	de bf       	out	0x3e, r29	; 62
     158:	cd bf       	out	0x3d, r28	; 61
     15a:	00 e0       	ldi	r16, 0x00	; 0
     15c:	0c bf       	out	0x3c, r16	; 60

0000015e <__do_copy_data>:
     15e:	12 e0       	ldi	r17, 0x02	; 2
     160:	a0 e0       	ldi	r26, 0x00	; 0
     162:	b2 e0       	ldi	r27, 0x02	; 2
     164:	e0 e6       	ldi	r30, 0x60	; 96
     166:	fc e1       	ldi	r31, 0x1C	; 28
     168:	00 e0       	ldi	r16, 0x00	; 0
     16a:	0b bf       	out	0x3b, r16	; 59
     16c:	02 c0       	rjmp	.+4      	; 0x172 <__do_copy_data+0x14>
     16e:	07 90       	elpm	r0, Z+
     170:	0d 92       	st	X+, r0
     172:	a6 30       	cpi	r26, 0x06	; 6
     174:	b1 07       	cpc	r27, r17
     176:	d9 f7       	brne	.-10     	; 0x16e <__do_copy_data+0x10>

00000178 <__do_clear_bss>:
     178:	22 e0       	ldi	r18, 0x02	; 2
     17a:	a6 e0       	ldi	r26, 0x06	; 6
     17c:	b2 e0       	ldi	r27, 0x02	; 2
     17e:	01 c0       	rjmp	.+2      	; 0x182 <.do_clear_bss_start>

00000180 <.do_clear_bss_loop>:
     180:	1d 92       	st	X+, r1

00000182 <.do_clear_bss_start>:
     182:	a2 31       	cpi	r26, 0x12	; 18
     184:	b2 07       	cpc	r27, r18
     186:	e1 f7       	brne	.-8      	; 0x180 <.do_clear_bss_loop>
     188:	0e 94 40 0a 	call	0x1480	; 0x1480 <main>
     18c:	0c 94 2e 0e 	jmp	0x1c5c	; 0x1c5c <_exit>

00000190 <__bad_interrupt>:
     190:	37 cf       	rjmp	.-402    	; 0x0 <__vectors>

00000192 <_ZN8JSMCFSM510SyncMotorsEP15MotorControllerS1_>:
{
  if( mc1->GetM_MSS() == mc1->GetM_STOPPED() && mc2->GetM_MSS() == mc2->GetM_STOPPED() )
    return true;

  return false;
}
     192:	0f 93       	push	r16
     194:	1f 93       	push	r17
     196:	cf 93       	push	r28
     198:	df 93       	push	r29
     19a:	eb 01       	movw	r28, r22
     19c:	8a 01       	movw	r16, r20
     19e:	cb 01       	movw	r24, r22
     1a0:	27 d2       	rcall	.+1102   	; 0x5f0 <_ZN15MotorController10IsMStoppedEv>
     1a2:	89 2b       	or	r24, r25
     1a4:	49 f0       	breq	.+18     	; 0x1b8 <_ZN8JSMCFSM510SyncMotorsEP15MotorControllerS1_+0x26>
     1a6:	c8 01       	movw	r24, r16
     1a8:	23 d2       	rcall	.+1094   	; 0x5f0 <_ZN15MotorController10IsMStoppedEv>
     1aa:	89 2b       	or	r24, r25
     1ac:	29 f4       	brne	.+10     	; 0x1b8 <_ZN8JSMCFSM510SyncMotorsEP15MotorControllerS1_+0x26>
     1ae:	ce 01       	movw	r24, r28
     1b0:	d0 d3       	rcall	.+1952   	; 0x952 <_ZN15MotorController15ResetStopDurTmrEv>
     1b2:	c8 01       	movw	r24, r16
     1b4:	ce d3       	rcall	.+1948   	; 0x952 <_ZN15MotorController15ResetStopDurTmrEv>
     1b6:	0c c0       	rjmp	.+24     	; 0x1d0 <_ZN8JSMCFSM510SyncMotorsEP15MotorControllerS1_+0x3e>
     1b8:	c8 01       	movw	r24, r16
     1ba:	1a d2       	rcall	.+1076   	; 0x5f0 <_ZN15MotorController10IsMStoppedEv>
     1bc:	89 2b       	or	r24, r25
     1be:	41 f0       	breq	.+16     	; 0x1d0 <_ZN8JSMCFSM510SyncMotorsEP15MotorControllerS1_+0x3e>
     1c0:	ce 01       	movw	r24, r28
     1c2:	16 d2       	rcall	.+1068   	; 0x5f0 <_ZN15MotorController10IsMStoppedEv>
     1c4:	89 2b       	or	r24, r25
     1c6:	21 f4       	brne	.+8      	; 0x1d0 <_ZN8JSMCFSM510SyncMotorsEP15MotorControllerS1_+0x3e>
     1c8:	ce 01       	movw	r24, r28
     1ca:	c3 d3       	rcall	.+1926   	; 0x952 <_ZN15MotorController15ResetStopDurTmrEv>
     1cc:	c8 01       	movw	r24, r16
     1ce:	c1 d3       	rcall	.+1922   	; 0x952 <_ZN15MotorController15ResetStopDurTmrEv>
     1d0:	df 91       	pop	r29
     1d2:	cf 91       	pop	r28
     1d4:	1f 91       	pop	r17
     1d6:	0f 91       	pop	r16
     1d8:	08 95       	ret

000001da <_ZN8JSMCFSM59GetMtrDirEP15MotorControllerS1_>:

uint8_t JSMCFSM5::GetMtrDir( class MotorController *mc1, class MotorController *mc2 )
{
     1da:	0f 93       	push	r16
     1dc:	1f 93       	push	r17
     1de:	cf 93       	push	r28
     1e0:	cb 01       	movw	r24, r22
     1e2:	8a 01       	movw	r16, r20
  uint8_t dir;
  dir = mc1->GetMDir() | mc2->GetMDir();
     1e4:	4f d2       	rcall	.+1182   	; 0x684 <_ZN15MotorController7GetMDirEv>
     1e6:	c8 2f       	mov	r28, r24
     1e8:	c8 01       	movw	r24, r16
     1ea:	4c d2       	rcall	.+1176   	; 0x684 <_ZN15MotorController7GetMDirEv>
  return dir;
}
     1ec:	8c 2b       	or	r24, r28
     1ee:	cf 91       	pop	r28
     1f0:	1f 91       	pop	r17
     1f2:	0f 91       	pop	r16
     1f4:	08 95       	ret

000001f6 <_ZN8JSMCFSM514SetMtrRampRateEP15MotorControllerS1_h>:

void JSMCFSM5::SetMtrRampRate( class MotorController *mc1,  class MotorController *mc2, uint8_t rr )
{
     1f6:	0f 93       	push	r16
     1f8:	1f 93       	push	r17
     1fa:	cf 93       	push	r28
     1fc:	df 93       	push	r29
     1fe:	cb 01       	movw	r24, r22
     200:	8a 01       	movw	r16, r20
//    mc1->SetM_ID_DMRR( FR_SRR );
//    mc2->SetM_ID_DMRR( FR_SRR );
//  }
//  else
//  {
    mc1->SetM_ID_DMRR( rr );
     202:	c2 2f       	mov	r28, r18
     204:	d0 e0       	ldi	r29, 0x00	; 0
     206:	be 01       	movw	r22, r28
     208:	df d1       	rcall	.+958    	; 0x5c8 <_ZN15MotorController12SetM_ID_DMRREj>
    mc2->SetM_ID_DMRR( rr );
     20a:	be 01       	movw	r22, r28
     20c:	c8 01       	movw	r24, r16
     20e:	dc d1       	rcall	.+952    	; 0x5c8 <_ZN15MotorController12SetM_ID_DMRREj>
//  }
}
     210:	df 91       	pop	r29
     212:	cf 91       	pop	r28
     214:	1f 91       	pop	r17
     216:	0f 91       	pop	r16
     218:	08 95       	ret

0000021a <_ZN8JSMCFSM514SetMtrRampDownEP15MotorController>:

void JSMCFSM5::SetMtrRampDown( class MotorController *mc )
{
     21a:	cf 93       	push	r28
     21c:	df 93       	push	r29
     21e:	eb 01       	movw	r28, r22
  mc->SetM_ID_DMS( 0 );
     220:	60 e0       	ldi	r22, 0x00	; 0
     222:	ce 01       	movw	r24, r28
     224:	cb d1       	rcall	.+918    	; 0x5bc <_ZN15MotorController11SetM_ID_DMSEh>
  mc->SetM_ID_DMRR( FR_RDR );
     226:	65 e0       	ldi	r22, 0x05	; 5
     228:	70 e0       	ldi	r23, 0x00	; 0
     22a:	ce 01       	movw	r24, r28
     22c:	cd d1       	rcall	.+922    	; 0x5c8 <_ZN15MotorController12SetM_ID_DMRREj>
  mc->SetM_ID_DMD( mc->GetM_DIR_OPEN() );
     22e:	ce 01       	movw	r24, r28
     230:	26 d2       	rcall	.+1100   	; 0x67e <_ZN15MotorController13GetM_DIR_OPENEv>
     232:	68 2f       	mov	r22, r24
     234:	ce 01       	movw	r24, r28
     236:	c5 d1       	rcall	.+906    	; 0x5c2 <_ZN15MotorController11SetM_ID_DMDEh>
}
     238:	df 91       	pop	r29
     23a:	cf 91       	pop	r28
     23c:	08 95       	ret

0000023e <_ZN8JSMCFSM517SetMotorsRampDownEP15MotorControllerS1_>:

void JSMCFSM5::SetMotorsRampDown( class MotorController *mc1, class MotorController *mc2 )
{
     23e:	ef 92       	push	r14
     240:	ff 92       	push	r15
     242:	0f 93       	push	r16
     244:	1f 93       	push	r17
     246:	cf 93       	push	r28
     248:	df 93       	push	r29
     24a:	ec 01       	movw	r28, r24
     24c:	8b 01       	movw	r16, r22
     24e:	7a 01       	movw	r14, r20
  SetMtrRampDown( mc1 );
     250:	e4 df       	rcall	.-56     	; 0x21a <_ZN8JSMCFSM514SetMtrRampDownEP15MotorController>
  SetMtrRampDown( mc2 );
     252:	b7 01       	movw	r22, r14
     254:	ce 01       	movw	r24, r28
     256:	e1 df       	rcall	.-62     	; 0x21a <_ZN8JSMCFSM514SetMtrRampDownEP15MotorController>
  SyncMotors( mc1, mc2 );
     258:	a7 01       	movw	r20, r14
     25a:	b8 01       	movw	r22, r16
     25c:	ce 01       	movw	r24, r28
     25e:	99 df       	rcall	.-206    	; 0x192 <_ZN8JSMCFSM510SyncMotorsEP15MotorControllerS1_>
}
     260:	df 91       	pop	r29
     262:	cf 91       	pop	r28
     264:	1f 91       	pop	r17
     266:	0f 91       	pop	r16
     268:	ff 90       	pop	r15
     26a:	ef 90       	pop	r14
     26c:	08 95       	ret

0000026e <_ZN8JSMCFSM59SetMtrRevEP15MotorControllerS1_P7MCAIDev>:

void JSMCFSM5::SetMtrRev( class MotorController *mc1, class MotorController *mc2, class MCAIDev *js )
{
     26e:	ef 92       	push	r14
     270:	ff 92       	push	r15
     272:	0f 93       	push	r16
     274:	1f 93       	push	r17
     276:	cf 93       	push	r28
     278:	df 93       	push	r29
     27a:	8b 01       	movw	r16, r22
     27c:	ea 01       	movw	r28, r20
     27e:	79 01       	movw	r14, r18
  SetMtrRampRate( mc1, mc2, FR_RUR );
     280:	2f e0       	ldi	r18, 0x0F	; 15
     282:	b9 df       	rcall	.-142    	; 0x1f6 <_ZN8JSMCFSM514SetMtrRampRateEP15MotorControllerS1_h>
  mc1->SetM_ID_DMS( js->GetM1Speed() );
     284:	c7 01       	movw	r24, r14
     286:	8d d3       	rcall	.+1818   	; 0x9a2 <_ZN7MCAIDev10GetM1SpeedEv>
     288:	68 2f       	mov	r22, r24
     28a:	c8 01       	movw	r24, r16
     28c:	97 d1       	rcall	.+814    	; 0x5bc <_ZN15MotorController11SetM_ID_DMSEh>
  mc2->SetM_ID_DMS( js->GetM2Speed() );
     28e:	c7 01       	movw	r24, r14
     290:	9c d3       	rcall	.+1848   	; 0x9ca <_ZN7MCAIDev10GetM2SpeedEv>
     292:	68 2f       	mov	r22, r24
     294:	ce 01       	movw	r24, r28
     296:	92 d1       	rcall	.+804    	; 0x5bc <_ZN15MotorController11SetM_ID_DMSEh>

  mc1->SetM_ID_DMD( mc1->GetM_DIR_REV() );
     298:	c8 01       	movw	r24, r16
     29a:	ee d1       	rcall	.+988    	; 0x678 <_ZN15MotorController12GetM_DIR_REVEv>
     29c:	68 2f       	mov	r22, r24
     29e:	c8 01       	movw	r24, r16
     2a0:	90 d1       	rcall	.+800    	; 0x5c2 <_ZN15MotorController11SetM_ID_DMDEh>
  mc2->SetM_ID_DMD( mc2->GetM_DIR_REV() );
     2a2:	ce 01       	movw	r24, r28
     2a4:	e9 d1       	rcall	.+978    	; 0x678 <_ZN15MotorController12GetM_DIR_REVEv>
     2a6:	68 2f       	mov	r22, r24
     2a8:	ce 01       	movw	r24, r28
     2aa:	8b d1       	rcall	.+790    	; 0x5c2 <_ZN15MotorController11SetM_ID_DMDEh>
}
     2ac:	df 91       	pop	r29
     2ae:	cf 91       	pop	r28
     2b0:	1f 91       	pop	r17
     2b2:	0f 91       	pop	r16
     2b4:	ff 90       	pop	r15
     2b6:	ef 90       	pop	r14
     2b8:	08 95       	ret

000002ba <_ZN8JSMCFSM515SetMtrFPLftTurnEP15MotorControllerS1_P7MCAIDev>:

void JSMCFSM5::SetMtrFPLftTurn( class MotorController *mc1, class MotorController *mc2, class MCAIDev *js )
{
     2ba:	ef 92       	push	r14
     2bc:	ff 92       	push	r15
     2be:	0f 93       	push	r16
     2c0:	1f 93       	push	r17
     2c2:	cf 93       	push	r28
     2c4:	df 93       	push	r29
     2c6:	8b 01       	movw	r16, r22
     2c8:	ea 01       	movw	r28, r20
     2ca:	79 01       	movw	r14, r18
  SetMtrRampRate( mc1, mc2, FP_RTR );
     2cc:	24 e1       	ldi	r18, 0x14	; 20
     2ce:	93 df       	rcall	.-218    	; 0x1f6 <_ZN8JSMCFSM514SetMtrRampRateEP15MotorControllerS1_h>
  mc1->SetM_ID_DMS( js->GetM1Speed() );
     2d0:	c7 01       	movw	r24, r14
     2d2:	67 d3       	rcall	.+1742   	; 0x9a2 <_ZN7MCAIDev10GetM1SpeedEv>
     2d4:	68 2f       	mov	r22, r24
     2d6:	c8 01       	movw	r24, r16
     2d8:	71 d1       	rcall	.+738    	; 0x5bc <_ZN15MotorController11SetM_ID_DMSEh>
  mc2->SetM_ID_DMS( js->GetM2Speed() );
     2da:	c7 01       	movw	r24, r14
     2dc:	76 d3       	rcall	.+1772   	; 0x9ca <_ZN7MCAIDev10GetM2SpeedEv>
     2de:	68 2f       	mov	r22, r24
     2e0:	ce 01       	movw	r24, r28
     2e2:	6c d1       	rcall	.+728    	; 0x5bc <_ZN15MotorController11SetM_ID_DMSEh>

  mc1->SetM_ID_DMD( mc1->GetM_DIR_REV() );
     2e4:	c8 01       	movw	r24, r16
     2e6:	c8 d1       	rcall	.+912    	; 0x678 <_ZN15MotorController12GetM_DIR_REVEv>
     2e8:	68 2f       	mov	r22, r24
     2ea:	c8 01       	movw	r24, r16
     2ec:	6a d1       	rcall	.+724    	; 0x5c2 <_ZN15MotorController11SetM_ID_DMDEh>
  mc2->SetM_ID_DMD( mc2->GetM_DIR_FWD() );
     2ee:	ce 01       	movw	r24, r28
     2f0:	c0 d1       	rcall	.+896    	; 0x672 <_ZN15MotorController12GetM_DIR_FWDEv>
     2f2:	68 2f       	mov	r22, r24
     2f4:	ce 01       	movw	r24, r28
     2f6:	65 d1       	rcall	.+714    	; 0x5c2 <_ZN15MotorController11SetM_ID_DMDEh>
}
     2f8:	df 91       	pop	r29
     2fa:	cf 91       	pop	r28
     2fc:	1f 91       	pop	r17
     2fe:	0f 91       	pop	r16
     300:	ff 90       	pop	r15
     302:	ef 90       	pop	r14
     304:	08 95       	ret

00000306 <_ZN8JSMCFSM515SetMtrFPRgtTurnEP15MotorControllerS1_P7MCAIDev>:

void JSMCFSM5::SetMtrFPRgtTurn( class MotorController *mc1, class MotorController *mc2, class MCAIDev *js )
{
     306:	ef 92       	push	r14
     308:	ff 92       	push	r15
     30a:	0f 93       	push	r16
     30c:	1f 93       	push	r17
     30e:	cf 93       	push	r28
     310:	df 93       	push	r29
     312:	8b 01       	movw	r16, r22
     314:	ea 01       	movw	r28, r20
     316:	79 01       	movw	r14, r18
  SetMtrRampRate( mc1, mc2, FP_RTR );
     318:	24 e1       	ldi	r18, 0x14	; 20
     31a:	6d df       	rcall	.-294    	; 0x1f6 <_ZN8JSMCFSM514SetMtrRampRateEP15MotorControllerS1_h>
  mc1->SetM_ID_DMS( js->GetM1Speed() );
     31c:	c7 01       	movw	r24, r14
     31e:	41 d3       	rcall	.+1666   	; 0x9a2 <_ZN7MCAIDev10GetM1SpeedEv>
     320:	68 2f       	mov	r22, r24
     322:	c8 01       	movw	r24, r16
     324:	4b d1       	rcall	.+662    	; 0x5bc <_ZN15MotorController11SetM_ID_DMSEh>
  mc2->SetM_ID_DMS( js->GetM2Speed() );
     326:	c7 01       	movw	r24, r14
     328:	50 d3       	rcall	.+1696   	; 0x9ca <_ZN7MCAIDev10GetM2SpeedEv>
     32a:	68 2f       	mov	r22, r24
     32c:	ce 01       	movw	r24, r28
     32e:	46 d1       	rcall	.+652    	; 0x5bc <_ZN15MotorController11SetM_ID_DMSEh>

  mc1->SetM_ID_DMD( mc1->GetM_DIR_FWD() );
     330:	c8 01       	movw	r24, r16
     332:	9f d1       	rcall	.+830    	; 0x672 <_ZN15MotorController12GetM_DIR_FWDEv>
     334:	68 2f       	mov	r22, r24
     336:	c8 01       	movw	r24, r16
     338:	44 d1       	rcall	.+648    	; 0x5c2 <_ZN15MotorController11SetM_ID_DMDEh>
  mc2->SetM_ID_DMD( mc2->GetM_DIR_REV() );
     33a:	ce 01       	movw	r24, r28
     33c:	9d d1       	rcall	.+826    	; 0x678 <_ZN15MotorController12GetM_DIR_REVEv>
     33e:	68 2f       	mov	r22, r24
     340:	ce 01       	movw	r24, r28
     342:	3f d1       	rcall	.+638    	; 0x5c2 <_ZN15MotorController11SetM_ID_DMDEh>
}
     344:	df 91       	pop	r29
     346:	cf 91       	pop	r28
     348:	1f 91       	pop	r17
     34a:	0f 91       	pop	r16
     34c:	ff 90       	pop	r15
     34e:	ef 90       	pop	r14
     350:	08 95       	ret

00000352 <_ZN8JSMCFSM59SetMtrFwdEP15MotorControllerS1_P7MCAIDev>:

void JSMCFSM5::SetMtrFwd( class MotorController *mc1, class MotorController *mc2, class MCAIDev *js )
{
     352:	ef 92       	push	r14
     354:	ff 92       	push	r15
     356:	0f 93       	push	r16
     358:	1f 93       	push	r17
     35a:	cf 93       	push	r28
     35c:	df 93       	push	r29
     35e:	8b 01       	movw	r16, r22
     360:	ea 01       	movw	r28, r20
     362:	79 01       	movw	r14, r18
  SetMtrRampRate( mc1, mc2, FR_RUR );
     364:	2f e0       	ldi	r18, 0x0F	; 15
     366:	47 df       	rcall	.-370    	; 0x1f6 <_ZN8JSMCFSM514SetMtrRampRateEP15MotorControllerS1_h>
  mc1->SetM_ID_DMS( js->GetM1Speed() );
     368:	c7 01       	movw	r24, r14
     36a:	1b d3       	rcall	.+1590   	; 0x9a2 <_ZN7MCAIDev10GetM1SpeedEv>
     36c:	68 2f       	mov	r22, r24
     36e:	c8 01       	movw	r24, r16
     370:	25 d1       	rcall	.+586    	; 0x5bc <_ZN15MotorController11SetM_ID_DMSEh>
  mc2->SetM_ID_DMS( js->GetM2Speed() );
     372:	c7 01       	movw	r24, r14
     374:	2a d3       	rcall	.+1620   	; 0x9ca <_ZN7MCAIDev10GetM2SpeedEv>
     376:	68 2f       	mov	r22, r24
     378:	ce 01       	movw	r24, r28
     37a:	20 d1       	rcall	.+576    	; 0x5bc <_ZN15MotorController11SetM_ID_DMSEh>

  mc1->SetM_ID_DMD( mc1->GetM_DIR_FWD() );
     37c:	c8 01       	movw	r24, r16
     37e:	79 d1       	rcall	.+754    	; 0x672 <_ZN15MotorController12GetM_DIR_FWDEv>
     380:	68 2f       	mov	r22, r24
     382:	c8 01       	movw	r24, r16
     384:	1e d1       	rcall	.+572    	; 0x5c2 <_ZN15MotorController11SetM_ID_DMDEh>
  mc2->SetM_ID_DMD( mc2->GetM_DIR_FWD() );
     386:	ce 01       	movw	r24, r28
     388:	74 d1       	rcall	.+744    	; 0x672 <_ZN15MotorController12GetM_DIR_FWDEv>
     38a:	68 2f       	mov	r22, r24
     38c:	ce 01       	movw	r24, r28
     38e:	19 d1       	rcall	.+562    	; 0x5c2 <_ZN15MotorController11SetM_ID_DMDEh>
}
     390:	df 91       	pop	r29
     392:	cf 91       	pop	r28
     394:	1f 91       	pop	r17
     396:	0f 91       	pop	r16
     398:	ff 90       	pop	r15
     39a:	ef 90       	pop	r14
     39c:	08 95       	ret

0000039e <_ZN8JSMCFSM510MachState0EP15MotorControllerS1_P7MCAIDev>:


//================= Joystick Finite State Machine ==================

void JSMCFSM5::MachState0( class MotorController *mc1, class MotorController *mc2, class MCAIDev *js )  // JS throw dead zone
{
     39e:	ef 92       	push	r14
     3a0:	ff 92       	push	r15
     3a2:	0f 93       	push	r16
     3a4:	1f 93       	push	r17
     3a6:	cf 93       	push	r28
     3a8:	df 93       	push	r29
     3aa:	ec 01       	movw	r28, r24
     3ac:	8b 01       	movw	r16, r22
     3ae:	7a 01       	movw	r14, r20
  switch( GetMtrDir( mc1, mc2 ) )
     3b0:	14 df       	rcall	.-472    	; 0x1da <_ZN8JSMCFSM59GetMtrDirEP15MotorControllerS1_>
     3b2:	87 30       	cpi	r24, 0x07	; 7
     3b4:	28 f4       	brcc	.+10     	; 0x3c0 <_ZN8JSMCFSM510MachState0EP15MotorControllerS1_P7MCAIDev+0x22>
     3b6:	84 30       	cpi	r24, 0x04	; 4
     3b8:	38 f4       	brcc	.+14     	; 0x3c8 <_ZN8JSMCFSM510MachState0EP15MotorControllerS1_P7MCAIDev+0x2a>
     3ba:	83 30       	cpi	r24, 0x03	; 3
     3bc:	48 f4       	brcc	.+18     	; 0x3d0 <_ZN8JSMCFSM510MachState0EP15MotorControllerS1_P7MCAIDev+0x32>
     3be:	04 c0       	rjmp	.+8      	; 0x3c8 <_ZN8JSMCFSM510MachState0EP15MotorControllerS1_P7MCAIDev+0x2a>
     3c0:	98 ef       	ldi	r25, 0xF8	; 248
     3c2:	98 0f       	add	r25, r24
     3c4:	93 30       	cpi	r25, 0x03	; 3
     3c6:	20 f4       	brcc	.+8      	; 0x3d0 <_ZN8JSMCFSM510MachState0EP15MotorControllerS1_P7MCAIDev+0x32>
    case MTR_DIR_OPEN  :
    case MTR1_DIR_REV :
    case MTR2_DIR_REV :
    case MTR1_DIR_FWD :
    case MTR2_DIR_FWD :
      SetMotorsRampDown( mc1, mc2 );
     3c8:	a7 01       	movw	r20, r14
     3ca:	b8 01       	movw	r22, r16
     3cc:	ce 01       	movw	r24, r28
     3ce:	37 df       	rcall	.-402    	; 0x23e <_ZN8JSMCFSM517SetMotorsRampDownEP15MotorControllerS1_>
      break;

    default :
      SystemError();
  }
}
     3d0:	df 91       	pop	r29
     3d2:	cf 91       	pop	r28
     3d4:	1f 91       	pop	r17
     3d6:	0f 91       	pop	r16
     3d8:	ff 90       	pop	r15
     3da:	ef 90       	pop	r14
     3dc:	08 95       	ret

000003de <_ZN8JSMCFSM510MachState1EP15MotorControllerS1_P7MCAIDev>:

void JSMCFSM5::MachState1( class MotorController *mc1, class MotorController *mc2, class MCAIDev *js )  // JS throw right
{
     3de:	cf 92       	push	r12
     3e0:	df 92       	push	r13
     3e2:	ef 92       	push	r14
     3e4:	ff 92       	push	r15
     3e6:	0f 93       	push	r16
     3e8:	1f 93       	push	r17
     3ea:	cf 93       	push	r28
     3ec:	df 93       	push	r29
     3ee:	ec 01       	movw	r28, r24
     3f0:	8b 01       	movw	r16, r22
     3f2:	7a 01       	movw	r14, r20
     3f4:	69 01       	movw	r12, r18
  switch( GetMtrDir( mc1, mc2 ) )
     3f6:	f1 de       	rcall	.-542    	; 0x1da <_ZN8JSMCFSM59GetMtrDirEP15MotorControllerS1_>
     3f8:	90 e0       	ldi	r25, 0x00	; 0
     3fa:	8b 30       	cpi	r24, 0x0B	; 11
     3fc:	91 05       	cpc	r25, r1
     3fe:	88 f4       	brcc	.+34     	; 0x422 <_ZN8JSMCFSM510MachState1EP15MotorControllerS1_P7MCAIDev+0x44>
     400:	fc 01       	movw	r30, r24
     402:	88 27       	eor	r24, r24
     404:	ee 58       	subi	r30, 0x8E	; 142
     406:	ff 4f       	sbci	r31, 0xFF	; 255
     408:	8f 4f       	sbci	r24, 0xFF	; 255
     40a:	0c 94 ed 0c 	jmp	0x19da	; 0x19da <__tablejump2__>
  {
    case MTR_DIR_RIGHT :
    case MTR_DIR_OPEN  :
      SetMtrFPRgtTurn( mc1, mc2, js );
     40e:	96 01       	movw	r18, r12
     410:	a7 01       	movw	r20, r14
     412:	b8 01       	movw	r22, r16
     414:	ce 01       	movw	r24, r28
     416:	77 df       	rcall	.-274    	; 0x306 <_ZN8JSMCFSM515SetMtrFPRgtTurnEP15MotorControllerS1_P7MCAIDev>
      break;
     418:	04 c0       	rjmp	.+8      	; 0x422 <_ZN8JSMCFSM510MachState1EP15MotorControllerS1_P7MCAIDev+0x44>
    case MTR_DIR_LEFT :
    case MTR1_DIR_REV :
    case MTR2_DIR_REV :
    case MTR1_DIR_FWD :
    case MTR2_DIR_FWD :
      SetMotorsRampDown( mc1, mc2 );
     41a:	a7 01       	movw	r20, r14
     41c:	b8 01       	movw	r22, r16
     41e:	ce 01       	movw	r24, r28
     420:	0e df       	rcall	.-484    	; 0x23e <_ZN8JSMCFSM517SetMotorsRampDownEP15MotorControllerS1_>
      break;

    default :
      SystemError();
  }
}
     422:	df 91       	pop	r29
     424:	cf 91       	pop	r28
     426:	1f 91       	pop	r17
     428:	0f 91       	pop	r16
     42a:	ff 90       	pop	r15
     42c:	ef 90       	pop	r14
     42e:	df 90       	pop	r13
     430:	cf 90       	pop	r12
     432:	08 95       	ret

00000434 <_ZN8JSMCFSM510MachState2EP15MotorControllerS1_P7MCAIDev>:

void JSMCFSM5::MachState2( class MotorController *mc1, class MotorController *mc2, class MCAIDev *js )  // JS throw left
{
     434:	cf 92       	push	r12
     436:	df 92       	push	r13
     438:	ef 92       	push	r14
     43a:	ff 92       	push	r15
     43c:	0f 93       	push	r16
     43e:	1f 93       	push	r17
     440:	cf 93       	push	r28
     442:	df 93       	push	r29
     444:	ec 01       	movw	r28, r24
     446:	8b 01       	movw	r16, r22
     448:	7a 01       	movw	r14, r20
     44a:	69 01       	movw	r12, r18
  switch( GetMtrDir( mc1, mc2 ) )
     44c:	c6 de       	rcall	.-628    	; 0x1da <_ZN8JSMCFSM59GetMtrDirEP15MotorControllerS1_>
     44e:	90 e0       	ldi	r25, 0x00	; 0
     450:	8b 30       	cpi	r24, 0x0B	; 11
     452:	91 05       	cpc	r25, r1
     454:	88 f4       	brcc	.+34     	; 0x478 <_ZN8JSMCFSM510MachState2EP15MotorControllerS1_P7MCAIDev+0x44>
     456:	fc 01       	movw	r30, r24
     458:	88 27       	eor	r24, r24
     45a:	e3 58       	subi	r30, 0x83	; 131
     45c:	ff 4f       	sbci	r31, 0xFF	; 255
     45e:	8f 4f       	sbci	r24, 0xFF	; 255
     460:	0c 94 ed 0c 	jmp	0x19da	; 0x19da <__tablejump2__>
  {
    case MTR_DIR_LEFT  :
    case MTR_DIR_OPEN  :
      SetMtrFPLftTurn( mc1, mc2, js );
     464:	96 01       	movw	r18, r12
     466:	a7 01       	movw	r20, r14
     468:	b8 01       	movw	r22, r16
     46a:	ce 01       	movw	r24, r28
     46c:	26 df       	rcall	.-436    	; 0x2ba <_ZN8JSMCFSM515SetMtrFPLftTurnEP15MotorControllerS1_P7MCAIDev>
      break;
     46e:	04 c0       	rjmp	.+8      	; 0x478 <_ZN8JSMCFSM510MachState2EP15MotorControllerS1_P7MCAIDev+0x44>
    case MTR_DIR_RIGHT :
    case MTR1_DIR_REV :
    case MTR2_DIR_REV :
    case MTR1_DIR_FWD :
    case MTR2_DIR_FWD :
      SetMotorsRampDown( mc1, mc2 );
     470:	a7 01       	movw	r20, r14
     472:	b8 01       	movw	r22, r16
     474:	ce 01       	movw	r24, r28
     476:	e3 de       	rcall	.-570    	; 0x23e <_ZN8JSMCFSM517SetMotorsRampDownEP15MotorControllerS1_>
      break;

    default :
      SystemError();
  }
}
     478:	df 91       	pop	r29
     47a:	cf 91       	pop	r28
     47c:	1f 91       	pop	r17
     47e:	0f 91       	pop	r16
     480:	ff 90       	pop	r15
     482:	ef 90       	pop	r14
     484:	df 90       	pop	r13
     486:	cf 90       	pop	r12
     488:	08 95       	ret

0000048a <_ZN8JSMCFSM510MachState3EP15MotorControllerS1_P7MCAIDev>:

void JSMCFSM5::MachState3( class MotorController *mc1, class MotorController *mc2, class MCAIDev *js )  // JS throw backwards
{
     48a:	cf 92       	push	r12
     48c:	df 92       	push	r13
     48e:	ef 92       	push	r14
     490:	ff 92       	push	r15
     492:	0f 93       	push	r16
     494:	1f 93       	push	r17
     496:	cf 93       	push	r28
     498:	df 93       	push	r29
     49a:	ec 01       	movw	r28, r24
     49c:	8b 01       	movw	r16, r22
     49e:	7a 01       	movw	r14, r20
     4a0:	69 01       	movw	r12, r18
  switch( GetMtrDir( mc1, mc2 ) )
     4a2:	9b de       	rcall	.-714    	; 0x1da <_ZN8JSMCFSM59GetMtrDirEP15MotorControllerS1_>
     4a4:	90 e0       	ldi	r25, 0x00	; 0
     4a6:	8b 30       	cpi	r24, 0x0B	; 11
     4a8:	91 05       	cpc	r25, r1
     4aa:	88 f4       	brcc	.+34     	; 0x4ce <_ZN8JSMCFSM510MachState3EP15MotorControllerS1_P7MCAIDev+0x44>
     4ac:	fc 01       	movw	r30, r24
     4ae:	88 27       	eor	r24, r24
     4b0:	e8 57       	subi	r30, 0x78	; 120
     4b2:	ff 4f       	sbci	r31, 0xFF	; 255
     4b4:	8f 4f       	sbci	r24, 0xFF	; 255
     4b6:	0c 94 ed 0c 	jmp	0x19da	; 0x19da <__tablejump2__>
  {
    case MTR_DIR_REV  :
    case MTR_DIR_OPEN  :
      SetMtrRev( mc1, mc2, js );
     4ba:	96 01       	movw	r18, r12
     4bc:	a7 01       	movw	r20, r14
     4be:	b8 01       	movw	r22, r16
     4c0:	ce 01       	movw	r24, r28
     4c2:	d5 de       	rcall	.-598    	; 0x26e <_ZN8JSMCFSM59SetMtrRevEP15MotorControllerS1_P7MCAIDev>
      break;
     4c4:	04 c0       	rjmp	.+8      	; 0x4ce <_ZN8JSMCFSM510MachState3EP15MotorControllerS1_P7MCAIDev+0x44>
    case MTR_DIR_RIGHT :
    case MTR1_DIR_REV :
    case MTR2_DIR_REV :
    case MTR1_DIR_FWD :
    case MTR2_DIR_FWD :
      SetMotorsRampDown( mc1, mc2 );
     4c6:	a7 01       	movw	r20, r14
     4c8:	b8 01       	movw	r22, r16
     4ca:	ce 01       	movw	r24, r28
     4cc:	b8 de       	rcall	.-656    	; 0x23e <_ZN8JSMCFSM517SetMotorsRampDownEP15MotorControllerS1_>
      break;

    default :
      SystemError();
  }
}
     4ce:	df 91       	pop	r29
     4d0:	cf 91       	pop	r28
     4d2:	1f 91       	pop	r17
     4d4:	0f 91       	pop	r16
     4d6:	ff 90       	pop	r15
     4d8:	ef 90       	pop	r14
     4da:	df 90       	pop	r13
     4dc:	cf 90       	pop	r12
     4de:	08 95       	ret

000004e0 <_ZN8JSMCFSM510MachState4EP15MotorControllerS1_P7MCAIDev>:


void JSMCFSM5::MachState4( class MotorController *mc1, class MotorController *mc2, class MCAIDev *js )  // JS throw forewards
{
     4e0:	cf 92       	push	r12
     4e2:	df 92       	push	r13
     4e4:	ef 92       	push	r14
     4e6:	ff 92       	push	r15
     4e8:	0f 93       	push	r16
     4ea:	1f 93       	push	r17
     4ec:	cf 93       	push	r28
     4ee:	df 93       	push	r29
     4f0:	ec 01       	movw	r28, r24
     4f2:	8b 01       	movw	r16, r22
     4f4:	7a 01       	movw	r14, r20
     4f6:	69 01       	movw	r12, r18
  switch( GetMtrDir( mc1, mc2 ) )
     4f8:	70 de       	rcall	.-800    	; 0x1da <_ZN8JSMCFSM59GetMtrDirEP15MotorControllerS1_>
     4fa:	90 e0       	ldi	r25, 0x00	; 0
     4fc:	8b 30       	cpi	r24, 0x0B	; 11
     4fe:	91 05       	cpc	r25, r1
     500:	88 f4       	brcc	.+34     	; 0x524 <_ZN8JSMCFSM510MachState4EP15MotorControllerS1_P7MCAIDev+0x44>
     502:	fc 01       	movw	r30, r24
     504:	88 27       	eor	r24, r24
     506:	ed 56       	subi	r30, 0x6D	; 109
     508:	ff 4f       	sbci	r31, 0xFF	; 255
     50a:	8f 4f       	sbci	r24, 0xFF	; 255
     50c:	0c 94 ed 0c 	jmp	0x19da	; 0x19da <__tablejump2__>
  {
    case MTR_DIR_FWD  :
    case MTR_DIR_OPEN  :
      SetMtrFwd( mc1, mc2, js );
     510:	96 01       	movw	r18, r12
     512:	a7 01       	movw	r20, r14
     514:	b8 01       	movw	r22, r16
     516:	ce 01       	movw	r24, r28
     518:	1c df       	rcall	.-456    	; 0x352 <_ZN8JSMCFSM59SetMtrFwdEP15MotorControllerS1_P7MCAIDev>
      break;
     51a:	04 c0       	rjmp	.+8      	; 0x524 <_ZN8JSMCFSM510MachState4EP15MotorControllerS1_P7MCAIDev+0x44>
    case MTR_DIR_LEFT  :
    case MTR1_DIR_REV :
    case MTR2_DIR_REV :
    case MTR1_DIR_FWD :
    case MTR2_DIR_FWD :
      SetMotorsRampDown( mc1, mc2 );
     51c:	a7 01       	movw	r20, r14
     51e:	b8 01       	movw	r22, r16
     520:	ce 01       	movw	r24, r28
     522:	8d de       	rcall	.-742    	; 0x23e <_ZN8JSMCFSM517SetMotorsRampDownEP15MotorControllerS1_>
      break;

    default :
      SystemError();
  }
}
     524:	df 91       	pop	r29
     526:	cf 91       	pop	r28
     528:	1f 91       	pop	r17
     52a:	0f 91       	pop	r16
     52c:	ff 90       	pop	r15
     52e:	ef 90       	pop	r14
     530:	df 90       	pop	r13
     532:	cf 90       	pop	r12
     534:	08 95       	ret

00000536 <_ZN8JSMCFSM59FSM5StateEP15MotorControllerS1_P7MCAIDev>:


void JSMCFSM5::FSM5State( class MotorController *mc1, class MotorController *mc2, class MCAIDev *js )
{
     536:	cf 92       	push	r12
     538:	df 92       	push	r13
     53a:	ef 92       	push	r14
     53c:	ff 92       	push	r15
     53e:	0f 93       	push	r16
     540:	1f 93       	push	r17
     542:	cf 93       	push	r28
     544:	df 93       	push	r29
     546:	8c 01       	movw	r16, r24
     548:	7b 01       	movw	r14, r22
     54a:	6a 01       	movw	r12, r20
     54c:	e9 01       	movw	r28, r18
  switch( js->GetMDir() )
     54e:	c9 01       	movw	r24, r18
     550:	50 d2       	rcall	.+1184   	; 0x9f2 <_ZN7MCAIDev7GetMDirEv>
     552:	82 30       	cpi	r24, 0x02	; 2
     554:	b9 f0       	breq	.+46     	; 0x584 <_ZN8JSMCFSM59FSM5StateEP15MotorControllerS1_P7MCAIDev+0x4e>
     556:	28 f4       	brcc	.+10     	; 0x562 <_ZN8JSMCFSM59FSM5StateEP15MotorControllerS1_P7MCAIDev+0x2c>
     558:	88 23       	and	r24, r24
     55a:	41 f0       	breq	.+16     	; 0x56c <_ZN8JSMCFSM59FSM5StateEP15MotorControllerS1_P7MCAIDev+0x36>
     55c:	81 30       	cpi	r24, 0x01	; 1
     55e:	61 f0       	breq	.+24     	; 0x578 <_ZN8JSMCFSM59FSM5StateEP15MotorControllerS1_P7MCAIDev+0x42>
     560:	22 c0       	rjmp	.+68     	; 0x5a6 <_ZN8JSMCFSM59FSM5StateEP15MotorControllerS1_P7MCAIDev+0x70>
     562:	83 30       	cpi	r24, 0x03	; 3
     564:	a9 f0       	breq	.+42     	; 0x590 <_ZN8JSMCFSM59FSM5StateEP15MotorControllerS1_P7MCAIDev+0x5a>
     566:	84 30       	cpi	r24, 0x04	; 4
     568:	c9 f0       	breq	.+50     	; 0x59c <_ZN8JSMCFSM59FSM5StateEP15MotorControllerS1_P7MCAIDev+0x66>
     56a:	1d c0       	rjmp	.+58     	; 0x5a6 <_ZN8JSMCFSM59FSM5StateEP15MotorControllerS1_P7MCAIDev+0x70>
  {
      // JS throw dead zone
    case DZ :      // Dead zone
      MachState0( mc1, mc2, js );
     56c:	9e 01       	movw	r18, r28
     56e:	a6 01       	movw	r20, r12
     570:	b7 01       	movw	r22, r14
     572:	c8 01       	movw	r24, r16
     574:	14 df       	rcall	.-472    	; 0x39e <_ZN8JSMCFSM510MachState0EP15MotorControllerS1_P7MCAIDev>
      break;
     576:	17 c0       	rjmp	.+46     	; 0x5a6 <_ZN8JSMCFSM59FSM5StateEP15MotorControllerS1_P7MCAIDev+0x70>

      // JS throw right
    case FPRT :    // Fixed position right turn
      MachState1( mc1, mc2, js );
     578:	9e 01       	movw	r18, r28
     57a:	a6 01       	movw	r20, r12
     57c:	b7 01       	movw	r22, r14
     57e:	c8 01       	movw	r24, r16
     580:	2e df       	rcall	.-420    	; 0x3de <_ZN8JSMCFSM510MachState1EP15MotorControllerS1_P7MCAIDev>
      break;
     582:	11 c0       	rjmp	.+34     	; 0x5a6 <_ZN8JSMCFSM59FSM5StateEP15MotorControllerS1_P7MCAIDev+0x70>

      // JS throw left
    case FPLT :    // Fixed position left turn
      MachState2( mc1, mc2, js );
     584:	9e 01       	movw	r18, r28
     586:	a6 01       	movw	r20, r12
     588:	b7 01       	movw	r22, r14
     58a:	c8 01       	movw	r24, r16
     58c:	53 df       	rcall	.-346    	; 0x434 <_ZN8JSMCFSM510MachState2EP15MotorControllerS1_P7MCAIDev>
      break;
     58e:	0b c0       	rjmp	.+22     	; 0x5a6 <_ZN8JSMCFSM59FSM5StateEP15MotorControllerS1_P7MCAIDev+0x70>

      // JS throw backwards
    case REV :
      MachState3( mc1, mc2, js );
     590:	9e 01       	movw	r18, r28
     592:	a6 01       	movw	r20, r12
     594:	b7 01       	movw	r22, r14
     596:	c8 01       	movw	r24, r16
     598:	78 df       	rcall	.-272    	; 0x48a <_ZN8JSMCFSM510MachState3EP15MotorControllerS1_P7MCAIDev>
      break;
     59a:	05 c0       	rjmp	.+10     	; 0x5a6 <_ZN8JSMCFSM59FSM5StateEP15MotorControllerS1_P7MCAIDev+0x70>

      // JS throw forewards
    case FWD :
      MachState4( mc1, mc2, js );
     59c:	9e 01       	movw	r18, r28
     59e:	a6 01       	movw	r20, r12
     5a0:	b7 01       	movw	r22, r14
     5a2:	c8 01       	movw	r24, r16
     5a4:	9d df       	rcall	.-198    	; 0x4e0 <_ZN8JSMCFSM510MachState4EP15MotorControllerS1_P7MCAIDev>
      break;

    default:
      SystemError();
  }
}
     5a6:	df 91       	pop	r29
     5a8:	cf 91       	pop	r28
     5aa:	1f 91       	pop	r17
     5ac:	0f 91       	pop	r16
     5ae:	ff 90       	pop	r15
     5b0:	ef 90       	pop	r14
     5b2:	df 90       	pop	r13
     5b4:	cf 90       	pop	r12
     5b6:	08 95       	ret

000005b8 <_ZN8JSMCFSM513ExecFSM5StateEP15MotorControllerS1_P7MCAIDev>:


void JSMCFSM5::ExecFSM5State( class MotorController *mc1, class MotorController *mc2, class MCAIDev *js )
{
  FSM5State( mc1, mc2, js );
     5b8:	be cf       	rjmp	.-132    	; 0x536 <_ZN8JSMCFSM59FSM5StateEP15MotorControllerS1_P7MCAIDev>
     5ba:	08 95       	ret

000005bc <_ZN15MotorController11SetM_ID_DMSEh>:
    StartTimer( M_CLOS_TMR, M_CLOS_DUR );
}

void MotorController::ResetCloseDurTmr() //Reset the close timer. 
{
  StartTimer( M_CLOS_TMR, M_CLOS_DUR );
     5bc:	fc 01       	movw	r30, r24
     5be:	64 8f       	std	Z+28, r22	; 0x1c
     5c0:	08 95       	ret

000005c2 <_ZN15MotorController11SetM_ID_DMDEh>:
     5c2:	fc 01       	movw	r30, r24
     5c4:	65 8f       	std	Z+29, r22	; 0x1d
     5c6:	08 95       	ret

000005c8 <_ZN15MotorController12SetM_ID_DMRREj>:
     5c8:	fc 01       	movw	r30, r24
     5ca:	77 8f       	std	Z+31, r23	; 0x1f
     5cc:	66 8f       	std	Z+30, r22	; 0x1e
     5ce:	08 95       	ret

000005d0 <_ZN15MotorController8IncM_AMSEv>:
     5d0:	fc 01       	movw	r30, r24
     5d2:	90 a1       	ldd	r25, Z+32	; 0x20
     5d4:	80 89       	ldd	r24, Z+16	; 0x10
     5d6:	98 17       	cp	r25, r24
     5d8:	11 f0       	breq	.+4      	; 0x5de <_ZN15MotorController8IncM_AMSEv+0xe>
     5da:	9f 5f       	subi	r25, 0xFF	; 255
     5dc:	90 a3       	std	Z+32, r25	; 0x20
     5de:	08 95       	ret

000005e0 <_ZN15MotorController8DecM_AMSEv>:
     5e0:	fc 01       	movw	r30, r24
     5e2:	90 a1       	ldd	r25, Z+32	; 0x20
     5e4:	81 89       	ldd	r24, Z+17	; 0x11
     5e6:	89 17       	cp	r24, r25
     5e8:	11 f0       	breq	.+4      	; 0x5ee <_ZN15MotorController8DecM_AMSEv+0xe>
     5ea:	91 50       	subi	r25, 0x01	; 1
     5ec:	90 a3       	std	Z+32, r25	; 0x20
     5ee:	08 95       	ret

000005f0 <_ZN15MotorController10IsMStoppedEv>:
     5f0:	cf 93       	push	r28
     5f2:	df 93       	push	r29
     5f4:	ec 01       	movw	r28, r24
     5f6:	8e 81       	ldd	r24, Y+6	; 0x06
     5f8:	9f 81       	ldd	r25, Y+7	; 0x07
     5fa:	53 d3       	rcall	.+1702   	; 0xca2 <_ZN6PWMPFC12GetDutyCycleEv>
     5fc:	29 89       	ldd	r18, Y+17	; 0x11
     5fe:	30 e0       	ldi	r19, 0x00	; 0
     600:	41 e0       	ldi	r20, 0x01	; 1
     602:	50 e0       	ldi	r21, 0x00	; 0
     604:	82 17       	cp	r24, r18
     606:	93 07       	cpc	r25, r19
     608:	11 f0       	breq	.+4      	; 0x60e <_ZN15MotorController10IsMStoppedEv+0x1e>
     60a:	40 e0       	ldi	r20, 0x00	; 0
     60c:	50 e0       	ldi	r21, 0x00	; 0
     60e:	ca 01       	movw	r24, r20
     610:	df 91       	pop	r29
     612:	cf 91       	pop	r28
     614:	08 95       	ret

00000616 <_ZN15MotorController9SetMtrPWMEv>:
     616:	fc 01       	movw	r30, r24
     618:	60 a1       	ldd	r22, Z+32	; 0x20
     61a:	70 e0       	ldi	r23, 0x00	; 0
     61c:	86 81       	ldd	r24, Z+6	; 0x06
     61e:	97 81       	ldd	r25, Z+7	; 0x07
     620:	5b c3       	rjmp	.+1718   	; 0xcd8 <_ZN6PWMPFC12SetDutyCycleEj>
     622:	08 95       	ret

00000624 <_ZN15MotorController8SetM_MRREj>:
     624:	fc 01       	movw	r30, r24
     626:	75 a3       	std	Z+37, r23	; 0x25
     628:	64 a3       	std	Z+36, r22	; 0x24
     62a:	08 95       	ret

0000062c <_ZN15MotorController9RampMotorEv>:
     62c:	cf 93       	push	r28
     62e:	df 93       	push	r29
     630:	fc 01       	movw	r30, r24
     632:	30 a1       	ldd	r19, Z+32	; 0x20
     634:	21 a1       	ldd	r18, Z+33	; 0x21
     636:	32 17       	cp	r19, r18
     638:	c9 f0       	breq	.+50     	; 0x66c <_ZN15MotorController9RampMotorEv+0x40>
     63a:	ec 01       	movw	r28, r24
     63c:	60 e0       	ldi	r22, 0x00	; 0
     63e:	70 e0       	ldi	r23, 0x00	; 0
     640:	b4 d2       	rcall	.+1384   	; 0xbaa <_ZN9ObjTimers9TimerDoneEj>
     642:	01 97       	sbiw	r24, 0x01	; 1
     644:	99 f4       	brne	.+38     	; 0x66c <_ZN15MotorController9RampMotorEv+0x40>
     646:	98 a1       	ldd	r25, Y+32	; 0x20
     648:	89 a1       	ldd	r24, Y+33	; 0x21
     64a:	98 17       	cp	r25, r24
     64c:	18 f4       	brcc	.+6      	; 0x654 <_ZN15MotorController9RampMotorEv+0x28>
     64e:	ce 01       	movw	r24, r28
     650:	bf df       	rcall	.-130    	; 0x5d0 <_ZN15MotorController8IncM_AMSEv>
     652:	04 c0       	rjmp	.+8      	; 0x65c <_ZN15MotorController9RampMotorEv+0x30>
     654:	89 17       	cp	r24, r25
     656:	10 f4       	brcc	.+4      	; 0x65c <_ZN15MotorController9RampMotorEv+0x30>
     658:	ce 01       	movw	r24, r28
     65a:	c2 df       	rcall	.-124    	; 0x5e0 <_ZN15MotorController8DecM_AMSEv>
     65c:	2c a1       	ldd	r18, Y+36	; 0x24
     65e:	3d a1       	ldd	r19, Y+37	; 0x25
     660:	40 e0       	ldi	r20, 0x00	; 0
     662:	50 e0       	ldi	r21, 0x00	; 0
     664:	60 e0       	ldi	r22, 0x00	; 0
     666:	70 e0       	ldi	r23, 0x00	; 0
     668:	ce 01       	movw	r24, r28
     66a:	6a d2       	rcall	.+1236   	; 0xb40 <_ZN9ObjTimers10StartTimerEjm>
     66c:	df 91       	pop	r29
     66e:	cf 91       	pop	r28
     670:	08 95       	ret

00000672 <_ZN15MotorController12GetM_DIR_FWDEv>:
     672:	fc 01       	movw	r30, r24
     674:	81 85       	ldd	r24, Z+9	; 0x09
     676:	08 95       	ret

00000678 <_ZN15MotorController12GetM_DIR_REVEv>:
     678:	fc 01       	movw	r30, r24
     67a:	82 85       	ldd	r24, Z+10	; 0x0a
     67c:	08 95       	ret

0000067e <_ZN15MotorController13GetM_DIR_OPENEv>:
     67e:	fc 01       	movw	r30, r24
     680:	80 85       	ldd	r24, Z+8	; 0x08
     682:	08 95       	ret

00000684 <_ZN15MotorController7GetMDirEv>:
     684:	fc 01       	movw	r30, r24
     686:	65 85       	ldd	r22, Z+13	; 0x0d
     688:	76 85       	ldd	r23, Z+14	; 0x0e
     68a:	44 85       	ldd	r20, Z+12	; 0x0c
     68c:	fb c2       	rjmp	.+1526   	; 0xc84 <_ZN5PMMIO11GetPortBitsEPVhh>
     68e:	08 95       	ret

00000690 <_ZN15MotorController9SetMDPinsEv>:
     690:	1f 93       	push	r17
     692:	cf 93       	push	r28
     694:	df 93       	push	r29
     696:	ec 01       	movw	r28, r24
     698:	1a a1       	ldd	r17, Y+34	; 0x22
     69a:	f4 df       	rcall	.-24     	; 0x684 <_ZN15MotorController7GetMDirEv>
     69c:	6d 85       	ldd	r22, Y+13	; 0x0d
     69e:	7e 85       	ldd	r23, Y+14	; 0x0e
     6a0:	2c 85       	ldd	r18, Y+12	; 0x0c
     6a2:	41 2f       	mov	r20, r17
     6a4:	ce 01       	movw	r24, r28
     6a6:	e7 d2       	rcall	.+1486   	; 0xc76 <_ZN5PMMIO11SetPortBitsEPVhhh>
     6a8:	df 91       	pop	r29
     6aa:	cf 91       	pop	r28
     6ac:	1f 91       	pop	r17
     6ae:	08 95       	ret

000006b0 <_ZN15MotorController8SetM_AMDEv>:
     6b0:	fc 01       	movw	r30, r24
     6b2:	96 a1       	ldd	r25, Z+38	; 0x26
     6b4:	97 70       	andi	r25, 0x07	; 7
     6b6:	11 f4       	brne	.+4      	; 0x6bc <_ZN15MotorController8SetM_AMDEv+0xc>
     6b8:	83 a1       	ldd	r24, Z+35	; 0x23
     6ba:	82 a3       	std	Z+34, r24	; 0x22
     6bc:	08 95       	ret

000006be <_ZN15MotorController9IsMDSOpenEv>:
     6be:	fc 01       	movw	r30, r24
     6c0:	96 a1       	ldd	r25, Z+38	; 0x26
     6c2:	98 71       	andi	r25, 0x18	; 24
     6c4:	81 e0       	ldi	r24, 0x01	; 1
     6c6:	09 f0       	breq	.+2      	; 0x6ca <_ZN15MotorController9IsMDSOpenEv+0xc>
     6c8:	80 e0       	ldi	r24, 0x00	; 0
     6ca:	08 95       	ret

000006cc <_ZN15MotorController11IsMDSClosedEv>:
     6cc:	fc 01       	movw	r30, r24
     6ce:	96 a1       	ldd	r25, Z+38	; 0x26
     6d0:	98 71       	andi	r25, 0x18	; 24
     6d2:	81 e0       	ldi	r24, 0x01	; 1
     6d4:	98 30       	cpi	r25, 0x08	; 8
     6d6:	09 f0       	breq	.+2      	; 0x6da <_ZN15MotorController11IsMDSClosedEv+0xe>
     6d8:	80 e0       	ldi	r24, 0x00	; 0
     6da:	08 95       	ret

000006dc <_ZN15MotorController11SetMtrSpeedEv>:
     6dc:	cf 93       	push	r28
     6de:	df 93       	push	r29
     6e0:	ec 01       	movw	r28, r24
     6e2:	f4 df       	rcall	.-24     	; 0x6cc <_ZN15MotorController11IsMDSClosedEv>
     6e4:	81 30       	cpi	r24, 0x01	; 1
     6e6:	11 f4       	brne	.+4      	; 0x6ec <_ZN15MotorController11SetMtrSpeedEv+0x10>
     6e8:	8c 8d       	ldd	r24, Y+28	; 0x1c
     6ea:	89 a3       	std	Y+33, r24	; 0x21
     6ec:	df 91       	pop	r29
     6ee:	cf 91       	pop	r28
     6f0:	08 95       	ret

000006f2 <_ZN15MotorController12SetAMSStatusEv>:
     6f2:	cf 93       	push	r28
     6f4:	df 93       	push	r29
     6f6:	ec 01       	movw	r28, r24
     6f8:	7b df       	rcall	.-266    	; 0x5f0 <_ZN15MotorController10IsMStoppedEv>
     6fa:	01 97       	sbiw	r24, 0x01	; 1
     6fc:	79 f4       	brne	.+30     	; 0x71c <_ZN15MotorController12SetAMSStatusEv+0x2a>
     6fe:	61 e0       	ldi	r22, 0x01	; 1
     700:	70 e0       	ldi	r23, 0x00	; 0
     702:	ce 01       	movw	r24, r28
     704:	52 d2       	rcall	.+1188   	; 0xbaa <_ZN9ObjTimers9TimerDoneEj>
     706:	01 97       	sbiw	r24, 0x01	; 1
     708:	21 f4       	brne	.+8      	; 0x712 <_ZN15MotorController12SetAMSStatusEv+0x20>
     70a:	8e a1       	ldd	r24, Y+38	; 0x26
     70c:	88 7f       	andi	r24, 0xF8	; 248
     70e:	8e a3       	std	Y+38, r24	; 0x26
     710:	2f c0       	rjmp	.+94     	; 0x770 <_ZN15MotorController12SetAMSStatusEv+0x7e>
     712:	8e a1       	ldd	r24, Y+38	; 0x26
     714:	88 7f       	andi	r24, 0xF8	; 248
     716:	82 60       	ori	r24, 0x02	; 2
     718:	8e a3       	std	Y+38, r24	; 0x26
     71a:	2a c0       	rjmp	.+84     	; 0x770 <_ZN15MotorController12SetAMSStatusEv+0x7e>
     71c:	2a 89       	ldd	r18, Y+18	; 0x12
     71e:	3b 89       	ldd	r19, Y+19	; 0x13
     720:	40 e0       	ldi	r20, 0x00	; 0
     722:	50 e0       	ldi	r21, 0x00	; 0
     724:	61 e0       	ldi	r22, 0x01	; 1
     726:	70 e0       	ldi	r23, 0x00	; 0
     728:	ce 01       	movw	r24, r28
     72a:	0a d2       	rcall	.+1044   	; 0xb40 <_ZN9ObjTimers10StartTimerEjm>
     72c:	ce 01       	movw	r24, r28
     72e:	ce df       	rcall	.-100    	; 0x6cc <_ZN15MotorController11IsMDSClosedEv>
     730:	81 30       	cpi	r24, 0x01	; 1
     732:	f1 f4       	brne	.+60     	; 0x770 <_ZN15MotorController12SetAMSStatusEv+0x7e>
     734:	8e 81       	ldd	r24, Y+6	; 0x06
     736:	9f 81       	ldd	r25, Y+7	; 0x07
     738:	b4 d2       	rcall	.+1384   	; 0xca2 <_ZN6PWMPFC12GetDutyCycleEv>
     73a:	2f 85       	ldd	r18, Y+15	; 0x0f
     73c:	30 e0       	ldi	r19, 0x00	; 0
     73e:	82 17       	cp	r24, r18
     740:	93 07       	cpc	r25, r19
     742:	90 f0       	brcs	.+36     	; 0x768 <_ZN15MotorController12SetAMSStatusEv+0x76>
     744:	ce 01       	movw	r24, r28
     746:	9e df       	rcall	.-196    	; 0x684 <_ZN15MotorController7GetMDirEv>
     748:	99 85       	ldd	r25, Y+9	; 0x09
     74a:	98 13       	cpse	r25, r24
     74c:	05 c0       	rjmp	.+10     	; 0x758 <_ZN15MotorController12SetAMSStatusEv+0x66>
     74e:	8e a1       	ldd	r24, Y+38	; 0x26
     750:	88 7f       	andi	r24, 0xF8	; 248
     752:	83 60       	ori	r24, 0x03	; 3
     754:	8e a3       	std	Y+38, r24	; 0x26
     756:	0c c0       	rjmp	.+24     	; 0x770 <_ZN15MotorController12SetAMSStatusEv+0x7e>
     758:	9a 85       	ldd	r25, Y+10	; 0x0a
     75a:	98 13       	cpse	r25, r24
     75c:	09 c0       	rjmp	.+18     	; 0x770 <_ZN15MotorController12SetAMSStatusEv+0x7e>
     75e:	8e a1       	ldd	r24, Y+38	; 0x26
     760:	88 7f       	andi	r24, 0xF8	; 248
     762:	84 60       	ori	r24, 0x04	; 4
     764:	8e a3       	std	Y+38, r24	; 0x26
     766:	04 c0       	rjmp	.+8      	; 0x770 <_ZN15MotorController12SetAMSStatusEv+0x7e>
     768:	8e a1       	ldd	r24, Y+38	; 0x26
     76a:	88 7f       	andi	r24, 0xF8	; 248
     76c:	81 60       	ori	r24, 0x01	; 1
     76e:	8e a3       	std	Y+38, r24	; 0x26
     770:	df 91       	pop	r29
     772:	cf 91       	pop	r28
     774:	08 95       	ret

00000776 <_ZN15MotorController12SetDMDRmpDwnEv>:
     776:	cf 93       	push	r28
     778:	df 93       	push	r29
     77a:	ec 01       	movw	r28, r24
     77c:	a7 df       	rcall	.-178    	; 0x6cc <_ZN15MotorController11IsMDSClosedEv>
     77e:	81 30       	cpi	r24, 0x01	; 1
     780:	81 f4       	brne	.+32     	; 0x7a2 <_ZN15MotorController12SetDMDRmpDwnEv+0x2c>
     782:	ce 01       	movw	r24, r28
     784:	7f df       	rcall	.-258    	; 0x684 <_ZN15MotorController7GetMDirEv>
     786:	9d 8d       	ldd	r25, Y+29	; 0x1d
     788:	89 17       	cp	r24, r25
     78a:	49 f0       	breq	.+18     	; 0x79e <_ZN15MotorController12SetDMDRmpDwnEv+0x28>
     78c:	89 89       	ldd	r24, Y+17	; 0x11
     78e:	89 a3       	std	Y+33, r24	; 0x21
     790:	8e 8d       	ldd	r24, Y+30	; 0x1e
     792:	9f 8d       	ldd	r25, Y+31	; 0x1f
     794:	9d a3       	std	Y+37, r25	; 0x25
     796:	8c a3       	std	Y+36, r24	; 0x24
     798:	88 85       	ldd	r24, Y+8	; 0x08
     79a:	8b a3       	std	Y+35, r24	; 0x23
     79c:	08 c0       	rjmp	.+16     	; 0x7ae <_ZN15MotorController12SetDMDRmpDwnEv+0x38>
     79e:	8b a3       	std	Y+35, r24	; 0x23
     7a0:	06 c0       	rjmp	.+12     	; 0x7ae <_ZN15MotorController12SetDMDRmpDwnEv+0x38>
     7a2:	ce 01       	movw	r24, r28
     7a4:	8c df       	rcall	.-232    	; 0x6be <_ZN15MotorController9IsMDSOpenEv>
     7a6:	81 30       	cpi	r24, 0x01	; 1
     7a8:	11 f4       	brne	.+4      	; 0x7ae <_ZN15MotorController12SetDMDRmpDwnEv+0x38>
     7aa:	8d 8d       	ldd	r24, Y+29	; 0x1d
     7ac:	8b a3       	std	Y+35, r24	; 0x23
     7ae:	df 91       	pop	r29
     7b0:	cf 91       	pop	r28
     7b2:	08 95       	ret

000007b4 <_ZN15MotorController8SetM_MDSEv>:
     7b4:	cf 93       	push	r28
     7b6:	df 93       	push	r29
     7b8:	ec 01       	movw	r28, r24
     7ba:	64 df       	rcall	.-312    	; 0x684 <_ZN15MotorController7GetMDirEv>
     7bc:	98 85       	ldd	r25, Y+8	; 0x08
     7be:	98 13       	cpse	r25, r24
     7c0:	12 c0       	rjmp	.+36     	; 0x7e6 <_ZN15MotorController8SetM_MDSEv+0x32>
     7c2:	2e 89       	ldd	r18, Y+22	; 0x16
     7c4:	3f 89       	ldd	r19, Y+23	; 0x17
     7c6:	40 e0       	ldi	r20, 0x00	; 0
     7c8:	50 e0       	ldi	r21, 0x00	; 0
     7ca:	62 e0       	ldi	r22, 0x02	; 2
     7cc:	70 e0       	ldi	r23, 0x00	; 0
     7ce:	ce 01       	movw	r24, r28
     7d0:	b7 d1       	rcall	.+878    	; 0xb40 <_ZN9ObjTimers10StartTimerEjm>
     7d2:	63 e0       	ldi	r22, 0x03	; 3
     7d4:	70 e0       	ldi	r23, 0x00	; 0
     7d6:	ce 01       	movw	r24, r28
     7d8:	e8 d1       	rcall	.+976    	; 0xbaa <_ZN9ObjTimers9TimerDoneEj>
     7da:	01 97       	sbiw	r24, 0x01	; 1
     7dc:	e9 f4       	brne	.+58     	; 0x818 <_ZN15MotorController8SetM_MDSEv+0x64>
     7de:	8e a1       	ldd	r24, Y+38	; 0x26
     7e0:	87 7e       	andi	r24, 0xE7	; 231
     7e2:	8e a3       	std	Y+38, r24	; 0x26
     7e4:	1d c0       	rjmp	.+58     	; 0x820 <_ZN15MotorController8SetM_MDSEv+0x6c>
     7e6:	99 85       	ldd	r25, Y+9	; 0x09
     7e8:	98 17       	cp	r25, r24
     7ea:	19 f0       	breq	.+6      	; 0x7f2 <_ZN15MotorController8SetM_MDSEv+0x3e>
     7ec:	9a 85       	ldd	r25, Y+10	; 0x0a
     7ee:	98 13       	cpse	r25, r24
     7f0:	13 c0       	rjmp	.+38     	; 0x818 <_ZN15MotorController8SetM_MDSEv+0x64>
     7f2:	2c 89       	ldd	r18, Y+20	; 0x14
     7f4:	3d 89       	ldd	r19, Y+21	; 0x15
     7f6:	40 e0       	ldi	r20, 0x00	; 0
     7f8:	50 e0       	ldi	r21, 0x00	; 0
     7fa:	63 e0       	ldi	r22, 0x03	; 3
     7fc:	70 e0       	ldi	r23, 0x00	; 0
     7fe:	ce 01       	movw	r24, r28
     800:	9f d1       	rcall	.+830    	; 0xb40 <_ZN9ObjTimers10StartTimerEjm>
     802:	62 e0       	ldi	r22, 0x02	; 2
     804:	70 e0       	ldi	r23, 0x00	; 0
     806:	ce 01       	movw	r24, r28
     808:	d0 d1       	rcall	.+928    	; 0xbaa <_ZN9ObjTimers9TimerDoneEj>
     80a:	01 97       	sbiw	r24, 0x01	; 1
     80c:	29 f4       	brne	.+10     	; 0x818 <_ZN15MotorController8SetM_MDSEv+0x64>
     80e:	8e a1       	ldd	r24, Y+38	; 0x26
     810:	87 7e       	andi	r24, 0xE7	; 231
     812:	88 60       	ori	r24, 0x08	; 8
     814:	8e a3       	std	Y+38, r24	; 0x26
     816:	04 c0       	rjmp	.+8      	; 0x820 <_ZN15MotorController8SetM_MDSEv+0x6c>
     818:	8e a1       	ldd	r24, Y+38	; 0x26
     81a:	87 7e       	andi	r24, 0xE7	; 231
     81c:	80 61       	ori	r24, 0x10	; 16
     81e:	8e a3       	std	Y+38, r24	; 0x26
     820:	df 91       	pop	r29
     822:	cf 91       	pop	r28
     824:	08 95       	ret

00000826 <_ZN15MotorController19IsDriveMotorStoppedEv>:
     826:	fc 01       	movw	r30, r24
     828:	96 a1       	ldd	r25, Z+38	; 0x26
     82a:	97 70       	andi	r25, 0x07	; 7
     82c:	81 e0       	ldi	r24, 0x01	; 1
     82e:	09 f0       	breq	.+2      	; 0x832 <_ZN15MotorController19IsDriveMotorStoppedEv+0xc>
     830:	80 e0       	ldi	r24, 0x00	; 0
     832:	08 95       	ret

00000834 <_ZN15MotorController5StopMEv>:
     834:	fc 01       	movw	r30, r24
     836:	91 89       	ldd	r25, Z+17	; 0x11
     838:	94 8f       	std	Z+28, r25	; 0x1c
     83a:	21 e0       	ldi	r18, 0x01	; 1
     83c:	30 e0       	ldi	r19, 0x00	; 0
     83e:	37 8f       	std	Z+31, r19	; 0x1f
     840:	26 8f       	std	Z+30, r18	; 0x1e
     842:	80 85       	ldd	r24, Z+8	; 0x08
     844:	85 8f       	std	Z+29, r24	; 0x1d
     846:	91 a3       	std	Z+33, r25	; 0x21
     848:	35 a3       	std	Z+37, r19	; 0x25
     84a:	24 a3       	std	Z+36, r18	; 0x24
     84c:	83 a3       	std	Z+35, r24	; 0x23
     84e:	08 95       	ret

00000850 <_ZN15MotorController14KillSwitchStopEv>:
     850:	cf 93       	push	r28
     852:	df 93       	push	r29
     854:	fc 01       	movw	r30, r24
     856:	26 a1       	ldd	r18, Z+38	; 0x26
     858:	25 ff       	sbrs	r18, 5
     85a:	0a c0       	rjmp	.+20     	; 0x870 <_ZN15MotorController14KillSwitchStopEv+0x20>
     85c:	ec 01       	movw	r28, r24
     85e:	e3 df       	rcall	.-58     	; 0x826 <_ZN15MotorController19IsDriveMotorStoppedEv>
     860:	81 30       	cpi	r24, 0x01	; 1
     862:	21 f4       	brne	.+8      	; 0x86c <_ZN15MotorController14KillSwitchStopEv+0x1c>
     864:	8e a1       	ldd	r24, Y+38	; 0x26
     866:	8f 7d       	andi	r24, 0xDF	; 223
     868:	8e a3       	std	Y+38, r24	; 0x26
     86a:	02 c0       	rjmp	.+4      	; 0x870 <_ZN15MotorController14KillSwitchStopEv+0x20>
     86c:	ce 01       	movw	r24, r28
     86e:	e2 df       	rcall	.-60     	; 0x834 <_ZN15MotorController5StopMEv>
     870:	df 91       	pop	r29
     872:	cf 91       	pop	r28
     874:	08 95       	ret

00000876 <_ZN15MotorController11IsMBEnabledEv>:
     876:	21 e0       	ldi	r18, 0x01	; 1
     878:	fc 01       	movw	r30, r24
     87a:	80 8d       	ldd	r24, Z+24	; 0x18
     87c:	81 11       	cpse	r24, r1
     87e:	01 c0       	rjmp	.+2      	; 0x882 <_ZN15MotorController11IsMBEnabledEv+0xc>
     880:	20 e0       	ldi	r18, 0x00	; 0
     882:	82 2f       	mov	r24, r18
     884:	08 95       	ret

00000886 <_ZN15MotorController8SetMBPinEv>:
     886:	fc 01       	movw	r30, r24
     888:	62 8d       	ldd	r22, Z+26	; 0x1a
     88a:	73 8d       	ldd	r23, Z+27	; 0x1b
     88c:	61 15       	cp	r22, r1
     88e:	71 05       	cpc	r23, r1
     890:	19 f0       	breq	.+6      	; 0x898 <_ZN15MotorController8SetMBPinEv+0x12>
     892:	41 8d       	ldd	r20, Z+25	; 0x19
     894:	24 2f       	mov	r18, r20
     896:	ef c1       	rjmp	.+990    	; 0xc76 <_ZN5PMMIO11SetPortBitsEPVhhh>
     898:	08 95       	ret

0000089a <_ZN15MotorController8ClrMBPinEv>:
     89a:	fc 01       	movw	r30, r24
     89c:	62 8d       	ldd	r22, Z+26	; 0x1a
     89e:	73 8d       	ldd	r23, Z+27	; 0x1b
     8a0:	61 15       	cp	r22, r1
     8a2:	71 05       	cpc	r23, r1
     8a4:	19 f0       	breq	.+6      	; 0x8ac <_ZN15MotorController8ClrMBPinEv+0x12>
     8a6:	21 8d       	ldd	r18, Z+25	; 0x19
     8a8:	40 e0       	ldi	r20, 0x00	; 0
     8aa:	e5 c1       	rjmp	.+970    	; 0xc76 <_ZN5PMMIO11SetPortBitsEPVhhh>
     8ac:	08 95       	ret

000008ae <_ZN15MotorController7SetMBOnEv>:
     8ae:	cf 93       	push	r28
     8b0:	df 93       	push	r29
     8b2:	ec 01       	movw	r28, r24
     8b4:	88 8d       	ldd	r24, Y+24	; 0x18
     8b6:	88 23       	and	r24, r24
     8b8:	39 f0       	breq	.+14     	; 0x8c8 <_ZN15MotorController7SetMBOnEv+0x1a>
     8ba:	ce 01       	movw	r24, r28
     8bc:	99 de       	rcall	.-718    	; 0x5f0 <_ZN15MotorController10IsMStoppedEv>
     8be:	89 2b       	or	r24, r25
     8c0:	19 f0       	breq	.+6      	; 0x8c8 <_ZN15MotorController7SetMBOnEv+0x1a>
     8c2:	ce 01       	movw	r24, r28
     8c4:	e0 df       	rcall	.-64     	; 0x886 <_ZN15MotorController8SetMBPinEv>
     8c6:	02 c0       	rjmp	.+4      	; 0x8cc <_ZN15MotorController7SetMBOnEv+0x1e>
     8c8:	ce 01       	movw	r24, r28
     8ca:	e7 df       	rcall	.-50     	; 0x89a <_ZN15MotorController8ClrMBPinEv>
     8cc:	df 91       	pop	r29
     8ce:	cf 91       	pop	r28
     8d0:	08 95       	ret

000008d2 <_ZN15MotorController11SetMtrBreakEv>:
     8d2:	fc 01       	movw	r30, r24
     8d4:	20 8d       	ldd	r18, Z+24	; 0x18
     8d6:	22 23       	and	r18, r18
     8d8:	11 f0       	breq	.+4      	; 0x8de <_ZN15MotorController11SetMtrBreakEv+0xc>
     8da:	e9 cf       	rjmp	.-46     	; 0x8ae <_ZN15MotorController7SetMBOnEv>
     8dc:	08 95       	ret
     8de:	dd cf       	rjmp	.-70     	; 0x89a <_ZN15MotorController8ClrMBPinEv>
     8e0:	08 95       	ret

000008e2 <_ZN15MotorController9SyncMotorEv>:
     8e2:	cf 93       	push	r28
     8e4:	df 93       	push	r29
     8e6:	ec 01       	movw	r28, r24
     8e8:	98 a1       	ldd	r25, Y+32	; 0x20
     8ea:	89 a1       	ldd	r24, Y+33	; 0x21
     8ec:	98 13       	cpse	r25, r24
     8ee:	08 c0       	rjmp	.+16     	; 0x900 <_ZN15MotorController9SyncMotorEv+0x1e>
     8f0:	2c a1       	ldd	r18, Y+36	; 0x24
     8f2:	3d a1       	ldd	r19, Y+37	; 0x25
     8f4:	40 e0       	ldi	r20, 0x00	; 0
     8f6:	50 e0       	ldi	r21, 0x00	; 0
     8f8:	60 e0       	ldi	r22, 0x00	; 0
     8fa:	70 e0       	ldi	r23, 0x00	; 0
     8fc:	ce 01       	movw	r24, r28
     8fe:	20 d1       	rcall	.+576    	; 0xb40 <_ZN9ObjTimers10StartTimerEjm>
     900:	98 a1       	ldd	r25, Y+32	; 0x20
     902:	89 89       	ldd	r24, Y+17	; 0x11
     904:	98 17       	cp	r25, r24
     906:	41 f0       	breq	.+16     	; 0x918 <_ZN15MotorController9SyncMotorEv+0x36>
     908:	2a 89       	ldd	r18, Y+18	; 0x12
     90a:	3b 89       	ldd	r19, Y+19	; 0x13
     90c:	40 e0       	ldi	r20, 0x00	; 0
     90e:	50 e0       	ldi	r21, 0x00	; 0
     910:	61 e0       	ldi	r22, 0x01	; 1
     912:	70 e0       	ldi	r23, 0x00	; 0
     914:	ce 01       	movw	r24, r28
     916:	14 d1       	rcall	.+552    	; 0xb40 <_ZN9ObjTimers10StartTimerEjm>
     918:	ce 01       	movw	r24, r28
     91a:	b4 de       	rcall	.-664    	; 0x684 <_ZN15MotorController7GetMDirEv>
     91c:	98 85       	ldd	r25, Y+8	; 0x08
     91e:	89 17       	cp	r24, r25
     920:	41 f0       	breq	.+16     	; 0x932 <_ZN15MotorController9SyncMotorEv+0x50>
     922:	2c 89       	ldd	r18, Y+20	; 0x14
     924:	3d 89       	ldd	r19, Y+21	; 0x15
     926:	40 e0       	ldi	r20, 0x00	; 0
     928:	50 e0       	ldi	r21, 0x00	; 0
     92a:	63 e0       	ldi	r22, 0x03	; 3
     92c:	70 e0       	ldi	r23, 0x00	; 0
     92e:	ce 01       	movw	r24, r28
     930:	07 d1       	rcall	.+526    	; 0xb40 <_ZN9ObjTimers10StartTimerEjm>
     932:	ce 01       	movw	r24, r28
     934:	a7 de       	rcall	.-690    	; 0x684 <_ZN15MotorController7GetMDirEv>
     936:	98 85       	ldd	r25, Y+8	; 0x08
     938:	89 13       	cpse	r24, r25
     93a:	08 c0       	rjmp	.+16     	; 0x94c <_ZN15MotorController9SyncMotorEv+0x6a>
     93c:	2e 89       	ldd	r18, Y+22	; 0x16
     93e:	3f 89       	ldd	r19, Y+23	; 0x17
     940:	40 e0       	ldi	r20, 0x00	; 0
     942:	50 e0       	ldi	r21, 0x00	; 0
     944:	62 e0       	ldi	r22, 0x02	; 2
     946:	70 e0       	ldi	r23, 0x00	; 0
     948:	ce 01       	movw	r24, r28
     94a:	fa d0       	rcall	.+500    	; 0xb40 <_ZN9ObjTimers10StartTimerEjm>
     94c:	df 91       	pop	r29
     94e:	cf 91       	pop	r28
     950:	08 95       	ret

00000952 <_ZN15MotorController15ResetStopDurTmrEv>:
}


void MotorController::ResetStopDurTmr() //Reset the stop timer (*ISSUE*)
{
  StartTimer( M_STP_TMR, M_STP_DUR );
     952:	fc 01       	movw	r30, r24
     954:	22 89       	ldd	r18, Z+18	; 0x12
     956:	33 89       	ldd	r19, Z+19	; 0x13
     958:	40 e0       	ldi	r20, 0x00	; 0
     95a:	50 e0       	ldi	r21, 0x00	; 0
     95c:	61 e0       	ldi	r22, 0x01	; 1
     95e:	70 e0       	ldi	r23, 0x00	; 0
     960:	ef c0       	rjmp	.+478    	; 0xb40 <_ZN9ObjTimers10StartTimerEjm>
     962:	08 95       	ret

00000964 <_ZN15MotorController8MCDriverEv>:
// Main Routines
//=====================================================================


void MotorController::MCDriver( void ) // public
{
     964:	cf 93       	push	r28
     966:	df 93       	push	r29
     968:	ec 01       	movw	r28, r24
  KillSwitchStop();        // Stops WC regardless of Active Input Device Input
     96a:	72 df       	rcall	.-284    	; 0x850 <_ZN15MotorController14KillSwitchStopEv>

  SetM_MDS();
     96c:	ce 01       	movw	r24, r28
     96e:	22 df       	rcall	.-444    	; 0x7b4 <_ZN15MotorController8SetM_MDSEv>
  SetAMSStatus();
     970:	ce 01       	movw	r24, r28
     972:	bf de       	rcall	.-642    	; 0x6f2 <_ZN15MotorController12SetAMSStatusEv>

  SetMtrSpeed();
     974:	ce 01       	movw	r24, r28
     976:	b2 de       	rcall	.-668    	; 0x6dc <_ZN15MotorController11SetMtrSpeedEv>
}

void MotorController::SetM_MRR( uint16_t mrr )  // mrr user bounds in .1 sec (1-600), set it 
{
  if( mrr < M_MIN_MRR ) SystemError();   // Motor Ramp Rate must be in bounds >= 1, 1 = .1 sec from 0->100 speed
  M_MRR = mrr;
     978:	8e 8d       	ldd	r24, Y+30	; 0x1e
     97a:	9f 8d       	ldd	r25, Y+31	; 0x1f
     97c:	9d a3       	std	Y+37, r25	; 0x25
     97e:	8c a3       	std	Y+36, r24	; 0x24
  SetAMSStatus();

  SetMtrSpeed();
  SetMtrRampRate();

  SetDMDRmpDwn();
     980:	ce 01       	movw	r24, r28
     982:	f9 de       	rcall	.-526    	; 0x776 <_ZN15MotorController12SetDMDRmpDwnEv>

  SetM_AMD();
     984:	ce 01       	movw	r24, r28
     986:	94 de       	rcall	.-728    	; 0x6b0 <_ZN15MotorController8SetM_AMDEv>
  SetPortBits( M_DIR_PORT, mdir, M_DIR_MASK );
}

void MotorController::SetMDPort( void ) //set port for direction
{
  SetMDPins();
     988:	ce 01       	movw	r24, r28
     98a:	82 de       	rcall	.-764    	; 0x690 <_ZN15MotorController9SetMDPinsEv>

  SetM_AMD();

  SetMDPort();

  SetMtrBreak();
     98c:	ce 01       	movw	r24, r28
     98e:	a1 df       	rcall	.-190    	; 0x8d2 <_ZN15MotorController11SetMtrBreakEv>

  RampMotor();
     990:	ce 01       	movw	r24, r28
     992:	4c de       	rcall	.-872    	; 0x62c <_ZN15MotorController9RampMotorEv>
  SetMtrPWM();
     994:	ce 01       	movw	r24, r28
     996:	3f de       	rcall	.-898    	; 0x616 <_ZN15MotorController9SetMtrPWMEv>

  SyncMotor();
     998:	ce 01       	movw	r24, r28
     99a:	a3 df       	rcall	.-186    	; 0x8e2 <_ZN15MotorController9SyncMotorEv>
}
     99c:	df 91       	pop	r29
     99e:	cf 91       	pop	r28
     9a0:	08 95       	ret

000009a2 <_ZN7MCAIDev10GetM1SpeedEv>:

  return false;
}

void MCAIDev::ClearKillSwitch( void )           { KSWITCH = false; };
void MCAIDev::SetKillSwitch( void )             { KSWITCH = true; };
     9a2:	fc 01       	movw	r30, r24
     9a4:	80 85       	ldd	r24, Z+8	; 0x08
     9a6:	08 95       	ret

000009a8 <_ZN7MCAIDev10SetM1SpeedEh>:
     9a8:	1f 93       	push	r17
     9aa:	cf 93       	push	r28
     9ac:	df 93       	push	r29
     9ae:	ec 01       	movw	r28, r24
     9b0:	16 2f       	mov	r17, r22
     9b2:	65 36       	cpi	r22, 0x65	; 101
     9b4:	18 f0       	brcs	.+6      	; 0x9bc <_ZN7MCAIDev10SetM1SpeedEh+0x14>
     9b6:	60 e0       	ldi	r22, 0x00	; 0
     9b8:	70 e0       	ldi	r23, 0x00	; 0
     9ba:	ab d4       	rcall	.+2390   	; 0x1312 <_ZN11SystemError8SysErrorEj>
     9bc:	88 85       	ldd	r24, Y+8	; 0x08
     9be:	89 83       	std	Y+1, r24	; 0x01
     9c0:	18 87       	std	Y+8, r17	; 0x08
     9c2:	df 91       	pop	r29
     9c4:	cf 91       	pop	r28
     9c6:	1f 91       	pop	r17
     9c8:	08 95       	ret

000009ca <_ZN7MCAIDev10GetM2SpeedEv>:
     9ca:	fc 01       	movw	r30, r24
     9cc:	81 85       	ldd	r24, Z+9	; 0x09
     9ce:	08 95       	ret

000009d0 <_ZN7MCAIDev10SetM2SpeedEh>:
     9d0:	1f 93       	push	r17
     9d2:	cf 93       	push	r28
     9d4:	df 93       	push	r29
     9d6:	ec 01       	movw	r28, r24
     9d8:	16 2f       	mov	r17, r22
     9da:	65 36       	cpi	r22, 0x65	; 101
     9dc:	18 f0       	brcs	.+6      	; 0x9e4 <_ZN7MCAIDev10SetM2SpeedEh+0x14>
     9de:	60 e0       	ldi	r22, 0x00	; 0
     9e0:	70 e0       	ldi	r23, 0x00	; 0
     9e2:	97 d4       	rcall	.+2350   	; 0x1312 <_ZN11SystemError8SysErrorEj>
     9e4:	89 85       	ldd	r24, Y+9	; 0x09
     9e6:	8a 83       	std	Y+2, r24	; 0x02
     9e8:	19 87       	std	Y+9, r17	; 0x09
     9ea:	df 91       	pop	r29
     9ec:	cf 91       	pop	r28
     9ee:	1f 91       	pop	r17
     9f0:	08 95       	ret

000009f2 <_ZN7MCAIDev7GetMDirEv>:
     9f2:	fc 01       	movw	r30, r24
     9f4:	87 81       	ldd	r24, Z+7	; 0x07
     9f6:	08 95       	ret

000009f8 <_ZN7MCAIDev7SetMDirEh>:
     9f8:	1f 93       	push	r17
     9fa:	cf 93       	push	r28
     9fc:	df 93       	push	r29
     9fe:	ec 01       	movw	r28, r24
     a00:	16 2f       	mov	r17, r22
     a02:	65 30       	cpi	r22, 0x05	; 5
     a04:	18 f0       	brcs	.+6      	; 0xa0c <_ZN7MCAIDev7SetMDirEh+0x14>
     a06:	60 e0       	ldi	r22, 0x00	; 0
     a08:	70 e0       	ldi	r23, 0x00	; 0
     a0a:	83 d4       	rcall	.+2310   	; 0x1312 <_ZN11SystemError8SysErrorEj>
     a0c:	8f 81       	ldd	r24, Y+7	; 0x07
     a0e:	88 83       	st	Y, r24
     a10:	1f 83       	std	Y+7, r17	; 0x07
     a12:	df 91       	pop	r29
     a14:	cf 91       	pop	r28
     a16:	1f 91       	pop	r17
     a18:	08 95       	ret

00000a1a <_ZN7MCAIDev6DriverEP4RF24>:
     a1a:	0f 93       	push	r16
     a1c:	1f 93       	push	r17
     a1e:	cf 93       	push	r28
     a20:	df 93       	push	r29
     a22:	ec 01       	movw	r28, r24
     a24:	8b 01       	movw	r16, r22
     a26:	cb 01       	movw	r24, r22
     a28:	0d d3       	rcall	.+1562   	; 0x1044 <_ZN4RF249availableEv>
     a2a:	88 23       	and	r24, r24
     a2c:	31 f1       	breq	.+76     	; 0xa7a <_ZN7MCAIDev6DriverEP4RF24+0x60>
     a2e:	44 e0       	ldi	r20, 0x04	; 4
     a30:	be 01       	movw	r22, r28
     a32:	6d 5f       	subi	r22, 0xFD	; 253
     a34:	7f 4f       	sbci	r23, 0xFF	; 255
     a36:	c8 01       	movw	r24, r16
     a38:	09 d3       	rcall	.+1554   	; 0x104c <_ZN4RF244readEPvh>
     a3a:	6b 81       	ldd	r22, Y+3	; 0x03
     a3c:	ce 01       	movw	r24, r28
     a3e:	b4 df       	rcall	.-152    	; 0x9a8 <_ZN7MCAIDev10SetM1SpeedEh>
     a40:	6c 81       	ldd	r22, Y+4	; 0x04
     a42:	ce 01       	movw	r24, r28
     a44:	c5 df       	rcall	.-118    	; 0x9d0 <_ZN7MCAIDev10SetM2SpeedEh>
     a46:	6d 81       	ldd	r22, Y+5	; 0x05
     a48:	ce 01       	movw	r24, r28
     a4a:	d6 df       	rcall	.-84     	; 0x9f8 <_ZN7MCAIDev7SetMDirEh>
     a4c:	88 85       	ldd	r24, Y+8	; 0x08
     a4e:	85 36       	cpi	r24, 0x65	; 101
     a50:	18 f4       	brcc	.+6      	; 0xa58 <_ZN7MCAIDev6DriverEP4RF24+0x3e>
     a52:	89 85       	ldd	r24, Y+9	; 0x09
     a54:	85 36       	cpi	r24, 0x65	; 101
     a56:	20 f0       	brcs	.+8      	; 0xa60 <_ZN7MCAIDev6DriverEP4RF24+0x46>
     a58:	60 e0       	ldi	r22, 0x00	; 0
     a5a:	70 e0       	ldi	r23, 0x00	; 0
     a5c:	ce 01       	movw	r24, r28
     a5e:	59 d4       	rcall	.+2226   	; 0x1312 <_ZN11SystemError8SysErrorEj>
     a60:	8f 81       	ldd	r24, Y+7	; 0x07
     a62:	85 30       	cpi	r24, 0x05	; 5
     a64:	20 f0       	brcs	.+8      	; 0xa6e <_ZN7MCAIDev6DriverEP4RF24+0x54>
     a66:	60 e0       	ldi	r22, 0x00	; 0
     a68:	70 e0       	ldi	r23, 0x00	; 0
     a6a:	ce 01       	movw	r24, r28
     a6c:	52 d4       	rcall	.+2212   	; 0x1312 <_ZN11SystemError8SysErrorEj>
     a6e:	8e 81       	ldd	r24, Y+6	; 0x06
     a70:	88 23       	and	r24, r24
     a72:	29 f0       	breq	.+10     	; 0xa7e <_ZN7MCAIDev6DriverEP4RF24+0x64>
     a74:	81 e0       	ldi	r24, 0x01	; 1
     a76:	8a 87       	std	Y+10, r24	; 0x0a
     a78:	03 c0       	rjmp	.+6      	; 0xa80 <_ZN7MCAIDev6DriverEP4RF24+0x66>
     a7a:	80 e0       	ldi	r24, 0x00	; 0
     a7c:	01 c0       	rjmp	.+2      	; 0xa80 <_ZN7MCAIDev6DriverEP4RF24+0x66>
     a7e:	81 e0       	ldi	r24, 0x01	; 1
     a80:	df 91       	pop	r29
     a82:	cf 91       	pop	r28
     a84:	1f 91       	pop	r17
     a86:	0f 91       	pop	r16
     a88:	08 95       	ret

00000a8a <_ZN7MCAIDev18IsKillSwitchActiveEv>:
uint8_t MCAIDev::IsKillSwitchActive( void )     { return KSWITCH; };
     a8a:	fc 01       	movw	r30, r24
     a8c:	82 85       	ldd	r24, Z+10	; 0x0a
     a8e:	08 95       	ret

00000a90 <_Znaj>:
  return malloc(size);
}

void * operator new[](size_t size)
{
  return malloc(size);
     a90:	b8 c7       	rjmp	.+3952   	; 0x1a02 <malloc>
}
     a92:	08 95       	ret

00000a94 <_ZN9ObjTimersC1EP9TimerBasej>:
{
  if( TimerBasePtr == 0 ) SysError( 0 );

  TimerBasePtr->RemoveObject( this );
  if( ObjectTimers != 0 ) delete ObjectTimers;
}
     a94:	ef 92       	push	r14
     a96:	ff 92       	push	r15
     a98:	0f 93       	push	r16
     a9a:	1f 93       	push	r17
     a9c:	cf 93       	push	r28
     a9e:	df 93       	push	r29
     aa0:	7c 01       	movw	r14, r24
     aa2:	8b 01       	movw	r16, r22
     aa4:	ea 01       	movw	r28, r20
     aa6:	20 97       	sbiw	r28, 0x00	; 0
     aa8:	39 f4       	brne	.+14     	; 0xab8 <_ZN9ObjTimersC1EP9TimerBasej+0x24>
     aaa:	60 e0       	ldi	r22, 0x00	; 0
     aac:	70 e0       	ldi	r23, 0x00	; 0
     aae:	31 d4       	rcall	.+2146   	; 0x1312 <_ZN11SystemError8SysErrorEj>
     ab0:	01 15       	cp	r16, r1
     ab2:	11 05       	cpc	r17, r1
     ab4:	59 f4       	brne	.+22     	; 0xacc <_ZN9ObjTimersC1EP9TimerBasej+0x38>
     ab6:	02 c0       	rjmp	.+4      	; 0xabc <_ZN9ObjTimersC1EP9TimerBasej+0x28>
     ab8:	67 2b       	or	r22, r23
     aba:	21 f4       	brne	.+8      	; 0xac4 <_ZN9ObjTimersC1EP9TimerBasej+0x30>
     abc:	60 e0       	ldi	r22, 0x00	; 0
     abe:	70 e0       	ldi	r23, 0x00	; 0
     ac0:	c7 01       	movw	r24, r14
     ac2:	27 d4       	rcall	.+2126   	; 0x1312 <_ZN11SystemError8SysErrorEj>
     ac4:	c1 3c       	cpi	r28, 0xC1	; 193
     ac6:	8f e1       	ldi	r24, 0x1F	; 31
     ac8:	d8 07       	cpc	r29, r24
     aca:	30 f4       	brcc	.+12     	; 0xad8 <_ZN9ObjTimersC1EP9TimerBasej+0x44>
     acc:	ce 01       	movw	r24, r28
     ace:	88 0f       	add	r24, r24
     ad0:	99 1f       	adc	r25, r25
     ad2:	88 0f       	add	r24, r24
     ad4:	99 1f       	adc	r25, r25
     ad6:	02 c0       	rjmp	.+4      	; 0xadc <_ZN9ObjTimersC1EP9TimerBasej+0x48>
     ad8:	8f ef       	ldi	r24, 0xFF	; 255
     ada:	9f ef       	ldi	r25, 0xFF	; 255
     adc:	d9 df       	rcall	.-78     	; 0xa90 <_Znaj>
     ade:	d7 01       	movw	r26, r14
     ae0:	13 96       	adiw	r26, 0x03	; 3
     ae2:	9c 93       	st	X, r25
     ae4:	8e 93       	st	-X, r24
     ae6:	12 97       	sbiw	r26, 0x02	; 2
     ae8:	89 2b       	or	r24, r25
     aea:	21 f4       	brne	.+8      	; 0xaf4 <_ZN9ObjTimersC1EP9TimerBasej+0x60>
     aec:	60 e0       	ldi	r22, 0x00	; 0
     aee:	70 e0       	ldi	r23, 0x00	; 0
     af0:	c7 01       	movw	r24, r14
     af2:	0f d4       	rcall	.+2078   	; 0x1312 <_ZN11SystemError8SysErrorEj>
     af4:	20 97       	sbiw	r28, 0x00	; 0
     af6:	a9 f0       	breq	.+42     	; 0xb22 <_ZN9ObjTimersC1EP9TimerBasej+0x8e>
     af8:	80 e0       	ldi	r24, 0x00	; 0
     afa:	90 e0       	ldi	r25, 0x00	; 0
     afc:	20 e0       	ldi	r18, 0x00	; 0
     afe:	30 e0       	ldi	r19, 0x00	; 0
     b00:	d7 01       	movw	r26, r14
     b02:	12 96       	adiw	r26, 0x02	; 2
     b04:	ed 91       	ld	r30, X+
     b06:	fc 91       	ld	r31, X
     b08:	13 97       	sbiw	r26, 0x03	; 3
     b0a:	e8 0f       	add	r30, r24
     b0c:	f9 1f       	adc	r31, r25
     b0e:	10 82       	st	Z, r1
     b10:	11 82       	std	Z+1, r1	; 0x01
     b12:	12 82       	std	Z+2, r1	; 0x02
     b14:	13 82       	std	Z+3, r1	; 0x03
     b16:	2f 5f       	subi	r18, 0xFF	; 255
     b18:	3f 4f       	sbci	r19, 0xFF	; 255
     b1a:	04 96       	adiw	r24, 0x04	; 4
     b1c:	2c 17       	cp	r18, r28
     b1e:	3d 07       	cpc	r19, r29
     b20:	79 f7       	brne	.-34     	; 0xb00 <_ZN9ObjTimersC1EP9TimerBasej+0x6c>
     b22:	f7 01       	movw	r30, r14
     b24:	d1 83       	std	Z+1, r29	; 0x01
     b26:	c0 83       	st	Z, r28
     b28:	15 83       	std	Z+5, r17	; 0x05
     b2a:	04 83       	std	Z+4, r16	; 0x04
     b2c:	b7 01       	movw	r22, r14
     b2e:	c8 01       	movw	r24, r16
     b30:	df d6       	rcall	.+3518   	; 0x18f0 <_ZN9TimerBase12AssignObjectEP9ObjTimers>
     b32:	df 91       	pop	r29
     b34:	cf 91       	pop	r28
     b36:	1f 91       	pop	r17
     b38:	0f 91       	pop	r16
     b3a:	ff 90       	pop	r15
     b3c:	ef 90       	pop	r14
     b3e:	08 95       	ret

00000b40 <_ZN9ObjTimers10StartTimerEjm>:

//Initialize timer with value
void ObjTimers::StartTimer( unsigned int const t_indx, unsigned long t_time )
{
     b40:	cf 92       	push	r12
     b42:	df 92       	push	r13
     b44:	ef 92       	push	r14
     b46:	ff 92       	push	r15
     b48:	0f 93       	push	r16
     b4a:	1f 93       	push	r17
     b4c:	cf 93       	push	r28
     b4e:	df 93       	push	r29
     b50:	8c 01       	movw	r16, r24
     b52:	eb 01       	movw	r28, r22
     b54:	69 01       	movw	r12, r18
     b56:	7a 01       	movw	r14, r20
  if( t_indx >= TimerNum ) SysError( 0 );
     b58:	fc 01       	movw	r30, r24
     b5a:	80 81       	ld	r24, Z
     b5c:	91 81       	ldd	r25, Z+1	; 0x01
     b5e:	68 17       	cp	r22, r24
     b60:	79 07       	cpc	r23, r25
     b62:	20 f0       	brcs	.+8      	; 0xb6c <_ZN9ObjTimers10StartTimerEjm+0x2c>
     b64:	60 e0       	ldi	r22, 0x00	; 0
     b66:	70 e0       	ldi	r23, 0x00	; 0
     b68:	c8 01       	movw	r24, r16
     b6a:	d3 d3       	rcall	.+1958   	; 0x1312 <_ZN11SystemError8SysErrorEj>
  if( ObjectTimers == 0 ) SysError( 0 );
     b6c:	f8 01       	movw	r30, r16
     b6e:	82 81       	ldd	r24, Z+2	; 0x02
     b70:	93 81       	ldd	r25, Z+3	; 0x03
     b72:	89 2b       	or	r24, r25
     b74:	21 f4       	brne	.+8      	; 0xb7e <_ZN9ObjTimers10StartTimerEjm+0x3e>
     b76:	60 e0       	ldi	r22, 0x00	; 0
     b78:	70 e0       	ldi	r23, 0x00	; 0
     b7a:	c8 01       	movw	r24, r16
     b7c:	ca d3       	rcall	.+1940   	; 0x1312 <_ZN11SystemError8SysErrorEj>

  ObjectTimers[t_indx] = t_time;
     b7e:	cc 0f       	add	r28, r28
     b80:	dd 1f       	adc	r29, r29
     b82:	cc 0f       	add	r28, r28
     b84:	dd 1f       	adc	r29, r29
     b86:	f8 01       	movw	r30, r16
     b88:	82 81       	ldd	r24, Z+2	; 0x02
     b8a:	93 81       	ldd	r25, Z+3	; 0x03
     b8c:	c8 0f       	add	r28, r24
     b8e:	d9 1f       	adc	r29, r25
     b90:	c8 82       	st	Y, r12
     b92:	d9 82       	std	Y+1, r13	; 0x01
     b94:	ea 82       	std	Y+2, r14	; 0x02
     b96:	fb 82       	std	Y+3, r15	; 0x03
}
     b98:	df 91       	pop	r29
     b9a:	cf 91       	pop	r28
     b9c:	1f 91       	pop	r17
     b9e:	0f 91       	pop	r16
     ba0:	ff 90       	pop	r15
     ba2:	ef 90       	pop	r14
     ba4:	df 90       	pop	r13
     ba6:	cf 90       	pop	r12
     ba8:	08 95       	ret

00000baa <_ZN9ObjTimers9TimerDoneEj>:

//Check if the timer is done.
unsigned int ObjTimers::TimerDone( unsigned int const t_indx )
{
     baa:	0f 93       	push	r16
     bac:	1f 93       	push	r17
     bae:	cf 93       	push	r28
     bb0:	df 93       	push	r29
     bb2:	8c 01       	movw	r16, r24
     bb4:	eb 01       	movw	r28, r22
  if( t_indx >= TimerNum ) SysError( 0 );
     bb6:	fc 01       	movw	r30, r24
     bb8:	80 81       	ld	r24, Z
     bba:	91 81       	ldd	r25, Z+1	; 0x01
     bbc:	68 17       	cp	r22, r24
     bbe:	79 07       	cpc	r23, r25
     bc0:	20 f0       	brcs	.+8      	; 0xbca <_ZN9ObjTimers9TimerDoneEj+0x20>
     bc2:	60 e0       	ldi	r22, 0x00	; 0
     bc4:	70 e0       	ldi	r23, 0x00	; 0
     bc6:	c8 01       	movw	r24, r16
     bc8:	a4 d3       	rcall	.+1864   	; 0x1312 <_ZN11SystemError8SysErrorEj>
  if( ObjectTimers == 0 ) SysError( 0 );
     bca:	f8 01       	movw	r30, r16
     bcc:	82 81       	ldd	r24, Z+2	; 0x02
     bce:	93 81       	ldd	r25, Z+3	; 0x03
     bd0:	89 2b       	or	r24, r25
     bd2:	21 f4       	brne	.+8      	; 0xbdc <_ZN9ObjTimers9TimerDoneEj+0x32>
     bd4:	60 e0       	ldi	r22, 0x00	; 0
     bd6:	70 e0       	ldi	r23, 0x00	; 0
     bd8:	c8 01       	movw	r24, r16
     bda:	9b d3       	rcall	.+1846   	; 0x1312 <_ZN11SystemError8SysErrorEj>

  if( ObjectTimers[t_indx] == 0 )
     bdc:	cc 0f       	add	r28, r28
     bde:	dd 1f       	adc	r29, r29
     be0:	cc 0f       	add	r28, r28
     be2:	dd 1f       	adc	r29, r29
     be4:	f8 01       	movw	r30, r16
     be6:	82 81       	ldd	r24, Z+2	; 0x02
     be8:	93 81       	ldd	r25, Z+3	; 0x03
     bea:	c8 0f       	add	r28, r24
     bec:	d9 1f       	adc	r29, r25
     bee:	81 e0       	ldi	r24, 0x01	; 1
     bf0:	90 e0       	ldi	r25, 0x00	; 0
     bf2:	48 81       	ld	r20, Y
     bf4:	59 81       	ldd	r21, Y+1	; 0x01
     bf6:	6a 81       	ldd	r22, Y+2	; 0x02
     bf8:	7b 81       	ldd	r23, Y+3	; 0x03
     bfa:	45 2b       	or	r20, r21
     bfc:	46 2b       	or	r20, r22
     bfe:	47 2b       	or	r20, r23
     c00:	11 f0       	breq	.+4      	; 0xc06 <_ZN9ObjTimers9TimerDoneEj+0x5c>
     c02:	80 e0       	ldi	r24, 0x00	; 0
     c04:	90 e0       	ldi	r25, 0x00	; 0
    return true;

  return false;
}
     c06:	df 91       	pop	r29
     c08:	cf 91       	pop	r28
     c0a:	1f 91       	pop	r17
     c0c:	0f 91       	pop	r16
     c0e:	08 95       	ret

00000c10 <_ZN9ObjTimers12UpdateTimersEv>:

//Decrement Timer Values
void ObjTimers::UpdateTimers( void )
{
     c10:	cf 93       	push	r28
     c12:	df 93       	push	r29
     c14:	ec 01       	movw	r28, r24
  if( ObjectTimers == 0 ) SysError( 0 );
     c16:	8a 81       	ldd	r24, Y+2	; 0x02
     c18:	9b 81       	ldd	r25, Y+3	; 0x03
     c1a:	89 2b       	or	r24, r25
     c1c:	21 f4       	brne	.+8      	; 0xc26 <_ZN9ObjTimers12UpdateTimersEv+0x16>
     c1e:	60 e0       	ldi	r22, 0x00	; 0
     c20:	70 e0       	ldi	r23, 0x00	; 0
     c22:	ce 01       	movw	r24, r28
     c24:	76 d3       	rcall	.+1772   	; 0x1312 <_ZN11SystemError8SysErrorEj>

  for( unsigned int i = 0; i < TimerNum; ++i )
     c26:	88 81       	ld	r24, Y
     c28:	99 81       	ldd	r25, Y+1	; 0x01
     c2a:	89 2b       	or	r24, r25
     c2c:	09 f1       	breq	.+66     	; 0xc70 <_ZN9ObjTimers12UpdateTimersEv+0x60>
     c2e:	20 e0       	ldi	r18, 0x00	; 0
     c30:	30 e0       	ldi	r19, 0x00	; 0
     c32:	80 e0       	ldi	r24, 0x00	; 0
     c34:	90 e0       	ldi	r25, 0x00	; 0
    if( ObjectTimers[i] != 0 )
     c36:	ea 81       	ldd	r30, Y+2	; 0x02
     c38:	fb 81       	ldd	r31, Y+3	; 0x03
     c3a:	e2 0f       	add	r30, r18
     c3c:	f3 1f       	adc	r31, r19
     c3e:	40 81       	ld	r20, Z
     c40:	51 81       	ldd	r21, Z+1	; 0x01
     c42:	62 81       	ldd	r22, Z+2	; 0x02
     c44:	73 81       	ldd	r23, Z+3	; 0x03
     c46:	41 15       	cp	r20, r1
     c48:	51 05       	cpc	r21, r1
     c4a:	61 05       	cpc	r22, r1
     c4c:	71 05       	cpc	r23, r1
     c4e:	41 f0       	breq	.+16     	; 0xc60 <_ZN9ObjTimers12UpdateTimersEv+0x50>
      --ObjectTimers[i];
     c50:	41 50       	subi	r20, 0x01	; 1
     c52:	51 09       	sbc	r21, r1
     c54:	61 09       	sbc	r22, r1
     c56:	71 09       	sbc	r23, r1
     c58:	40 83       	st	Z, r20
     c5a:	51 83       	std	Z+1, r21	; 0x01
     c5c:	62 83       	std	Z+2, r22	; 0x02
     c5e:	73 83       	std	Z+3, r23	; 0x03
//Decrement Timer Values
void ObjTimers::UpdateTimers( void )
{
  if( ObjectTimers == 0 ) SysError( 0 );

  for( unsigned int i = 0; i < TimerNum; ++i )
     c60:	01 96       	adiw	r24, 0x01	; 1
     c62:	2c 5f       	subi	r18, 0xFC	; 252
     c64:	3f 4f       	sbci	r19, 0xFF	; 255
     c66:	48 81       	ld	r20, Y
     c68:	59 81       	ldd	r21, Y+1	; 0x01
     c6a:	84 17       	cp	r24, r20
     c6c:	95 07       	cpc	r25, r21
     c6e:	18 f3       	brcs	.-58     	; 0xc36 <_ZN9ObjTimers12UpdateTimersEv+0x26>
    if( ObjectTimers[i] != 0 )
      --ObjectTimers[i];
}
     c70:	df 91       	pop	r29
     c72:	cf 91       	pop	r28
     c74:	08 95       	ret

00000c76 <_ZN5PMMIO11SetPortBitsEPVhhh>:

#include "pmmio.hpp"

void PMMIO::SetPortBits( volatile uint8_t *port, uint8_t bits, uint8_t mask )
{
  *((volatile uint8_t *) port) = (*((volatile uint8_t *) port) & (mask ^ 0xFF)) | bits;
     c76:	fb 01       	movw	r30, r22
     c78:	80 81       	ld	r24, Z
     c7a:	20 95       	com	r18
     c7c:	28 23       	and	r18, r24
     c7e:	24 2b       	or	r18, r20
     c80:	20 83       	st	Z, r18
     c82:	08 95       	ret

00000c84 <_ZN5PMMIO11GetPortBitsEPVhh>:
}


unsigned int PMMIO::GetPortBits( volatile uint8_t *port, uint8_t mask )
{
  return *((volatile uint8_t *) port) & mask;
     c84:	fb 01       	movw	r30, r22
     c86:	80 81       	ld	r24, Z
     c88:	84 23       	and	r24, r20
}
     c8a:	90 e0       	ldi	r25, 0x00	; 0
     c8c:	08 95       	ret

00000c8e <_ZN5PMMIO12Set16BitPortEPVjj>:


void PMMIO::Set16BitPort( volatile uint16_t *port, uint16_t val )
{
  *(volatile unsigned int *) port = val;
     c8e:	fb 01       	movw	r30, r22
     c90:	51 83       	std	Z+1, r21	; 0x01
     c92:	40 83       	st	Z, r20
     c94:	08 95       	ret

00000c96 <_ZN5PMMIO12Get16BitPortEPVj>:
}


unsigned long PMMIO::Get16BitPort( volatile uint16_t *port )
{
  return *(volatile unsigned int *) port;
     c96:	fb 01       	movw	r30, r22
     c98:	60 81       	ld	r22, Z
     c9a:	71 81       	ldd	r23, Z+1	; 0x01
     c9c:	80 e0       	ldi	r24, 0x00	; 0
     c9e:	90 e0       	ldi	r25, 0x00	; 0
}
     ca0:	08 95       	ret

00000ca2 <_ZN6PWMPFC12GetDutyCycleEv>:
	Description: Returns a 16 bit representation of the duty cycle.  
*/


unsigned int PWMPFC::GetDutyCycle( void )
{
     ca2:	cf 93       	push	r28
     ca4:	df 93       	push	r29
     ca6:	ec 01       	movw	r28, r24
  unsigned long dc;

  dc = Get16BitPort( OCR );
     ca8:	68 81       	ld	r22, Y
     caa:	79 81       	ldd	r23, Y+1	; 0x01
     cac:	f4 df       	rcall	.-24     	; 0xc96 <_ZN5PMMIO12Get16BitPortEPVj>

  if( dc > PWM_Max_DC ) SystemError(); // duty cycle out of bounds

  // dc = 100 - (dc / (PWM_Max_DC/100));
  dc = 100 - (dc >> PWM_Shift_DC);
     cae:	ab 01       	movw	r20, r22
     cb0:	bc 01       	movw	r22, r24
     cb2:	0e 80       	ldd	r0, Y+6	; 0x06
     cb4:	04 c0       	rjmp	.+8      	; 0xcbe <_ZN6PWMPFC12GetDutyCycleEv+0x1c>
     cb6:	76 95       	lsr	r23
     cb8:	67 95       	ror	r22
     cba:	57 95       	ror	r21
     cbc:	47 95       	ror	r20
     cbe:	0a 94       	dec	r0
     cc0:	d2 f7       	brpl	.-12     	; 0xcb6 <_ZN6PWMPFC12GetDutyCycleEv+0x14>
     cc2:	84 e6       	ldi	r24, 0x64	; 100
     cc4:	90 e0       	ldi	r25, 0x00	; 0
     cc6:	a0 e0       	ldi	r26, 0x00	; 0
     cc8:	b0 e0       	ldi	r27, 0x00	; 0
     cca:	84 1b       	sub	r24, r20
     ccc:	95 0b       	sbc	r25, r21
     cce:	a6 0b       	sbc	r26, r22
     cd0:	b7 0b       	sbc	r27, r23

  return dc;
}
     cd2:	df 91       	pop	r29
     cd4:	cf 91       	pop	r28
     cd6:	08 95       	ret

00000cd8 <_ZN6PWMPFC12SetDutyCycleEj>:
void PWMPFC::SetDutyCycle( unsigned int dc )
{
  unsigned long ocr_dc;

  // dc = PWM_Max_DC - (dc * (PWM_Max_DC/100));
  ocr_dc = PWM_Max_DC - (dc << PWM_Shift_DC);
     cd8:	9b 01       	movw	r18, r22
     cda:	fc 01       	movw	r30, r24
     cdc:	06 80       	ldd	r0, Z+6	; 0x06
     cde:	02 c0       	rjmp	.+4      	; 0xce4 <_ZN6PWMPFC12SetDutyCycleEj+0xc>
     ce0:	22 0f       	add	r18, r18
     ce2:	33 1f       	adc	r19, r19
     ce4:	0a 94       	dec	r0
     ce6:	e2 f7       	brpl	.-8      	; 0xce0 <_ZN6PWMPFC12SetDutyCycleEj+0x8>
     ce8:	42 81       	ldd	r20, Z+2	; 0x02
     cea:	53 81       	ldd	r21, Z+3	; 0x03
     cec:	64 81       	ldd	r22, Z+4	; 0x04
     cee:	75 81       	ldd	r23, Z+5	; 0x05
     cf0:	42 1b       	sub	r20, r18
     cf2:	53 0b       	sbc	r21, r19
     cf4:	61 09       	sbc	r22, r1
     cf6:	71 09       	sbc	r23, r1

  if( ocr_dc > PWM_Max_DC ) SystemError();   // duty cycle out of bounds

  Set16BitPort( OCR, ocr_dc );               // set PWM duty cycle
     cf8:	20 81       	ld	r18, Z
     cfa:	31 81       	ldd	r19, Z+1	; 0x01
     cfc:	b9 01       	movw	r22, r18
     cfe:	c7 cf       	rjmp	.-114    	; 0xc8e <_ZN5PMMIO12Set16BitPortEPVjj>
     d00:	08 95       	ret

00000d02 <_ZN4RF243csnEh>:
  {
    // '00' = 1MBPS
    result = RF24_1MBPS ;
  }
  return result ;
}
     d02:	1f 93       	push	r17
     d04:	cf 93       	push	r28
     d06:	df 93       	push	r29
     d08:	ec 01       	movw	r28, r24
     d0a:	16 2f       	mov	r17, r22
     d0c:	61 e0       	ldi	r22, 0x01	; 1
     d0e:	8a 85       	ldd	r24, Y+10	; 0x0a
     d10:	9b 85       	ldd	r25, Y+11	; 0x0b
     d12:	e1 d2       	rcall	.+1474   	; 0x12d6 <_ZN8SPIClass11setBitOrderEh>
     d14:	60 e0       	ldi	r22, 0x00	; 0
     d16:	8a 85       	ldd	r24, Y+10	; 0x0a
     d18:	9b 85       	ldd	r25, Y+11	; 0x0b
     d1a:	e7 d2       	rcall	.+1486   	; 0x12ea <_ZN8SPIClass11setDataModeEh>
     d1c:	60 e0       	ldi	r22, 0x00	; 0
     d1e:	8a 85       	ldd	r24, Y+10	; 0x0a
     d20:	9b 85       	ldd	r25, Y+11	; 0x0b
     d22:	e8 d2       	rcall	.+1488   	; 0x12f4 <_ZN8SPIClass15setClockDividerEh>
     d24:	6e 81       	ldd	r22, Y+6	; 0x06
     d26:	7f 81       	ldd	r23, Y+7	; 0x07
     d28:	2c 8d       	ldd	r18, Y+28	; 0x1c
     d2a:	41 2f       	mov	r20, r17
     d2c:	ce 01       	movw	r24, r28
     d2e:	a3 df       	rcall	.-186    	; 0xc76 <_ZN5PMMIO11SetPortBitsEPVhhh>
     d30:	df 91       	pop	r29
     d32:	cf 91       	pop	r28
     d34:	1f 91       	pop	r17
     d36:	08 95       	ret

00000d38 <_ZN4RF242ceEh>:
     d38:	46 2f       	mov	r20, r22
     d3a:	fc 01       	movw	r30, r24
     d3c:	62 81       	ldd	r22, Z+2	; 0x02
     d3e:	73 81       	ldd	r23, Z+3	; 0x03
     d40:	27 8d       	ldd	r18, Z+31	; 0x1f
     d42:	99 cf       	rjmp	.-206    	; 0xc76 <_ZN5PMMIO11SetPortBitsEPVhhh>
     d44:	08 95       	ret

00000d46 <_ZN4RF2413read_registerEh>:
     d46:	1f 93       	push	r17
     d48:	cf 93       	push	r28
     d4a:	df 93       	push	r29
     d4c:	ec 01       	movw	r28, r24
     d4e:	16 2f       	mov	r17, r22
     d50:	6a 8d       	ldd	r22, Y+26	; 0x1a
     d52:	d7 df       	rcall	.-82     	; 0xd02 <_ZN4RF243csnEh>
     d54:	1f 71       	andi	r17, 0x1F	; 31
     d56:	1e bd       	out	0x2e, r17	; 46
     d58:	0d b4       	in	r0, 0x2d	; 45
     d5a:	07 fe       	sbrs	r0, 7
     d5c:	fd cf       	rjmp	.-6      	; 0xd58 <_ZN4RF2413read_registerEh+0x12>
     d5e:	8e b5       	in	r24, 0x2e	; 46
     d60:	8f ef       	ldi	r24, 0xFF	; 255
     d62:	8e bd       	out	0x2e, r24	; 46
     d64:	0d b4       	in	r0, 0x2d	; 45
     d66:	07 fe       	sbrs	r0, 7
     d68:	fd cf       	rjmp	.-6      	; 0xd64 <_ZN4RF2413read_registerEh+0x1e>
     d6a:	1e b5       	in	r17, 0x2e	; 46
     d6c:	6b 8d       	ldd	r22, Y+27	; 0x1b
     d6e:	ce 01       	movw	r24, r28
     d70:	c8 df       	rcall	.-112    	; 0xd02 <_ZN4RF243csnEh>
     d72:	81 2f       	mov	r24, r17
     d74:	df 91       	pop	r29
     d76:	cf 91       	pop	r28
     d78:	1f 91       	pop	r17
     d7a:	08 95       	ret

00000d7c <_ZN4RF2414write_registerEhPKhh>:
     d7c:	ef 92       	push	r14
     d7e:	ff 92       	push	r15
     d80:	0f 93       	push	r16
     d82:	1f 93       	push	r17
     d84:	cf 93       	push	r28
     d86:	df 93       	push	r29
     d88:	8c 01       	movw	r16, r24
     d8a:	c6 2f       	mov	r28, r22
     d8c:	e4 2e       	mov	r14, r20
     d8e:	f5 2e       	mov	r15, r21
     d90:	d2 2f       	mov	r29, r18
     d92:	fc 01       	movw	r30, r24
     d94:	62 8d       	ldd	r22, Z+26	; 0x1a
     d96:	b5 df       	rcall	.-150    	; 0xd02 <_ZN4RF243csnEh>
     d98:	cf 71       	andi	r28, 0x1F	; 31
     d9a:	c0 62       	ori	r28, 0x20	; 32
     d9c:	ce bd       	out	0x2e, r28	; 46
     d9e:	0d b4       	in	r0, 0x2d	; 45
     da0:	07 fe       	sbrs	r0, 7
     da2:	fd cf       	rjmp	.-6      	; 0xd9e <_ZN4RF2414write_registerEhPKhh+0x22>
     da4:	ce b5       	in	r28, 0x2e	; 46
     da6:	9f ef       	ldi	r25, 0xFF	; 255
     da8:	9d 0f       	add	r25, r29
     daa:	dd 23       	and	r29, r29
     dac:	51 f0       	breq	.+20     	; 0xdc2 <_ZN4RF2414write_registerEhPKhh+0x46>
     dae:	ee 2d       	mov	r30, r14
     db0:	ff 2d       	mov	r31, r15
     db2:	21 91       	ld	r18, Z+
     db4:	2e bd       	out	0x2e, r18	; 46
     db6:	0d b4       	in	r0, 0x2d	; 45
     db8:	07 fe       	sbrs	r0, 7
     dba:	fd cf       	rjmp	.-6      	; 0xdb6 <_ZN4RF2414write_registerEhPKhh+0x3a>
     dbc:	2e b5       	in	r18, 0x2e	; 46
     dbe:	91 50       	subi	r25, 0x01	; 1
     dc0:	c0 f7       	brcc	.-16     	; 0xdb2 <_ZN4RF2414write_registerEhPKhh+0x36>
     dc2:	f8 01       	movw	r30, r16
     dc4:	63 8d       	ldd	r22, Z+27	; 0x1b
     dc6:	c8 01       	movw	r24, r16
     dc8:	9c df       	rcall	.-200    	; 0xd02 <_ZN4RF243csnEh>
     dca:	8c 2f       	mov	r24, r28
     dcc:	df 91       	pop	r29
     dce:	cf 91       	pop	r28
     dd0:	1f 91       	pop	r17
     dd2:	0f 91       	pop	r16
     dd4:	ff 90       	pop	r15
     dd6:	ef 90       	pop	r14
     dd8:	08 95       	ret

00000dda <_ZN4RF2414write_registerEhh>:
     dda:	0f 93       	push	r16
     ddc:	1f 93       	push	r17
     dde:	cf 93       	push	r28
     de0:	df 93       	push	r29
     de2:	8c 01       	movw	r16, r24
     de4:	c6 2f       	mov	r28, r22
     de6:	d4 2f       	mov	r29, r20
     de8:	fc 01       	movw	r30, r24
     dea:	62 8d       	ldd	r22, Z+26	; 0x1a
     dec:	8a df       	rcall	.-236    	; 0xd02 <_ZN4RF243csnEh>
     dee:	cf 71       	andi	r28, 0x1F	; 31
     df0:	c0 62       	ori	r28, 0x20	; 32
     df2:	ce bd       	out	0x2e, r28	; 46
     df4:	0d b4       	in	r0, 0x2d	; 45
     df6:	07 fe       	sbrs	r0, 7
     df8:	fd cf       	rjmp	.-6      	; 0xdf4 <_ZN4RF2414write_registerEhh+0x1a>
     dfa:	ce b5       	in	r28, 0x2e	; 46
     dfc:	de bd       	out	0x2e, r29	; 46
     dfe:	0d b4       	in	r0, 0x2d	; 45
     e00:	07 fe       	sbrs	r0, 7
     e02:	fd cf       	rjmp	.-6      	; 0xdfe <_ZN4RF2414write_registerEhh+0x24>
     e04:	8e b5       	in	r24, 0x2e	; 46
     e06:	f8 01       	movw	r30, r16
     e08:	63 8d       	ldd	r22, Z+27	; 0x1b
     e0a:	c8 01       	movw	r24, r16
     e0c:	7a df       	rcall	.-268    	; 0xd02 <_ZN4RF243csnEh>
     e0e:	8c 2f       	mov	r24, r28
     e10:	df 91       	pop	r29
     e12:	cf 91       	pop	r28
     e14:	1f 91       	pop	r17
     e16:	0f 91       	pop	r16
     e18:	08 95       	ret

00000e1a <_ZN4RF2412read_payloadEPvh>:
     e1a:	df 92       	push	r13
     e1c:	ef 92       	push	r14
     e1e:	ff 92       	push	r15
     e20:	0f 93       	push	r16
     e22:	1f 93       	push	r17
     e24:	cf 93       	push	r28
     e26:	df 93       	push	r29
     e28:	ec 01       	movw	r28, r24
     e2a:	d6 2e       	mov	r13, r22
     e2c:	e7 2e       	mov	r14, r23
     e2e:	0e 85       	ldd	r16, Y+14	; 0x0e
     e30:	14 2f       	mov	r17, r20
     e32:	04 17       	cp	r16, r20
     e34:	08 f4       	brcc	.+2      	; 0xe38 <_ZN4RF2412read_payloadEPvh+0x1e>
     e36:	10 2f       	mov	r17, r16
     e38:	88 89       	ldd	r24, Y+16	; 0x10
     e3a:	81 11       	cpse	r24, r1
     e3c:	02 c0       	rjmp	.+4      	; 0xe42 <_ZN4RF2412read_payloadEPvh+0x28>
     e3e:	01 1b       	sub	r16, r17
     e40:	01 c0       	rjmp	.+2      	; 0xe44 <_ZN4RF2412read_payloadEPvh+0x2a>
     e42:	00 e0       	ldi	r16, 0x00	; 0
     e44:	6a 8d       	ldd	r22, Y+26	; 0x1a
     e46:	ce 01       	movw	r24, r28
     e48:	5c df       	rcall	.-328    	; 0xd02 <_ZN4RF243csnEh>
     e4a:	81 e6       	ldi	r24, 0x61	; 97
     e4c:	8e bd       	out	0x2e, r24	; 46
     e4e:	0d b4       	in	r0, 0x2d	; 45
     e50:	07 fe       	sbrs	r0, 7
     e52:	fd cf       	rjmp	.-6      	; 0xe4e <_ZN4RF2412read_payloadEPvh+0x34>
     e54:	fe b4       	in	r15, 0x2e	; 46
     e56:	9f ef       	ldi	r25, 0xFF	; 255
     e58:	91 0f       	add	r25, r17
     e5a:	11 23       	and	r17, r17
     e5c:	59 f0       	breq	.+22     	; 0xe74 <_ZN4RF2412read_payloadEPvh+0x5a>
     e5e:	ed 2d       	mov	r30, r13
     e60:	fe 2d       	mov	r31, r14
     e62:	3f ef       	ldi	r19, 0xFF	; 255
     e64:	3e bd       	out	0x2e, r19	; 46
     e66:	0d b4       	in	r0, 0x2d	; 45
     e68:	07 fe       	sbrs	r0, 7
     e6a:	fd cf       	rjmp	.-6      	; 0xe66 <_ZN4RF2412read_payloadEPvh+0x4c>
     e6c:	2e b5       	in	r18, 0x2e	; 46
     e6e:	21 93       	st	Z+, r18
     e70:	91 50       	subi	r25, 0x01	; 1
     e72:	c0 f7       	brcc	.-16     	; 0xe64 <_ZN4RF2412read_payloadEPvh+0x4a>
     e74:	9f ef       	ldi	r25, 0xFF	; 255
     e76:	90 0f       	add	r25, r16
     e78:	00 23       	and	r16, r16
     e7a:	41 f0       	breq	.+16     	; 0xe8c <_ZN4RF2412read_payloadEPvh+0x72>
     e7c:	2f ef       	ldi	r18, 0xFF	; 255
     e7e:	2e bd       	out	0x2e, r18	; 46
     e80:	0d b4       	in	r0, 0x2d	; 45
     e82:	07 fe       	sbrs	r0, 7
     e84:	fd cf       	rjmp	.-6      	; 0xe80 <_ZN4RF2412read_payloadEPvh+0x66>
     e86:	3e b5       	in	r19, 0x2e	; 46
     e88:	91 50       	subi	r25, 0x01	; 1
     e8a:	c8 f7       	brcc	.-14     	; 0xe7e <_ZN4RF2412read_payloadEPvh+0x64>
     e8c:	6b 8d       	ldd	r22, Y+27	; 0x1b
     e8e:	ce 01       	movw	r24, r28
     e90:	38 df       	rcall	.-400    	; 0xd02 <_ZN4RF243csnEh>
     e92:	8f 2d       	mov	r24, r15
     e94:	df 91       	pop	r29
     e96:	cf 91       	pop	r28
     e98:	1f 91       	pop	r17
     e9a:	0f 91       	pop	r16
     e9c:	ff 90       	pop	r15
     e9e:	ef 90       	pop	r14
     ea0:	df 90       	pop	r13
     ea2:	08 95       	ret

00000ea4 <_ZN4RF248flush_rxEv>:
     ea4:	1f 93       	push	r17
     ea6:	cf 93       	push	r28
     ea8:	df 93       	push	r29
     eaa:	ec 01       	movw	r28, r24
     eac:	6a 8d       	ldd	r22, Y+26	; 0x1a
     eae:	29 df       	rcall	.-430    	; 0xd02 <_ZN4RF243csnEh>
     eb0:	82 ee       	ldi	r24, 0xE2	; 226
     eb2:	8e bd       	out	0x2e, r24	; 46
     eb4:	0d b4       	in	r0, 0x2d	; 45
     eb6:	07 fe       	sbrs	r0, 7
     eb8:	fd cf       	rjmp	.-6      	; 0xeb4 <_ZN4RF248flush_rxEv+0x10>
     eba:	1e b5       	in	r17, 0x2e	; 46
     ebc:	6b 8d       	ldd	r22, Y+27	; 0x1b
     ebe:	ce 01       	movw	r24, r28
     ec0:	20 df       	rcall	.-448    	; 0xd02 <_ZN4RF243csnEh>
     ec2:	81 2f       	mov	r24, r17
     ec4:	df 91       	pop	r29
     ec6:	cf 91       	pop	r28
     ec8:	1f 91       	pop	r17
     eca:	08 95       	ret

00000ecc <_ZN4RF248flush_txEv>:
     ecc:	1f 93       	push	r17
     ece:	cf 93       	push	r28
     ed0:	df 93       	push	r29
     ed2:	ec 01       	movw	r28, r24
     ed4:	6a 8d       	ldd	r22, Y+26	; 0x1a
     ed6:	15 df       	rcall	.-470    	; 0xd02 <_ZN4RF243csnEh>
     ed8:	81 ee       	ldi	r24, 0xE1	; 225
     eda:	8e bd       	out	0x2e, r24	; 46
     edc:	0d b4       	in	r0, 0x2d	; 45
     ede:	07 fe       	sbrs	r0, 7
     ee0:	fd cf       	rjmp	.-6      	; 0xedc <_ZN4RF248flush_txEv+0x10>
     ee2:	1e b5       	in	r17, 0x2e	; 46
     ee4:	6b 8d       	ldd	r22, Y+27	; 0x1b
     ee6:	ce 01       	movw	r24, r28
     ee8:	0c df       	rcall	.-488    	; 0xd02 <_ZN4RF243csnEh>
     eea:	81 2f       	mov	r24, r17
     eec:	df 91       	pop	r29
     eee:	cf 91       	pop	r28
     ef0:	1f 91       	pop	r17
     ef2:	08 95       	ret

00000ef4 <_ZN4RF2410get_statusEv>:
     ef4:	1f 93       	push	r17
     ef6:	cf 93       	push	r28
     ef8:	df 93       	push	r29
     efa:	ec 01       	movw	r28, r24
     efc:	6a 8d       	ldd	r22, Y+26	; 0x1a
     efe:	01 df       	rcall	.-510    	; 0xd02 <_ZN4RF243csnEh>
     f00:	8f ef       	ldi	r24, 0xFF	; 255
     f02:	8e bd       	out	0x2e, r24	; 46
     f04:	0d b4       	in	r0, 0x2d	; 45
     f06:	07 fe       	sbrs	r0, 7
     f08:	fd cf       	rjmp	.-6      	; 0xf04 <_ZN4RF2410get_statusEv+0x10>
     f0a:	1e b5       	in	r17, 0x2e	; 46
     f0c:	6b 8d       	ldd	r22, Y+27	; 0x1b
     f0e:	ce 01       	movw	r24, r28
     f10:	f8 de       	rcall	.-528    	; 0xd02 <_ZN4RF243csnEh>
     f12:	81 2f       	mov	r24, r17
     f14:	df 91       	pop	r29
     f16:	cf 91       	pop	r28
     f18:	1f 91       	pop	r17
     f1a:	08 95       	ret

00000f1c <_ZN4RF24C1EPVhS1_hS1_S1_hP8SPIClass>:
     f1c:	af 92       	push	r10
     f1e:	bf 92       	push	r11
     f20:	cf 92       	push	r12
     f22:	ef 92       	push	r14
     f24:	ff 92       	push	r15
     f26:	0f 93       	push	r16
     f28:	1f 93       	push	r17
     f2a:	fc 01       	movw	r30, r24
     f2c:	20 83       	st	Z, r18
     f2e:	c1 82       	std	Z+1, r12	; 0x01
     f30:	73 83       	std	Z+3, r23	; 0x03
     f32:	62 83       	std	Z+2, r22	; 0x02
     f34:	55 83       	std	Z+5, r21	; 0x05
     f36:	44 83       	std	Z+4, r20	; 0x04
     f38:	17 83       	std	Z+7, r17	; 0x07
     f3a:	06 83       	std	Z+6, r16	; 0x06
     f3c:	f1 86       	std	Z+9, r15	; 0x09
     f3e:	e0 86       	std	Z+8, r14	; 0x08
     f40:	b3 86       	std	Z+11, r11	; 0x0b
     f42:	a2 86       	std	Z+10, r10	; 0x0a
     f44:	81 e0       	ldi	r24, 0x01	; 1
     f46:	84 87       	std	Z+12, r24	; 0x0c
     f48:	15 86       	std	Z+13, r1	; 0x0d
     f4a:	80 e2       	ldi	r24, 0x20	; 32
     f4c:	86 87       	std	Z+14, r24	; 0x0e
     f4e:	17 86       	std	Z+15, r1	; 0x0f
     f50:	10 8a       	std	Z+16, r1	; 0x10
     f52:	12 8a       	std	Z+18, r1	; 0x12
     f54:	13 8a       	std	Z+19, r1	; 0x13
     f56:	14 8a       	std	Z+20, r1	; 0x14
     f58:	15 8a       	std	Z+21, r1	; 0x15
     f5a:	16 8a       	std	Z+22, r1	; 0x16
     f5c:	17 8a       	std	Z+23, r1	; 0x17
     f5e:	10 8e       	std	Z+24, r1	; 0x18
     f60:	11 8e       	std	Z+25, r1	; 0x19
     f62:	12 8e       	std	Z+26, r1	; 0x1a
     f64:	c3 8e       	std	Z+27, r12	; 0x1b
     f66:	c4 8e       	std	Z+28, r12	; 0x1c
     f68:	15 8e       	std	Z+29, r1	; 0x1d
     f6a:	26 8f       	std	Z+30, r18	; 0x1e
     f6c:	27 8f       	std	Z+31, r18	; 0x1f
     f6e:	10 a2       	std	Z+32, r1	; 0x20
     f70:	1f 91       	pop	r17
     f72:	0f 91       	pop	r16
     f74:	ff 90       	pop	r15
     f76:	ef 90       	pop	r14
     f78:	cf 90       	pop	r12
     f7a:	bf 90       	pop	r11
     f7c:	af 90       	pop	r10
     f7e:	08 95       	ret

00000f80 <_ZN4RF2410setChannelEh>:
     f80:	46 2f       	mov	r20, r22
     f82:	60 38       	cpi	r22, 0x80	; 128
     f84:	08 f0       	brcs	.+2      	; 0xf88 <_ZN4RF2410setChannelEh+0x8>
     f86:	4f e7       	ldi	r20, 0x7F	; 127
     f88:	65 e0       	ldi	r22, 0x05	; 5
     f8a:	27 cf       	rjmp	.-434    	; 0xdda <_ZN4RF2414write_registerEhh>
     f8c:	08 95       	ret

00000f8e <_ZN4RF2414startListeningEv>:
     f8e:	cf 93       	push	r28
     f90:	df 93       	push	r29
     f92:	ec 01       	movw	r28, r24
     f94:	60 e0       	ldi	r22, 0x00	; 0
     f96:	d7 de       	rcall	.-594    	; 0xd46 <_ZN4RF2413read_registerEh>
     f98:	48 2f       	mov	r20, r24
     f9a:	43 60       	ori	r20, 0x03	; 3
     f9c:	60 e0       	ldi	r22, 0x00	; 0
     f9e:	ce 01       	movw	r24, r28
     fa0:	1c df       	rcall	.-456    	; 0xdda <_ZN4RF2414write_registerEhh>
     fa2:	40 e7       	ldi	r20, 0x70	; 112
     fa4:	67 e0       	ldi	r22, 0x07	; 7
     fa6:	ce 01       	movw	r24, r28
     fa8:	18 df       	rcall	.-464    	; 0xdda <_ZN4RF2414write_registerEhh>
     faa:	2a 89       	ldd	r18, Y+18	; 0x12
     fac:	3b 89       	ldd	r19, Y+19	; 0x13
     fae:	4c 89       	ldd	r20, Y+20	; 0x14
     fb0:	5d 89       	ldd	r21, Y+21	; 0x15
     fb2:	6e 89       	ldd	r22, Y+22	; 0x16
     fb4:	7f 89       	ldd	r23, Y+23	; 0x17
     fb6:	88 8d       	ldd	r24, Y+24	; 0x18
     fb8:	99 8d       	ldd	r25, Y+25	; 0x19
     fba:	a0 e0       	ldi	r26, 0x00	; 0
     fbc:	16 d5       	rcall	.+2604   	; 0x19ea <__cmpdi2_s8>
     fbe:	39 f0       	breq	.+14     	; 0xfce <_ZN4RF2414startListeningEv+0x40>
     fc0:	25 e0       	ldi	r18, 0x05	; 5
     fc2:	ae 01       	movw	r20, r28
     fc4:	4e 5e       	subi	r20, 0xEE	; 238
     fc6:	5f 4f       	sbci	r21, 0xFF	; 255
     fc8:	6a e0       	ldi	r22, 0x0A	; 10
     fca:	ce 01       	movw	r24, r28
     fcc:	d7 de       	rcall	.-594    	; 0xd7c <_ZN4RF2414write_registerEhPKhh>
     fce:	ce 01       	movw	r24, r28
     fd0:	69 df       	rcall	.-302    	; 0xea4 <_ZN4RF248flush_rxEv>
     fd2:	ce 01       	movw	r24, r28
     fd4:	7b df       	rcall	.-266    	; 0xecc <_ZN4RF248flush_txEv>
     fd6:	6e 8d       	ldd	r22, Y+30	; 0x1e
     fd8:	ce 01       	movw	r24, r28
     fda:	ae de       	rcall	.-676    	; 0xd38 <_ZN4RF242ceEh>
     fdc:	87 e0       	ldi	r24, 0x07	; 7
     fde:	92 e0       	ldi	r25, 0x02	; 2
     fe0:	01 97       	sbiw	r24, 0x01	; 1
     fe2:	f1 f7       	brne	.-4      	; 0xfe0 <_ZN4RF2414startListeningEv+0x52>
     fe4:	00 c0       	rjmp	.+0      	; 0xfe6 <_ZN4RF2414startListeningEv+0x58>
     fe6:	00 00       	nop
     fe8:	df 91       	pop	r29
     fea:	cf 91       	pop	r28
     fec:	08 95       	ret

00000fee <_ZN4RF249availableEPh>:
     fee:	ef 92       	push	r14
     ff0:	ff 92       	push	r15
     ff2:	0f 93       	push	r16
     ff4:	1f 93       	push	r17
     ff6:	cf 93       	push	r28
     ff8:	df 93       	push	r29
     ffa:	8c 01       	movw	r16, r24
     ffc:	7b 01       	movw	r14, r22
     ffe:	7a df       	rcall	.-268    	; 0xef4 <_ZN4RF2410get_statusEv>
    1000:	c8 2f       	mov	r28, r24
    1002:	86 fb       	bst	r24, 6
    1004:	dd 27       	eor	r29, r29
    1006:	d0 f9       	bld	r29, 0
    1008:	86 ff       	sbrs	r24, 6
    100a:	14 c0       	rjmp	.+40     	; 0x1034 <_ZN4RF249availableEPh+0x46>
    100c:	e1 14       	cp	r14, r1
    100e:	f1 04       	cpc	r15, r1
    1010:	39 f0       	breq	.+14     	; 0x1020 <_ZN4RF249availableEPh+0x32>
    1012:	28 2f       	mov	r18, r24
    1014:	30 e0       	ldi	r19, 0x00	; 0
    1016:	35 95       	asr	r19
    1018:	27 95       	ror	r18
    101a:	27 70       	andi	r18, 0x07	; 7
    101c:	f7 01       	movw	r30, r14
    101e:	20 83       	st	Z, r18
    1020:	40 e4       	ldi	r20, 0x40	; 64
    1022:	67 e0       	ldi	r22, 0x07	; 7
    1024:	c8 01       	movw	r24, r16
    1026:	d9 de       	rcall	.-590    	; 0xdda <_ZN4RF2414write_registerEhh>
    1028:	c5 ff       	sbrs	r28, 5
    102a:	04 c0       	rjmp	.+8      	; 0x1034 <_ZN4RF249availableEPh+0x46>
    102c:	40 e2       	ldi	r20, 0x20	; 32
    102e:	67 e0       	ldi	r22, 0x07	; 7
    1030:	c8 01       	movw	r24, r16
    1032:	d3 de       	rcall	.-602    	; 0xdda <_ZN4RF2414write_registerEhh>
    1034:	8d 2f       	mov	r24, r29
    1036:	df 91       	pop	r29
    1038:	cf 91       	pop	r28
    103a:	1f 91       	pop	r17
    103c:	0f 91       	pop	r16
    103e:	ff 90       	pop	r15
    1040:	ef 90       	pop	r14
    1042:	08 95       	ret

00001044 <_ZN4RF249availableEv>:
    1044:	60 e0       	ldi	r22, 0x00	; 0
    1046:	70 e0       	ldi	r23, 0x00	; 0
    1048:	d2 cf       	rjmp	.-92     	; 0xfee <_ZN4RF249availableEPh>
    104a:	08 95       	ret

0000104c <_ZN4RF244readEPvh>:
    104c:	cf 93       	push	r28
    104e:	df 93       	push	r29
    1050:	ec 01       	movw	r28, r24
    1052:	e3 de       	rcall	.-570    	; 0xe1a <_ZN4RF2412read_payloadEPvh>
    1054:	67 e1       	ldi	r22, 0x17	; 23
    1056:	ce 01       	movw	r24, r28
    1058:	76 de       	rcall	.-788    	; 0xd46 <_ZN4RF2413read_registerEh>
    105a:	81 70       	andi	r24, 0x01	; 1
    105c:	df 91       	pop	r29
    105e:	cf 91       	pop	r28
    1060:	08 95       	ret

00001062 <_ZN4RF2415openReadingPipeEhy>:
    1062:	af 92       	push	r10
    1064:	bf 92       	push	r11
    1066:	df 92       	push	r13
    1068:	ef 92       	push	r14
    106a:	ff 92       	push	r15
    106c:	0f 93       	push	r16
    106e:	1f 93       	push	r17
    1070:	cf 93       	push	r28
    1072:	df 93       	push	r29
    1074:	cd b7       	in	r28, 0x3d	; 61
    1076:	de b7       	in	r29, 0x3e	; 62
    1078:	28 97       	sbiw	r28, 0x08	; 8
    107a:	0f b6       	in	r0, 0x3f	; 63
    107c:	f8 94       	cli
    107e:	de bf       	out	0x3e, r29	; 62
    1080:	0f be       	out	0x3f, r0	; 63
    1082:	cd bf       	out	0x3d, r28	; 61
    1084:	5c 01       	movw	r10, r24
    1086:	d6 2e       	mov	r13, r22
    1088:	e9 82       	std	Y+1, r14	; 0x01
    108a:	fa 82       	std	Y+2, r15	; 0x02
    108c:	0b 83       	std	Y+3, r16	; 0x03
    108e:	1c 83       	std	Y+4, r17	; 0x04
    1090:	2d 83       	std	Y+5, r18	; 0x05
    1092:	3e 83       	std	Y+6, r19	; 0x06
    1094:	4f 83       	std	Y+7, r20	; 0x07
    1096:	58 87       	std	Y+8, r21	; 0x08
    1098:	61 11       	cpse	r22, r1
    109a:	0a c0       	rjmp	.+20     	; 0x10b0 <_ZN4RF2415openReadingPipeEhy+0x4e>
    109c:	f5 01       	movw	r30, r10
    109e:	e2 8a       	std	Z+18, r14	; 0x12
    10a0:	f3 8a       	std	Z+19, r15	; 0x13
    10a2:	04 8b       	std	Z+20, r16	; 0x14
    10a4:	15 8b       	std	Z+21, r17	; 0x15
    10a6:	26 8b       	std	Z+22, r18	; 0x16
    10a8:	37 8b       	std	Z+23, r19	; 0x17
    10aa:	40 8f       	std	Z+24, r20	; 0x18
    10ac:	51 8f       	std	Z+25, r21	; 0x19
    10ae:	07 c0       	rjmp	.+14     	; 0x10be <_ZN4RF2415openReadingPipeEhy+0x5c>
    10b0:	f6 e0       	ldi	r31, 0x06	; 6
    10b2:	f6 17       	cp	r31, r22
    10b4:	08 f4       	brcc	.+2      	; 0x10b8 <_ZN4RF2415openReadingPipeEhy+0x56>
    10b6:	36 c0       	rjmp	.+108    	; 0x1124 <_ZN4RF2415openReadingPipeEhy+0xc2>
    10b8:	81 e0       	ldi	r24, 0x01	; 1
    10ba:	86 17       	cp	r24, r22
    10bc:	60 f0       	brcs	.+24     	; 0x10d6 <_ZN4RF2415openReadingPipeEhy+0x74>
    10be:	ed 2d       	mov	r30, r13
    10c0:	f0 e0       	ldi	r31, 0x00	; 0
    10c2:	e8 5b       	subi	r30, 0xB8	; 184
    10c4:	fe 4f       	sbci	r31, 0xFE	; 254
    10c6:	64 91       	lpm	r22, Z
    10c8:	25 e0       	ldi	r18, 0x05	; 5
    10ca:	ae 01       	movw	r20, r28
    10cc:	4f 5f       	subi	r20, 0xFF	; 255
    10ce:	5f 4f       	sbci	r21, 0xFF	; 255
    10d0:	c5 01       	movw	r24, r10
    10d2:	54 de       	rcall	.-856    	; 0xd7c <_ZN4RF2414write_registerEhPKhh>
    10d4:	0b c0       	rjmp	.+22     	; 0x10ec <_ZN4RF2415openReadingPipeEhy+0x8a>
    10d6:	e6 2f       	mov	r30, r22
    10d8:	f0 e0       	ldi	r31, 0x00	; 0
    10da:	e8 5b       	subi	r30, 0xB8	; 184
    10dc:	fe 4f       	sbci	r31, 0xFE	; 254
    10de:	64 91       	lpm	r22, Z
    10e0:	21 e0       	ldi	r18, 0x01	; 1
    10e2:	ae 01       	movw	r20, r28
    10e4:	4f 5f       	subi	r20, 0xFF	; 255
    10e6:	5f 4f       	sbci	r21, 0xFF	; 255
    10e8:	c5 01       	movw	r24, r10
    10ea:	48 de       	rcall	.-880    	; 0xd7c <_ZN4RF2414write_registerEhPKhh>
    10ec:	0d 2d       	mov	r16, r13
    10ee:	10 e0       	ldi	r17, 0x00	; 0
    10f0:	f8 01       	movw	r30, r16
    10f2:	ee 5b       	subi	r30, 0xBE	; 190
    10f4:	fe 4f       	sbci	r31, 0xFE	; 254
    10f6:	64 91       	lpm	r22, Z
    10f8:	f5 01       	movw	r30, r10
    10fa:	46 85       	ldd	r20, Z+14	; 0x0e
    10fc:	c5 01       	movw	r24, r10
    10fe:	6d de       	rcall	.-806    	; 0xdda <_ZN4RF2414write_registerEhh>
    1100:	62 e0       	ldi	r22, 0x02	; 2
    1102:	c5 01       	movw	r24, r10
    1104:	20 de       	rcall	.-960    	; 0xd46 <_ZN4RF2413read_registerEh>
    1106:	f8 01       	movw	r30, r16
    1108:	e4 5c       	subi	r30, 0xC4	; 196
    110a:	fe 4f       	sbci	r31, 0xFE	; 254
    110c:	e4 91       	lpm	r30, Z
    110e:	41 e0       	ldi	r20, 0x01	; 1
    1110:	50 e0       	ldi	r21, 0x00	; 0
    1112:	02 c0       	rjmp	.+4      	; 0x1118 <_ZN4RF2415openReadingPipeEhy+0xb6>
    1114:	44 0f       	add	r20, r20
    1116:	55 1f       	adc	r21, r21
    1118:	ea 95       	dec	r30
    111a:	e2 f7       	brpl	.-8      	; 0x1114 <_ZN4RF2415openReadingPipeEhy+0xb2>
    111c:	48 2b       	or	r20, r24
    111e:	62 e0       	ldi	r22, 0x02	; 2
    1120:	c5 01       	movw	r24, r10
    1122:	5b de       	rcall	.-842    	; 0xdda <_ZN4RF2414write_registerEhh>
    1124:	28 96       	adiw	r28, 0x08	; 8
    1126:	0f b6       	in	r0, 0x3f	; 63
    1128:	f8 94       	cli
    112a:	de bf       	out	0x3e, r29	; 62
    112c:	0f be       	out	0x3f, r0	; 63
    112e:	cd bf       	out	0x3d, r28	; 61
    1130:	df 91       	pop	r29
    1132:	cf 91       	pop	r28
    1134:	1f 91       	pop	r17
    1136:	0f 91       	pop	r16
    1138:	ff 90       	pop	r15
    113a:	ef 90       	pop	r14
    113c:	df 90       	pop	r13
    113e:	bf 90       	pop	r11
    1140:	af 90       	pop	r10
    1142:	08 95       	ret

00001144 <_ZN4RF2410setPALevelE13rf24_pa_dbm_e>:
    1144:	0f 93       	push	r16
    1146:	1f 93       	push	r17
    1148:	cf 93       	push	r28
    114a:	8c 01       	movw	r16, r24
    114c:	c6 2f       	mov	r28, r22
    114e:	66 e0       	ldi	r22, 0x06	; 6
    1150:	fa dd       	rcall	.-1036   	; 0xd46 <_ZN4RF2413read_registerEh>
    1152:	48 2f       	mov	r20, r24
    1154:	49 7f       	andi	r20, 0xF9	; 249
    1156:	c3 30       	cpi	r28, 0x03	; 3
    1158:	11 f4       	brne	.+4      	; 0x115e <_ZN4RF2410setPALevelE13rf24_pa_dbm_e+0x1a>
    115a:	46 60       	ori	r20, 0x06	; 6
    115c:	0b c0       	rjmp	.+22     	; 0x1174 <_ZN4RF2410setPALevelE13rf24_pa_dbm_e+0x30>
    115e:	c2 30       	cpi	r28, 0x02	; 2
    1160:	11 f4       	brne	.+4      	; 0x1166 <_ZN4RF2410setPALevelE13rf24_pa_dbm_e+0x22>
    1162:	44 60       	ori	r20, 0x04	; 4
    1164:	07 c0       	rjmp	.+14     	; 0x1174 <_ZN4RF2410setPALevelE13rf24_pa_dbm_e+0x30>
    1166:	c1 30       	cpi	r28, 0x01	; 1
    1168:	11 f4       	brne	.+4      	; 0x116e <_ZN4RF2410setPALevelE13rf24_pa_dbm_e+0x2a>
    116a:	42 60       	ori	r20, 0x02	; 2
    116c:	03 c0       	rjmp	.+6      	; 0x1174 <_ZN4RF2410setPALevelE13rf24_pa_dbm_e+0x30>
    116e:	c4 30       	cpi	r28, 0x04	; 4
    1170:	09 f4       	brne	.+2      	; 0x1174 <_ZN4RF2410setPALevelE13rf24_pa_dbm_e+0x30>
    1172:	46 60       	ori	r20, 0x06	; 6
    1174:	66 e0       	ldi	r22, 0x06	; 6
    1176:	c8 01       	movw	r24, r16
    1178:	30 de       	rcall	.-928    	; 0xdda <_ZN4RF2414write_registerEhh>
    117a:	cf 91       	pop	r28
    117c:	1f 91       	pop	r17
    117e:	0f 91       	pop	r16
    1180:	08 95       	ret

00001182 <_ZN4RF2411setDataRateE15rf24_datarate_e>:
    1182:	0f 93       	push	r16
    1184:	1f 93       	push	r17
    1186:	cf 93       	push	r28
    1188:	df 93       	push	r29
    118a:	ec 01       	movw	r28, r24
    118c:	06 2f       	mov	r16, r22
    118e:	66 e0       	ldi	r22, 0x06	; 6
    1190:	da dd       	rcall	.-1100   	; 0xd46 <_ZN4RF2413read_registerEh>
    1192:	1c 86       	std	Y+12, r1	; 0x0c
    1194:	18 2f       	mov	r17, r24
    1196:	17 7d       	andi	r17, 0xD7	; 215
    1198:	02 30       	cpi	r16, 0x02	; 2
    119a:	11 f4       	brne	.+4      	; 0x11a0 <_ZN4RF2411setDataRateE15rf24_datarate_e+0x1e>
    119c:	10 62       	ori	r17, 0x20	; 32
    119e:	05 c0       	rjmp	.+10     	; 0x11aa <_ZN4RF2411setDataRateE15rf24_datarate_e+0x28>
    11a0:	01 30       	cpi	r16, 0x01	; 1
    11a2:	19 f4       	brne	.+6      	; 0x11aa <_ZN4RF2411setDataRateE15rf24_datarate_e+0x28>
    11a4:	81 e0       	ldi	r24, 0x01	; 1
    11a6:	8c 87       	std	Y+12, r24	; 0x0c
    11a8:	18 60       	ori	r17, 0x08	; 8
    11aa:	41 2f       	mov	r20, r17
    11ac:	66 e0       	ldi	r22, 0x06	; 6
    11ae:	ce 01       	movw	r24, r28
    11b0:	14 de       	rcall	.-984    	; 0xdda <_ZN4RF2414write_registerEhh>
    11b2:	66 e0       	ldi	r22, 0x06	; 6
    11b4:	ce 01       	movw	r24, r28
    11b6:	c7 dd       	rcall	.-1138   	; 0xd46 <_ZN4RF2413read_registerEh>
    11b8:	18 17       	cp	r17, r24
    11ba:	19 f0       	breq	.+6      	; 0x11c2 <_ZN4RF2411setDataRateE15rf24_datarate_e+0x40>
    11bc:	1c 86       	std	Y+12, r1	; 0x0c
    11be:	80 e0       	ldi	r24, 0x00	; 0
    11c0:	01 c0       	rjmp	.+2      	; 0x11c4 <_ZN4RF2411setDataRateE15rf24_datarate_e+0x42>
    11c2:	81 e0       	ldi	r24, 0x01	; 1
    11c4:	df 91       	pop	r29
    11c6:	cf 91       	pop	r28
    11c8:	1f 91       	pop	r17
    11ca:	0f 91       	pop	r16
    11cc:	08 95       	ret

000011ce <_ZN4RF2412setCRCLengthE16rf24_crclength_e>:

/****************************************************************************/

void RF24::setCRCLength(rf24_crclength_e length)
{
    11ce:	1f 93       	push	r17
    11d0:	cf 93       	push	r28
    11d2:	df 93       	push	r29
    11d4:	ec 01       	movw	r28, r24
    11d6:	16 2f       	mov	r17, r22
  uint8_t config = read_register(CONFIG) & ~( _BV(CRCO) | _BV(EN_CRC)) ;
    11d8:	60 e0       	ldi	r22, 0x00	; 0
    11da:	b5 dd       	rcall	.-1174   	; 0xd46 <_ZN4RF2413read_registerEh>
    11dc:	48 2f       	mov	r20, r24
    11de:	43 7f       	andi	r20, 0xF3	; 243

  // switch uses RAM (evil!)
  if ( length == RF24_CRC_DISABLED )
    11e0:	11 23       	and	r17, r17
    11e2:	29 f0       	breq	.+10     	; 0x11ee <_ZN4RF2412setCRCLengthE16rf24_crclength_e+0x20>
  {
    // Do nothing, we turned it off above.
  }
  else if ( length == RF24_CRC_8 )
    11e4:	11 30       	cpi	r17, 0x01	; 1
    11e6:	11 f4       	brne	.+4      	; 0x11ec <_ZN4RF2412setCRCLengthE16rf24_crclength_e+0x1e>
  {
    config |= _BV(EN_CRC);
    11e8:	48 60       	ori	r20, 0x08	; 8
    11ea:	01 c0       	rjmp	.+2      	; 0x11ee <_ZN4RF2412setCRCLengthE16rf24_crclength_e+0x20>
  }
  else
  {
    config |= _BV(EN_CRC);
    config |= _BV( CRCO );
    11ec:	4c 60       	ori	r20, 0x0C	; 12
  }
  write_register( CONFIG, config ) ;
    11ee:	60 e0       	ldi	r22, 0x00	; 0
    11f0:	ce 01       	movw	r24, r28
    11f2:	f3 dd       	rcall	.-1050   	; 0xdda <_ZN4RF2414write_registerEhh>
}
    11f4:	df 91       	pop	r29
    11f6:	cf 91       	pop	r28
    11f8:	1f 91       	pop	r17
    11fa:	08 95       	ret

000011fc <_ZN4RF245beginEv>:
}

/****************************************************************************/

void RF24::begin(void)
{
    11fc:	cf 93       	push	r28
    11fe:	df 93       	push	r29
    1200:	ec 01       	movw	r28, r24
  // Initialize pins
//  pinMode(ce_pin,OUTPUT);         //*** Change
//  pinMode(csn_pin,OUTPUT);        //*** Change
  SetPortBits( ce_ddr, CE_HIGH, CE_MASK );
    1202:	6c 81       	ldd	r22, Y+4	; 0x04
    1204:	7d 81       	ldd	r23, Y+5	; 0x05
    1206:	2f 8d       	ldd	r18, Y+31	; 0x1f
    1208:	4e 8d       	ldd	r20, Y+30	; 0x1e
    120a:	35 dd       	rcall	.-1430   	; 0xc76 <_ZN5PMMIO11SetPortBitsEPVhhh>
  SetPortBits( csn_ddr, CSN_HIGH, CSN_MASK );
    120c:	68 85       	ldd	r22, Y+8	; 0x08
    120e:	79 85       	ldd	r23, Y+9	; 0x09
    1210:	2c 8d       	ldd	r18, Y+28	; 0x1c
    1212:	4b 8d       	ldd	r20, Y+27	; 0x1b
    1214:	ce 01       	movw	r24, r28
    1216:	2f dd       	rcall	.-1442   	; 0xc76 <_ZN5PMMIO11SetPortBitsEPVhhh>

  // Initialize SPI bus
//  spi_ptr->begin();            //*** Change
  spi_ptr->begin( &SPI_PORT, &SPI_DDR );
    1218:	44 e2       	ldi	r20, 0x24	; 36
    121a:	50 e0       	ldi	r21, 0x00	; 0
    121c:	65 e2       	ldi	r22, 0x25	; 37
    121e:	70 e0       	ldi	r23, 0x00	; 0
    1220:	8a 85       	ldd	r24, Y+10	; 0x0a
    1222:	9b 85       	ldd	r25, Y+11	; 0x0b
    1224:	35 d0       	rcall	.+106    	; 0x1290 <_ZN8SPIClass5beginEPVhS1_>

  ce(CE_LOW);
    1226:	6d 8d       	ldd	r22, Y+29	; 0x1d
    1228:	ce 01       	movw	r24, r28
    122a:	86 dd       	rcall	.-1268   	; 0xd38 <_ZN4RF242ceEh>
  csn(CSN_HIGH);
    122c:	6b 8d       	ldd	r22, Y+27	; 0x1b
    122e:	ce 01       	movw	r24, r28
    1230:	68 dd       	rcall	.-1328   	; 0xd02 <_ZN4RF243csnEh>
	#else
		//round up by default
		__ticks_dc = (uint32_t)(ceil(fabs(__tmp)));
	#endif

	__builtin_avr_delay_cycles(__ticks_dc);
    1232:	2f e7       	ldi	r18, 0x7F	; 127
    1234:	88 e3       	ldi	r24, 0x38	; 56
    1236:	91 e0       	ldi	r25, 0x01	; 1
    1238:	21 50       	subi	r18, 0x01	; 1
    123a:	80 40       	sbci	r24, 0x00	; 0
    123c:	90 40       	sbci	r25, 0x00	; 0
    123e:	e1 f7       	brne	.-8      	; 0x1238 <_ZN4RF245beginEv+0x3c>
    1240:	00 c0       	rjmp	.+0      	; 0x1242 <_ZN4RF245beginEv+0x46>
    1242:	00 00       	nop

  // Set 1500uS (minimum for 32B payload in ESB@250KBPS) timeouts, to make testing a little easier
  // WARNING: If this is ever lowered, either 250KBS mode with AA is broken or maximum packet
  // sizes must never be used. See documentation for a more complete explanation.
//  write_register(SETUP_RETR,(B0100 << ARD) | (B1111 << ARC));   //*** Change
  write_register(SETUP_RETR,(0x04 << ARD) | (0x0F << ARC));   //*** Change
    1244:	4f e4       	ldi	r20, 0x4F	; 79
    1246:	64 e0       	ldi	r22, 0x04	; 4
    1248:	ce 01       	movw	r24, r28
    124a:	c7 dd       	rcall	.-1138   	; 0xdda <_ZN4RF2414write_registerEhh>

  // Restore our default PA level
  setPALevel( RF24_PA_MAX ) ;
    124c:	63 e0       	ldi	r22, 0x03	; 3
    124e:	ce 01       	movw	r24, r28
    1250:	79 df       	rcall	.-270    	; 0x1144 <_ZN4RF2410setPALevelE13rf24_pa_dbm_e>

  // Determine if this is a p or non-p RF24 module and then
  // reset our data rate back to default value. This works
  // because a non-P variant won't allow the data rate to
  // be set to 250Kbps.
  if( setDataRate( RF24_250KBPS ) )
    1252:	62 e0       	ldi	r22, 0x02	; 2
    1254:	ce 01       	movw	r24, r28
    1256:	95 df       	rcall	.-214    	; 0x1182 <_ZN4RF2411setDataRateE15rf24_datarate_e>
    1258:	88 23       	and	r24, r24
    125a:	11 f0       	breq	.+4      	; 0x1260 <_ZN4RF245beginEv+0x64>
  {
    p_variant = true ;
    125c:	81 e0       	ldi	r24, 0x01	; 1
    125e:	8d 87       	std	Y+13, r24	; 0x0d
  }

  // Then set the data rate to the slowest (and most reliable) speed supported by all
  // hardware.
  setDataRate( RF24_250KBPS ) ;
    1260:	62 e0       	ldi	r22, 0x02	; 2
    1262:	ce 01       	movw	r24, r28
    1264:	8e df       	rcall	.-228    	; 0x1182 <_ZN4RF2411setDataRateE15rf24_datarate_e>

  // Initialize CRC and request 2-byte (16bit) CRC
  setCRCLength( RF24_CRC_16 ) ;
    1266:	62 e0       	ldi	r22, 0x02	; 2
    1268:	ce 01       	movw	r24, r28
    126a:	b1 df       	rcall	.-158    	; 0x11ce <_ZN4RF2412setCRCLengthE16rf24_crclength_e>

  // Disable dynamic payloads, to match dynamic_payloads_enabled setting
  write_register(DYNPD,0);
    126c:	40 e0       	ldi	r20, 0x00	; 0
    126e:	6c e1       	ldi	r22, 0x1C	; 28
    1270:	ce 01       	movw	r24, r28
    1272:	b3 dd       	rcall	.-1178   	; 0xdda <_ZN4RF2414write_registerEhh>

  // Reset current status
  // Notice reset and flush is the last thing we do
  write_register(STATUS,_BV(RX_DR) | _BV(TX_DS) | _BV(MAX_RT) );
    1274:	40 e7       	ldi	r20, 0x70	; 112
    1276:	67 e0       	ldi	r22, 0x07	; 7
    1278:	ce 01       	movw	r24, r28
    127a:	af dd       	rcall	.-1186   	; 0xdda <_ZN4RF2414write_registerEhh>

  // Set up default configuration.  Callers can always change it later.
  // This channel should be universally safe and not bleed over into adjacent
  // spectrum.
  setChannel(76);
    127c:	6c e4       	ldi	r22, 0x4C	; 76
    127e:	ce 01       	movw	r24, r28
    1280:	7f de       	rcall	.-770    	; 0xf80 <_ZN4RF2410setChannelEh>

  // Flush buffers
  flush_rx();
    1282:	ce 01       	movw	r24, r28
    1284:	0f de       	rcall	.-994    	; 0xea4 <_ZN4RF248flush_rxEv>
  flush_tx();
    1286:	ce 01       	movw	r24, r28
    1288:	21 de       	rcall	.-958    	; 0xecc <_ZN4RF248flush_txEv>
}
    128a:	df 91       	pop	r29
    128c:	cf 91       	pop	r28
    128e:	08 95       	ret

00001290 <_ZN8SPIClass5beginEPVhS1_>:
  SetPortBits(spiddr, SPI_SCK_HIGH, SPI_SCK_MASK);
  SetPortBits(spiddr, SPI_MOSI_HIGH, SPI_MOSI_MASK);
}

void SPIClass::end() {
  SPCR &= ~_BV(SPE);
    1290:	0f 93       	push	r16
    1292:	1f 93       	push	r17
    1294:	cf 93       	push	r28
    1296:	df 93       	push	r29
    1298:	ec 01       	movw	r28, r24
    129a:	8a 01       	movw	r16, r20
    129c:	21 e0       	ldi	r18, 0x01	; 1
    129e:	41 e0       	ldi	r20, 0x01	; 1
    12a0:	ea dc       	rcall	.-1580   	; 0xc76 <_ZN5PMMIO11SetPortBitsEPVhhh>
    12a2:	21 e0       	ldi	r18, 0x01	; 1
    12a4:	41 e0       	ldi	r20, 0x01	; 1
    12a6:	b8 01       	movw	r22, r16
    12a8:	ce 01       	movw	r24, r28
    12aa:	e5 dc       	rcall	.-1590   	; 0xc76 <_ZN5PMMIO11SetPortBitsEPVhhh>
    12ac:	8c b5       	in	r24, 0x2c	; 44
    12ae:	80 61       	ori	r24, 0x10	; 16
    12b0:	8c bd       	out	0x2c, r24	; 44
    12b2:	8c b5       	in	r24, 0x2c	; 44
    12b4:	80 64       	ori	r24, 0x40	; 64
    12b6:	8c bd       	out	0x2c, r24	; 44
    12b8:	22 e0       	ldi	r18, 0x02	; 2
    12ba:	42 e0       	ldi	r20, 0x02	; 2
    12bc:	b8 01       	movw	r22, r16
    12be:	ce 01       	movw	r24, r28
    12c0:	da dc       	rcall	.-1612   	; 0xc76 <_ZN5PMMIO11SetPortBitsEPVhhh>
    12c2:	24 e0       	ldi	r18, 0x04	; 4
    12c4:	44 e0       	ldi	r20, 0x04	; 4
    12c6:	b8 01       	movw	r22, r16
    12c8:	ce 01       	movw	r24, r28
    12ca:	d5 dc       	rcall	.-1622   	; 0xc76 <_ZN5PMMIO11SetPortBitsEPVhhh>
    12cc:	df 91       	pop	r29
    12ce:	cf 91       	pop	r28
    12d0:	1f 91       	pop	r17
    12d2:	0f 91       	pop	r16
    12d4:	08 95       	ret

000012d6 <_ZN8SPIClass11setBitOrderEh>:
}

void SPIClass::setBitOrder(uint8_t bitOrder)
{
  if(bitOrder == LSBFIRST) {
    12d6:	61 11       	cpse	r22, r1
    12d8:	04 c0       	rjmp	.+8      	; 0x12e2 <_ZN8SPIClass11setBitOrderEh+0xc>
    SPCR |= _BV(DORD);
    12da:	8c b5       	in	r24, 0x2c	; 44
    12dc:	80 62       	ori	r24, 0x20	; 32
    12de:	8c bd       	out	0x2c, r24	; 44
    12e0:	08 95       	ret
  } else {
    SPCR &= ~(_BV(DORD));
    12e2:	8c b5       	in	r24, 0x2c	; 44
    12e4:	8f 7d       	andi	r24, 0xDF	; 223
    12e6:	8c bd       	out	0x2c, r24	; 44
    12e8:	08 95       	ret

000012ea <_ZN8SPIClass11setDataModeEh>:
  }
}

void SPIClass::setDataMode(uint8_t mode)
{
  SPCR = (SPCR & ~SPI_MODE_MASK) | mode;
    12ea:	8c b5       	in	r24, 0x2c	; 44
    12ec:	83 7f       	andi	r24, 0xF3	; 243
    12ee:	68 2b       	or	r22, r24
    12f0:	6c bd       	out	0x2c, r22	; 44
    12f2:	08 95       	ret

000012f4 <_ZN8SPIClass15setClockDividerEh>:
}

void SPIClass::setClockDivider(uint8_t rate)
{
  SPCR = (SPCR & ~SPI_CLOCK_MASK) | (rate & SPI_CLOCK_MASK);
    12f4:	8c b5       	in	r24, 0x2c	; 44
    12f6:	96 2f       	mov	r25, r22
    12f8:	93 70       	andi	r25, 0x03	; 3
    12fa:	8c 7f       	andi	r24, 0xFC	; 252
    12fc:	89 2b       	or	r24, r25
    12fe:	8c bd       	out	0x2c, r24	; 44
  SPSR = (SPSR & ~SPI_2XCLOCK_MASK) | ((rate >> 2) & SPI_2XCLOCK_MASK);
    1300:	9d b5       	in	r25, 0x2d	; 45
    1302:	62 fb       	bst	r22, 2
    1304:	88 27       	eor	r24, r24
    1306:	80 f9       	bld	r24, 0
    1308:	69 2f       	mov	r22, r25
    130a:	6e 7f       	andi	r22, 0xFE	; 254
    130c:	68 2b       	or	r22, r24
    130e:	6d bd       	out	0x2d, r22	; 45
    1310:	08 95       	ret

00001312 <_ZN11SystemError8SysErrorEj>:

#include "syserror.hpp"

void SystemError::SysError( unsigned int error_num = 0 )
{
  PORTC = 0x00;
    1312:	18 b8       	out	0x08, r1	; 8
  PORTD = 0x00;
    1314:	1b b8       	out	0x0b, r1	; 11
  PORTJ = 0x00;
    1316:	10 92 05 01 	sts	0x0105, r1
  PORTH = 0x00;
    131a:	10 92 02 01 	sts	0x0102, r1
  TCCR4A = 0x00;
    131e:	10 92 a0 00 	sts	0x00A0, r1

#include <avr/io.h>

#include "syserror.hpp"

void SystemError::SysError( unsigned int error_num = 0 )
    1322:	ff cf       	rjmp	.-2      	; 0x1322 <_ZN11SystemError8SysErrorEj+0x10>

00001324 <_ZN3MC1C1EP9TimerBaseP6PWMPFC>:
#include "timerbase.hpp"
#include "pwmpfc.hpp"
class MC1 : public MotorController
{
  public:
    MC1( class TimerBase *tb_ptr, class PWMPFC *pwmptr ) :
    1324:	0f 93       	push	r16
    1326:	1f 93       	push	r17
    1328:	cf 93       	push	r28
    132a:	df 93       	push	r29
    132c:	ec 01       	movw	r28, r24
    132e:	8a 01       	movw	r16, r20
                     uint8_t const brk_enabled, uint8_t const brk_mask
                   ) : ObjTimers( tb_ptr, 4 ),
       M_DIR_OPEN(dir_open), M_DIR_FWD(dir_fwd), M_DIR_REV(dir_rev), M_DIR_ERROR(dir_mask), M_DIR_MASK(dir_mask),
       M_STRT_SPD(strt_spd), M_MAX_SPD(max_spd), M_MIN_SPD(min_spd),
       M_STP_DUR(stp_dur), M_OPEN_DUR(open_dur), M_CLOS_DUR(clos_dur),
       M_BRK_ENABLED(brk_enabled), M_BRK_MASK(brk_mask)
    1330:	44 e0       	ldi	r20, 0x04	; 4
    1332:	50 e0       	ldi	r21, 0x00	; 0
    1334:	af db       	rcall	.-2210   	; 0xa94 <_ZN9ObjTimersC1EP9TimerBasej>
    1336:	18 86       	std	Y+8, r1	; 0x08
    1338:	81 e0       	ldi	r24, 0x01	; 1
    133a:	89 87       	std	Y+9, r24	; 0x09
    133c:	92 e0       	ldi	r25, 0x02	; 2
    133e:	9a 87       	std	Y+10, r25	; 0x0a
    1340:	93 e0       	ldi	r25, 0x03	; 3
    1342:	9b 87       	std	Y+11, r25	; 0x0b
    1344:	9c 87       	std	Y+12, r25	; 0x0c
    1346:	8f 87       	std	Y+15, r24	; 0x0f
    1348:	94 e6       	ldi	r25, 0x64	; 100
    134a:	98 8b       	std	Y+16, r25	; 0x10
    134c:	19 8a       	std	Y+17, r1	; 0x11
    134e:	2e ee       	ldi	r18, 0xEE	; 238
    1350:	32 e0       	ldi	r19, 0x02	; 2
    1352:	3b 8b       	std	Y+19, r19	; 0x13
    1354:	2a 8b       	std	Y+18, r18	; 0x12
    1356:	24 e6       	ldi	r18, 0x64	; 100
    1358:	30 e0       	ldi	r19, 0x00	; 0
    135a:	3d 8b       	std	Y+21, r19	; 0x15
    135c:	2c 8b       	std	Y+20, r18	; 0x14
    135e:	3f 8b       	std	Y+23, r19	; 0x17
    1360:	2e 8b       	std	Y+22, r18	; 0x16
    1362:	88 8f       	std	Y+24, r24	; 0x18
    1364:	89 8f       	std	Y+25, r24	; 0x19
    {
      M_PWMPTR   = pwmptr;    // Pulse width modulation object instance pointer
    1366:	1f 83       	std	Y+7, r17	; 0x07
    1368:	0e 83       	std	Y+6, r16	; 0x06
      M_DIR_PORT = dir_port;  // Motor direction port pointer
    136a:	88 e2       	ldi	r24, 0x28	; 40
    136c:	90 e0       	ldi	r25, 0x00	; 0
    136e:	9e 87       	std	Y+14, r25	; 0x0e
    1370:	8d 87       	std	Y+13, r24	; 0x0d

      SetM_ID_DMS( 0 );       // Input Device Desired Motor Speed (0-100)
    1372:	60 e0       	ldi	r22, 0x00	; 0
    1374:	ce 01       	movw	r24, r28
    1376:	22 d9       	rcall	.-3516   	; 0x5bc <_ZN15MotorController11SetM_ID_DMSEh>
      SetM_ID_DMD( 0 );       // Input Device Desired Motor Direction
    1378:	60 e0       	ldi	r22, 0x00	; 0
    137a:	ce 01       	movw	r24, r28
    137c:	22 d9       	rcall	.-3516   	; 0x5c2 <_ZN15MotorController11SetM_ID_DMDEh>
      SetM_ID_DMRR( 15 );     // Input Device Motor Ramp Rate (MIN_MRR-1000)
    137e:	6f e0       	ldi	r22, 0x0F	; 15
    1380:	70 e0       	ldi	r23, 0x00	; 0
    1382:	ce 01       	movw	r24, r28
    1384:	21 d9       	rcall	.-3518   	; 0x5c8 <_ZN15MotorController12SetM_ID_DMRREj>

      M_AMS = 0;              // Actual Motor Speed (0-100) (AMS must start at 0)
    1386:	18 a2       	std	Y+32, r1	; 0x20
      M_DMS = 0;              // Desired Motor Speed (0-100)
    1388:	19 a2       	std	Y+33, r1	; 0x21
      M_DMD = 0;              // Desired Motor Direction
    138a:	1b a2       	std	Y+35, r1	; 0x23
      M_AMD = 0;              // Actual Motor Direction
    138c:	1a a2       	std	Y+34, r1	; 0x22
      SetM_MRR( 15 );         // Motor Ramp Rate (MIN_MRR-1000)
    138e:	6f e0       	ldi	r22, 0x0F	; 15
    1390:	70 e0       	ldi	r23, 0x00	; 0
    1392:	ce 01       	movw	r24, r28
    1394:	47 d9       	rcall	.-3442   	; 0x624 <_ZN15MotorController8SetM_MRREj>

      M_MSS = 0;              // Motor Speed Status -> M_STOPPED_, M_STARTING_, ...
    1396:	8e a1       	ldd	r24, Y+38	; 0x26
      M_MDS = 0;              // Motor Direction Status -> M_OPEN_, M_CLOSE_, ,...

      M_KILLSWITCH = 0;       // Kill Switch -> true, false
    1398:	80 7e       	andi	r24, 0xE0	; 224
    139a:	8f 7d       	andi	r24, 0xDF	; 223
    139c:	8e a3       	std	Y+38, r24	; 0x26

      SetPortBits( dir_ddr, M_DIR_MASK, M_DIR_MASK );    // Set DDR bits for motor direction
    139e:	4c 85       	ldd	r20, Y+12	; 0x0c
    13a0:	24 2f       	mov	r18, r20
    13a2:	67 e2       	ldi	r22, 0x27	; 39
    13a4:	70 e0       	ldi	r23, 0x00	; 0
    13a6:	ce 01       	movw	r24, r28
    13a8:	66 dc       	rcall	.-1844   	; 0xc76 <_ZN5PMMIO11SetPortBitsEPVhhh>
//      M_DIR_PORT = 0x00; //SetPortBits( dir_port, 0, M_DIR_MASK );
//      PORTC = 0x00;

      if( IsMBEnabled() )
    13aa:	ce 01       	movw	r24, r28
    13ac:	64 da       	rcall	.-2872   	; 0x876 <_ZN15MotorController11IsMBEnabledEv>
    13ae:	88 23       	and	r24, r24
    13b0:	51 f0       	breq	.+20     	; 0x13c6 <_ZN3MC1C1EP9TimerBaseP6PWMPFC+0xa2>
      {
        M_BRK_PORT = brk_port;    // Motor break port pointer
    13b2:	8b e2       	ldi	r24, 0x2B	; 43
    13b4:	90 e0       	ldi	r25, 0x00	; 0
    13b6:	9b 8f       	std	Y+27, r25	; 0x1b
    13b8:	8a 8f       	std	Y+26, r24	; 0x1a
        SetPortBits( brk_ddr, M_BRK_MASK, M_BRK_MASK );  // Set DDR bits for motor break
    13ba:	49 8d       	ldd	r20, Y+25	; 0x19
    13bc:	24 2f       	mov	r18, r20
    13be:	6a e2       	ldi	r22, 0x2A	; 42
    13c0:	70 e0       	ldi	r23, 0x00	; 0
    13c2:	ce 01       	movw	r24, r28
    13c4:	58 dc       	rcall	.-1872   	; 0xc76 <_ZN5PMMIO11SetPortBitsEPVhhh>
              &PORTC, &DDRC, &PORTD, &DDRD,   // M_DIR_PORT, M_DIR_PORT DDR, M_BRK_PORT, M_BRK_PORT DDR
              0x00, 0x01, 0x02, 0x03,  // M_DIR_OPEN, M_DIR_FWD, M_DIR_REV, M_DIR_ERROR, M_DIR_MASK
              1, 100, 0,              // M_STRT_SPD, M_MAX_SPD, M_MIN_SPD
              750, 100, 100,           // M_STP_DUR, M_OPEN_DUR, M_CLOS_DUR
              0x01, 0x01 )             // M_BRK_ENABLED, M_BRK_MASK
  {}
    13c6:	df 91       	pop	r29
    13c8:	cf 91       	pop	r28
    13ca:	1f 91       	pop	r17
    13cc:	0f 91       	pop	r16
    13ce:	08 95       	ret

000013d0 <_ZN3MC2C1EP9TimerBaseP6PWMPFC>:
#include "pwmpfc.hpp"

class MC2 : public MotorController
{
  public:
    MC2( class TimerBase *tb_ptr, class PWMPFC *pwmptr ) :
    13d0:	0f 93       	push	r16
    13d2:	1f 93       	push	r17
    13d4:	cf 93       	push	r28
    13d6:	df 93       	push	r29
    13d8:	ec 01       	movw	r28, r24
    13da:	8a 01       	movw	r16, r20
                     uint8_t const brk_enabled, uint8_t const brk_mask
                   ) : ObjTimers( tb_ptr, 4 ),
       M_DIR_OPEN(dir_open), M_DIR_FWD(dir_fwd), M_DIR_REV(dir_rev), M_DIR_ERROR(dir_mask), M_DIR_MASK(dir_mask),
       M_STRT_SPD(strt_spd), M_MAX_SPD(max_spd), M_MIN_SPD(min_spd),
       M_STP_DUR(stp_dur), M_OPEN_DUR(open_dur), M_CLOS_DUR(clos_dur),
       M_BRK_ENABLED(brk_enabled), M_BRK_MASK(brk_mask)
    13dc:	44 e0       	ldi	r20, 0x04	; 4
    13de:	50 e0       	ldi	r21, 0x00	; 0
    13e0:	59 db       	rcall	.-2382   	; 0xa94 <_ZN9ObjTimersC1EP9TimerBasej>
    13e2:	18 86       	std	Y+8, r1	; 0x08
    13e4:	84 e0       	ldi	r24, 0x04	; 4
    13e6:	89 87       	std	Y+9, r24	; 0x09
    13e8:	88 e0       	ldi	r24, 0x08	; 8
    13ea:	8a 87       	std	Y+10, r24	; 0x0a
    13ec:	8c e0       	ldi	r24, 0x0C	; 12
    13ee:	8b 87       	std	Y+11, r24	; 0x0b
    13f0:	8c 87       	std	Y+12, r24	; 0x0c
    13f2:	81 e0       	ldi	r24, 0x01	; 1
    13f4:	8f 87       	std	Y+15, r24	; 0x0f
    13f6:	94 e6       	ldi	r25, 0x64	; 100
    13f8:	98 8b       	std	Y+16, r25	; 0x10
    13fa:	19 8a       	std	Y+17, r1	; 0x11
    13fc:	2e ee       	ldi	r18, 0xEE	; 238
    13fe:	32 e0       	ldi	r19, 0x02	; 2
    1400:	3b 8b       	std	Y+19, r19	; 0x13
    1402:	2a 8b       	std	Y+18, r18	; 0x12
    1404:	24 e6       	ldi	r18, 0x64	; 100
    1406:	30 e0       	ldi	r19, 0x00	; 0
    1408:	3d 8b       	std	Y+21, r19	; 0x15
    140a:	2c 8b       	std	Y+20, r18	; 0x14
    140c:	3f 8b       	std	Y+23, r19	; 0x17
    140e:	2e 8b       	std	Y+22, r18	; 0x16
    1410:	88 8f       	std	Y+24, r24	; 0x18
    1412:	82 e0       	ldi	r24, 0x02	; 2
    1414:	89 8f       	std	Y+25, r24	; 0x19
    {
      M_PWMPTR   = pwmptr;    // Pulse width modulation object instance pointer
    1416:	1f 83       	std	Y+7, r17	; 0x07
    1418:	0e 83       	std	Y+6, r16	; 0x06
      M_DIR_PORT = dir_port;  // Motor direction port pointer
    141a:	88 e2       	ldi	r24, 0x28	; 40
    141c:	90 e0       	ldi	r25, 0x00	; 0
    141e:	9e 87       	std	Y+14, r25	; 0x0e
    1420:	8d 87       	std	Y+13, r24	; 0x0d

      SetM_ID_DMS( 0 );       // Input Device Desired Motor Speed (0-100)
    1422:	60 e0       	ldi	r22, 0x00	; 0
    1424:	ce 01       	movw	r24, r28
    1426:	ca d8       	rcall	.-3692   	; 0x5bc <_ZN15MotorController11SetM_ID_DMSEh>
      SetM_ID_DMD( 0 );       // Input Device Desired Motor Direction
    1428:	60 e0       	ldi	r22, 0x00	; 0
    142a:	ce 01       	movw	r24, r28
    142c:	ca d8       	rcall	.-3692   	; 0x5c2 <_ZN15MotorController11SetM_ID_DMDEh>
      SetM_ID_DMRR( 15 );     // Input Device Motor Ramp Rate (MIN_MRR-1000)
    142e:	6f e0       	ldi	r22, 0x0F	; 15
    1430:	70 e0       	ldi	r23, 0x00	; 0
    1432:	ce 01       	movw	r24, r28
    1434:	c9 d8       	rcall	.-3694   	; 0x5c8 <_ZN15MotorController12SetM_ID_DMRREj>

      M_AMS = 0;              // Actual Motor Speed (0-100) (AMS must start at 0)
    1436:	18 a2       	std	Y+32, r1	; 0x20
      M_DMS = 0;              // Desired Motor Speed (0-100)
    1438:	19 a2       	std	Y+33, r1	; 0x21
      M_DMD = 0;              // Desired Motor Direction
    143a:	1b a2       	std	Y+35, r1	; 0x23
      M_AMD = 0;              // Actual Motor Direction
    143c:	1a a2       	std	Y+34, r1	; 0x22
      SetM_MRR( 15 );         // Motor Ramp Rate (MIN_MRR-1000)
    143e:	6f e0       	ldi	r22, 0x0F	; 15
    1440:	70 e0       	ldi	r23, 0x00	; 0
    1442:	ce 01       	movw	r24, r28
    1444:	ef d8       	rcall	.-3618   	; 0x624 <_ZN15MotorController8SetM_MRREj>

      M_MSS = 0;              // Motor Speed Status -> M_STOPPED_, M_STARTING_, ...
    1446:	8e a1       	ldd	r24, Y+38	; 0x26
      M_MDS = 0;              // Motor Direction Status -> M_OPEN_, M_CLOSE_, ,...

      M_KILLSWITCH = 0;       // Kill Switch -> true, false
    1448:	80 7e       	andi	r24, 0xE0	; 224
    144a:	8f 7d       	andi	r24, 0xDF	; 223
    144c:	8e a3       	std	Y+38, r24	; 0x26

      SetPortBits( dir_ddr, M_DIR_MASK, M_DIR_MASK );    // Set DDR bits for motor direction
    144e:	4c 85       	ldd	r20, Y+12	; 0x0c
    1450:	24 2f       	mov	r18, r20
    1452:	67 e2       	ldi	r22, 0x27	; 39
    1454:	70 e0       	ldi	r23, 0x00	; 0
    1456:	ce 01       	movw	r24, r28
    1458:	0e dc       	rcall	.-2020   	; 0xc76 <_ZN5PMMIO11SetPortBitsEPVhhh>
//      M_DIR_PORT = 0x00; //SetPortBits( dir_port, 0, M_DIR_MASK );
//      PORTC = 0x00;

      if( IsMBEnabled() )
    145a:	ce 01       	movw	r24, r28
    145c:	0c da       	rcall	.-3048   	; 0x876 <_ZN15MotorController11IsMBEnabledEv>
    145e:	88 23       	and	r24, r24
    1460:	51 f0       	breq	.+20     	; 0x1476 <_ZN3MC2C1EP9TimerBaseP6PWMPFC+0xa6>
      {
        M_BRK_PORT = brk_port;    // Motor break port pointer
    1462:	8b e2       	ldi	r24, 0x2B	; 43
    1464:	90 e0       	ldi	r25, 0x00	; 0
    1466:	9b 8f       	std	Y+27, r25	; 0x1b
    1468:	8a 8f       	std	Y+26, r24	; 0x1a
        SetPortBits( brk_ddr, M_BRK_MASK, M_BRK_MASK );  // Set DDR bits for motor break
    146a:	49 8d       	ldd	r20, Y+25	; 0x19
    146c:	24 2f       	mov	r18, r20
    146e:	6a e2       	ldi	r22, 0x2A	; 42
    1470:	70 e0       	ldi	r23, 0x00	; 0
    1472:	ce 01       	movw	r24, r28
    1474:	00 dc       	rcall	.-2048   	; 0xc76 <_ZN5PMMIO11SetPortBitsEPVhhh>
              &PORTC, &DDRC, &PORTD, &DDRD,   // M_DIR_PORT, M_DIR_PORT DDR, M_BRK_PORT, M_BRK_PORT DDR
              0x00, 0x04, 0x08, 0x0C,  // M_DIR_OPEN, M_DIR_FWD, M_DIR_REV, M_DIR_ERROR, M_DIR_MASK
              1, 100, 0,              // M_STRT_SPD, M_MAX_SPD, M_MIN_SPD
              750, 100, 100,           // M_STP_DUR, M_OPEN_DUR, M_CLOS_DUR
              0x01, 0x02 )             // M_BRK_ENABLED, M_BRK_MASK
  {}
    1476:	df 91       	pop	r29
    1478:	cf 91       	pop	r28
    147a:	1f 91       	pop	r17
    147c:	0f 91       	pop	r16
    147e:	08 95       	ret

00001480 <main>:




int main( void )
{
    1480:	cf 93       	push	r28
    1482:	df 93       	push	r29
    1484:	cd b7       	in	r28, 0x3d	; 61
    1486:	de b7       	in	r29, 0x3e	; 62
    1488:	c4 5e       	subi	r28, 0xE4	; 228
    148a:	d1 09       	sbc	r29, r1
    148c:	0f b6       	in	r0, 0x3f	; 63
    148e:	f8 94       	cli
    1490:	de bf       	out	0x3e, r29	; 62
    1492:	0f be       	out	0x3f, r0	; 63
    1494:	cd bf       	out	0x3d, r28	; 61
    void SetTimer2IntFlag( void );
    void ClrTimer2IntFlag( void );

  public:
    Timer2OI( void )
    {
    1496:	ce 01       	movw	r24, r28
    1498:	01 96       	adiw	r24, 0x01	; 1
    149a:	22 d2       	rcall	.+1092   	; 0x18e0 <_ZN9TimerBaseC1Ev>
      // Set Normal Mode, Internal Clk, Prescaler 64
      // TCCRA = (2 << FOC2) | (0 << WGM20) | (0 << COM21) | (0 << ) COM20) | (0 << WGM21) |
      //         (0 << CS22) | (1 << CS21) | (1 << CS20)
      TCCR2A = NORM_INTCLK_CS64;
    149c:	10 92 b0 00 	sts	0x00B0, r1
          TCCR2B = 0x04;
    14a0:	84 e0       	ldi	r24, 0x04	; 4
    14a2:	80 93 b1 00 	sts	0x00B1, r24
      // Enable Overflow Interrupt
      // TIMSK = (0 << OCIE2) | (1 << TOIE2)
      TIMSK2 |= OVERFLOW_INT;
    14a6:	e0 e7       	ldi	r30, 0x70	; 112
    14a8:	f0 e0       	ldi	r31, 0x00	; 0
    14aa:	80 81       	ld	r24, Z
    14ac:	81 60       	ori	r24, 0x01	; 1
    14ae:	80 83       	st	Z, r24

      // Preload timer with precalculated value (1ms), Fclk = 16MHz
      TCNT2 = TMR8BITOI::MILSEC_TIMER;
    14b0:	86 e0       	ldi	r24, 0x06	; 6
    14b2:	80 93 b2 00 	sts	0x00B2, r24

      TMR2OI::TIMER2_INT = false;
    14b6:	10 92 07 02 	sts	0x0207, r1
    14ba:	10 92 06 02 	sts	0x0206, r1
    unsigned int GetDutyCycle( void );   // returns % duty cycle (0-100)
    void SetDutyCycle( unsigned int );   // set % duty cycle (0-100)

    PWMPFC( volatile uint16_t *ocr, unsigned long const max_dc, unsigned int const shift_dc )
    {
      OCR = ocr;
    14be:	88 ea       	ldi	r24, 0xA8	; 168
    14c0:	90 e0       	ldi	r25, 0x00	; 0
    14c2:	c5 52       	subi	r28, 0x25	; 37
    14c4:	df 4f       	sbci	r29, 0xFF	; 255
    14c6:	99 83       	std	Y+1, r25	; 0x01
    14c8:	88 83       	st	Y, r24
    14ca:	cb 5d       	subi	r28, 0xDB	; 219
    14cc:	d0 40       	sbci	r29, 0x00	; 0
      PWM_Max_DC = max_dc;
    14ce:	0f 2e       	mov	r0, r31
    14d0:	f0 e9       	ldi	r31, 0x90	; 144
    14d2:	4f 2e       	mov	r4, r31
    14d4:	55 24       	eor	r5, r5
    14d6:	53 94       	inc	r5
    14d8:	61 2c       	mov	r6, r1
    14da:	71 2c       	mov	r7, r1
    14dc:	f0 2d       	mov	r31, r0
    14de:	c3 52       	subi	r28, 0x23	; 35
    14e0:	df 4f       	sbci	r29, 0xFF	; 255
    14e2:	48 82       	st	Y, r4
    14e4:	59 82       	std	Y+1, r5	; 0x01
    14e6:	6a 82       	std	Y+2, r6	; 0x02
    14e8:	7b 82       	std	Y+3, r7	; 0x03
    14ea:	cd 5d       	subi	r28, 0xDD	; 221
    14ec:	d0 40       	sbci	r29, 0x00	; 0
      PWM_Shift_DC = shift_dc;
    14ee:	68 94       	set
    14f0:	aa 24       	eor	r10, r10
    14f2:	a1 f8       	bld	r10, 1
    14f4:	b1 2c       	mov	r11, r1
    14f6:	cf 51       	subi	r28, 0x1F	; 31
    14f8:	df 4f       	sbci	r29, 0xFF	; 255
    14fa:	b9 82       	std	Y+1, r11	; 0x01
    14fc:	a8 82       	st	Y, r10
    14fe:	c1 5e       	subi	r28, 0xE1	; 225
    1500:	d0 40       	sbci	r29, 0x00	; 0
{
  public:
    PWM4PFCPH3( void ) : PWMPFC( &OCR4A, PWM4::MAX_DC, PWM4::SHIFT_DC )
    {
      // Duty Cycle 0%
      SetDutyCycle( 0 );
    1502:	60 e0       	ldi	r22, 0x00	; 0
    1504:	70 e0       	ldi	r23, 0x00	; 0
    1506:	ce 01       	movw	r24, r28
    1508:	85 52       	subi	r24, 0x25	; 37
    150a:	9f 4f       	sbci	r25, 0xFF	; 255
    150c:	e5 db       	rcall	.-2102   	; 0xcd8 <_ZN6PWMPFC12SetDutyCycleEj>

      // Clear Timer Int Flag
      TIFR4 &= 0x01;
    150e:	89 b3       	in	r24, 0x19	; 25
    1510:	81 70       	andi	r24, 0x01	; 1
    1512:	89 bb       	out	0x19, r24	; 25

      // Set PWM Mode -> Phase & Frequency Correct (ie WGMn 1:0 = 0), non-inverted (COMnx1:0 = 2), inv (COMnx1:0 = 3)
      TCCR4A |= (1 << COM4A1) | (1 << COM4A0) | (0 << COM4B1) | (0 << COM4B0) | (0 << COM4C1) | (0 << COM4C0) |
                (0 << WGM41 ) | (0 << WGM40);
    1514:	0f 2e       	mov	r0, r31
    1516:	f0 ea       	ldi	r31, 0xA0	; 160
    1518:	ef 2e       	mov	r14, r31
    151a:	f1 2c       	mov	r15, r1
    151c:	f0 2d       	mov	r31, r0
    151e:	f7 01       	movw	r30, r14
    1520:	80 81       	ld	r24, Z
    1522:	80 6c       	ori	r24, 0xC0	; 192
    1524:	80 83       	st	Z, r24

      // Set PWM Mode -> Phase & Frequency Correct (ie WGMn3 = 1, WGMn2 = 0)
      TCCR4B = (0 << ICNC4) | (0 << ICES4) | (0 << 5) | (1 << WGM43) | (0 << WGM42);
    1526:	01 ea       	ldi	r16, 0xA1	; 161
    1528:	10 e0       	ldi	r17, 0x00	; 0
    152a:	80 e1       	ldi	r24, 0x10	; 16
    152c:	f8 01       	movw	r30, r16
    152e:	80 83       	st	Z, r24

      // Set PWM Mode -> No Prescaler, Internal Clock
      TCCR4B |= PWM4::CS_PS;
    1530:	80 81       	ld	r24, Z
    1532:	81 60       	ori	r24, 0x01	; 1
    1534:	80 83       	st	Z, r24

      // Set PWM Frequency
      ICR4 = PWM4::ICR4_REG;
    1536:	0f 2e       	mov	r0, r31
    1538:	f0 e9       	ldi	r31, 0x90	; 144
    153a:	cf 2e       	mov	r12, r31
    153c:	dd 24       	eor	r13, r13
    153e:	d3 94       	inc	r13
    1540:	f0 2d       	mov	r31, r0
    1542:	e6 ea       	ldi	r30, 0xA6	; 166
    1544:	f0 e0       	ldi	r31, 0x00	; 0
    1546:	d1 82       	std	Z+1, r13	; 0x01
    1548:	c0 82       	st	Z, r12

      // Set PWM PORT Bits as Outputs
      DDRH |= (1 << DDH3);
    154a:	22 24       	eor	r2, r2
    154c:	23 94       	inc	r2
    154e:	32 2c       	mov	r3, r2
    1550:	f1 01       	movw	r30, r2
    1552:	80 81       	ld	r24, Z
    1554:	88 60       	ori	r24, 0x08	; 8
    1556:	80 83       	st	Z, r24

      // Clear Overflow Interrupt for Timer 3
      TIMSK4 &= 0x01;
    1558:	0f 2e       	mov	r0, r31
    155a:	f2 e7       	ldi	r31, 0x72	; 114
    155c:	8f 2e       	mov	r8, r31
    155e:	91 2c       	mov	r9, r1
    1560:	f0 2d       	mov	r31, r0
    1562:	f4 01       	movw	r30, r8
    1564:	80 81       	ld	r24, Z
    1566:	81 70       	andi	r24, 0x01	; 1
    1568:	80 83       	st	Z, r24
    unsigned int GetDutyCycle( void );   // returns % duty cycle (0-100)
    void SetDutyCycle( unsigned int );   // set % duty cycle (0-100)

    PWMPFC( volatile uint16_t *ocr, unsigned long const max_dc, unsigned int const shift_dc )
    {
      OCR = ocr;
    156a:	8a ea       	ldi	r24, 0xAA	; 170
    156c:	90 e0       	ldi	r25, 0x00	; 0
    156e:	cd 52       	subi	r28, 0x2D	; 45
    1570:	df 4f       	sbci	r29, 0xFF	; 255
    1572:	99 83       	std	Y+1, r25	; 0x01
    1574:	88 83       	st	Y, r24
    1576:	c3 5d       	subi	r28, 0xD3	; 211
    1578:	d0 40       	sbci	r29, 0x00	; 0
      PWM_Max_DC = max_dc;
    157a:	cb 52       	subi	r28, 0x2B	; 43
    157c:	df 4f       	sbci	r29, 0xFF	; 255
    157e:	48 82       	st	Y, r4
    1580:	59 82       	std	Y+1, r5	; 0x01
    1582:	6a 82       	std	Y+2, r6	; 0x02
    1584:	7b 82       	std	Y+3, r7	; 0x03
    1586:	c5 5d       	subi	r28, 0xD5	; 213
    1588:	d0 40       	sbci	r29, 0x00	; 0
      PWM_Shift_DC = shift_dc;
    158a:	c7 52       	subi	r28, 0x27	; 39
    158c:	df 4f       	sbci	r29, 0xFF	; 255
    158e:	b9 82       	std	Y+1, r11	; 0x01
    1590:	a8 82       	st	Y, r10
    1592:	c9 5d       	subi	r28, 0xD9	; 217
    1594:	d0 40       	sbci	r29, 0x00	; 0
{
  public:
    PWM4PFCPH4( void ) : PWMPFC( &OCR4B, PWM4::MAX_DC, PWM4::SHIFT_DC )
    {
      // Duty Cycle 0%
      SetDutyCycle( 0 );
    1596:	60 e0       	ldi	r22, 0x00	; 0
    1598:	70 e0       	ldi	r23, 0x00	; 0
    159a:	ce 01       	movw	r24, r28
    159c:	8d 52       	subi	r24, 0x2D	; 45
    159e:	9f 4f       	sbci	r25, 0xFF	; 255
    15a0:	9b db       	rcall	.-2250   	; 0xcd8 <_ZN6PWMPFC12SetDutyCycleEj>

      // Clear Timer Int Flag
      TIFR4 &= 0x01;
    15a2:	89 b3       	in	r24, 0x19	; 25
    15a4:	81 70       	andi	r24, 0x01	; 1
    15a6:	89 bb       	out	0x19, r24	; 25

      // Set PWM Mode -> Phase & Frequency Correct (ie WGMn 1:0 = 0), non-inverted (COMnx1:0 = 2), inv (COMnx1:0 = 3)
      TCCR4A |= (0 << COM4A1) | (0 << COM4A0) | (1 << COM4B1) | (1 << COM4B0) | (0 << COM4C1) | (0 << COM4C0) |
                (0 << WGM41 ) | (0 << WGM40);
    15a8:	f7 01       	movw	r30, r14
    15aa:	80 81       	ld	r24, Z
    15ac:	80 63       	ori	r24, 0x30	; 48
    15ae:	80 83       	st	Z, r24

      // Set PWM Mode -> Phase & Frequency Correct (ie WGMn3 = 1, WGMn2 = 0)
      TCCR4B = (0 << ICNC4) | (0 << ICES4) | (0 << 5) | (1 << WGM43) | (0 << WGM42);
    15b0:	80 e1       	ldi	r24, 0x10	; 16
    15b2:	f8 01       	movw	r30, r16
    15b4:	80 83       	st	Z, r24

      // Set PWM Mode -> No Prescaler, Internal Clock
      TCCR4B |= PWM4::CS_PS;
    15b6:	80 81       	ld	r24, Z
    15b8:	81 60       	ori	r24, 0x01	; 1
    15ba:	80 83       	st	Z, r24

      // Set PWM Frequency
      ICR4 = PWM4::ICR4_REG;
    15bc:	e6 ea       	ldi	r30, 0xA6	; 166
    15be:	f0 e0       	ldi	r31, 0x00	; 0
    15c0:	d1 82       	std	Z+1, r13	; 0x01
    15c2:	c0 82       	st	Z, r12

      // Set PWM PORT Bits as Outputs
      DDRH |= (1 << DDH4);
    15c4:	f1 01       	movw	r30, r2
    15c6:	80 81       	ld	r24, Z
    15c8:	80 61       	ori	r24, 0x10	; 16
    15ca:	80 83       	st	Z, r24

      // Clear Overflow Interrupt for Timer 3
      TIMSK4 &= 0x01;
    15cc:	f4 01       	movw	r30, r8
    15ce:	80 81       	ld	r24, Z
    15d0:	81 70       	andi	r24, 0x01	; 1
    15d2:	80 83       	st	Z, r24
    unsigned int GetDutyCycle( void );   // returns % duty cycle (0-100)
    void SetDutyCycle( unsigned int );   // set % duty cycle (0-100)

    PWMPFC( volatile uint16_t *ocr, unsigned long const max_dc, unsigned int const shift_dc )
    {
      OCR = ocr;
    15d4:	8c ea       	ldi	r24, 0xAC	; 172
    15d6:	90 e0       	ldi	r25, 0x00	; 0
    15d8:	c5 53       	subi	r28, 0x35	; 53
    15da:	df 4f       	sbci	r29, 0xFF	; 255
    15dc:	99 83       	std	Y+1, r25	; 0x01
    15de:	88 83       	st	Y, r24
    15e0:	cb 5c       	subi	r28, 0xCB	; 203
    15e2:	d0 40       	sbci	r29, 0x00	; 0
      PWM_Max_DC = max_dc;
    15e4:	c3 53       	subi	r28, 0x33	; 51
    15e6:	df 4f       	sbci	r29, 0xFF	; 255
    15e8:	48 82       	st	Y, r4
    15ea:	59 82       	std	Y+1, r5	; 0x01
    15ec:	6a 82       	std	Y+2, r6	; 0x02
    15ee:	7b 82       	std	Y+3, r7	; 0x03
    15f0:	cd 5c       	subi	r28, 0xCD	; 205
    15f2:	d0 40       	sbci	r29, 0x00	; 0
      PWM_Shift_DC = shift_dc;
    15f4:	cf 52       	subi	r28, 0x2F	; 47
    15f6:	df 4f       	sbci	r29, 0xFF	; 255
    15f8:	b9 82       	std	Y+1, r11	; 0x01
    15fa:	a8 82       	st	Y, r10
    15fc:	c1 5d       	subi	r28, 0xD1	; 209
    15fe:	d0 40       	sbci	r29, 0x00	; 0
{
  public:
    PWM4PFCPH5( void ) : PWMPFC( &OCR4C, PWM4::MAX_DC, PWM4::SHIFT_DC )
    {
      // Duty Cycle 0%
      SetDutyCycle( 0 );
    1600:	60 e0       	ldi	r22, 0x00	; 0
    1602:	70 e0       	ldi	r23, 0x00	; 0
    1604:	ce 01       	movw	r24, r28
    1606:	85 53       	subi	r24, 0x35	; 53
    1608:	9f 4f       	sbci	r25, 0xFF	; 255
    160a:	66 db       	rcall	.-2356   	; 0xcd8 <_ZN6PWMPFC12SetDutyCycleEj>

      // Clear Timer Int Flag
      TIFR4 &= 0x01;
    160c:	89 b3       	in	r24, 0x19	; 25
    160e:	81 70       	andi	r24, 0x01	; 1
    1610:	89 bb       	out	0x19, r24	; 25

      // Set PWM Mode -> Phase & Frequency Correct (ie WGMn 1:0 = 0), non-inverted (COMnx1:0 = 2), inv (COMnx1:0 = 3)
      TCCR4A |= (0 << COM4A1) | (0 << COM4A0) | (0 << COM4B1) | (0 << COM4B0) | (1 << COM4C1) | (1 << COM4C0) |
                (0 << WGM41 ) | (0 << WGM40);
    1612:	f7 01       	movw	r30, r14
    1614:	80 81       	ld	r24, Z
    1616:	8c 60       	ori	r24, 0x0C	; 12
    1618:	80 83       	st	Z, r24

      // Set PWM Mode -> Phase & Frequency Correct (ie WGMn3 = 1, WGMn2 = 0)
      TCCR4B = (0 << ICNC4) | (0 << ICES4) | (0 << 5) | (1 << WGM43) | (0 << WGM42);
    161a:	80 e1       	ldi	r24, 0x10	; 16
    161c:	f8 01       	movw	r30, r16
    161e:	80 83       	st	Z, r24

      // Set PWM Mode -> No Prescaler, Internal Clock
      TCCR4B |= PWM4::CS_PS;
    1620:	80 81       	ld	r24, Z
    1622:	81 60       	ori	r24, 0x01	; 1
    1624:	80 83       	st	Z, r24

      // Set PWM Frequency
      ICR4 = PWM4::ICR4_REG;
    1626:	e6 ea       	ldi	r30, 0xA6	; 166
    1628:	f0 e0       	ldi	r31, 0x00	; 0
    162a:	d1 82       	std	Z+1, r13	; 0x01
    162c:	c0 82       	st	Z, r12

      // Set PWM PORT Bits as Outputs
      DDRH |= (1 << DDH5);
    162e:	f1 01       	movw	r30, r2
    1630:	80 81       	ld	r24, Z
    1632:	80 62       	ori	r24, 0x20	; 32
    1634:	80 83       	st	Z, r24

      // Clear Overflow Interrupt for Timer 3
      TIMSK4 &= 0x01;
    1636:	f4 01       	movw	r30, r8
    1638:	80 81       	ld	r24, Z
    163a:	81 70       	andi	r24, 0x01	; 1
    163c:	80 83       	st	Z, r24

  PWM4PFCPH3 pwm4PH3;
  PWM4PFCPH4 pwm4PH4;
  PWM4PFCPH5 pwm4PH5;

  MC1 mc1( &timer2, &pwm4PH3 );
    163e:	ae 01       	movw	r20, r28
    1640:	45 52       	subi	r20, 0x25	; 37
    1642:	5f 4f       	sbci	r21, 0xFF	; 255
    1644:	be 01       	movw	r22, r28
    1646:	6f 5f       	subi	r22, 0xFF	; 255
    1648:	7f 4f       	sbci	r23, 0xFF	; 255
    164a:	ce 01       	movw	r24, r28
    164c:	88 58       	subi	r24, 0x88	; 136
    164e:	9f 4f       	sbci	r25, 0xFF	; 255
    1650:	69 de       	rcall	.-814    	; 0x1324 <_ZN3MC1C1EP9TimerBaseP6PWMPFC>
  MC2 mc2( &timer2, &pwm4PH4 );
    1652:	ae 01       	movw	r20, r28
    1654:	4d 52       	subi	r20, 0x2D	; 45
    1656:	5f 4f       	sbci	r21, 0xFF	; 255
    1658:	be 01       	movw	r22, r28
    165a:	6f 5f       	subi	r22, 0xFF	; 255
    165c:	7f 4f       	sbci	r23, 0xFF	; 255
    165e:	ce 01       	movw	r24, r28
    1660:	8f 5a       	subi	r24, 0xAF	; 175
    1662:	9f 4f       	sbci	r25, 0xFF	; 255
    1664:	b5 de       	rcall	.-662    	; 0x13d0 <_ZN3MC2C1EP9TimerBaseP6PWMPFC>
    uint8_t KSWITCH;    // Kill Switch

  public:
    MCAIDev()
    {
      M1SPEED = 0;           // Left Motor Speed
    1666:	c8 53       	subi	r28, 0x38	; 56
    1668:	df 4f       	sbci	r29, 0xFF	; 255
    166a:	18 82       	st	Y, r1
    166c:	c8 5c       	subi	r28, 0xC8	; 200
    166e:	d0 40       	sbci	r29, 0x00	; 0
      M2SPEED = 0;           // Right Motor Speed
    1670:	c7 53       	subi	r28, 0x37	; 55
    1672:	df 4f       	sbci	r29, 0xFF	; 255
    1674:	18 82       	st	Y, r1
    1676:	c9 5c       	subi	r28, 0xC9	; 201
    1678:	d0 40       	sbci	r29, 0x00	; 0
      MDIR    = 0;           // Motor Direction (Dead Zone)
    167a:	c9 53       	subi	r28, 0x39	; 57
    167c:	df 4f       	sbci	r29, 0xFF	; 255
    167e:	18 82       	st	Y, r1
    1680:	c7 5c       	subi	r28, 0xC7	; 199
    1682:	d0 40       	sbci	r29, 0x00	; 0
      LAST_M1SPEED = 0;      // Last Left Motor Speed
    1684:	cf 53       	subi	r28, 0x3F	; 63
    1686:	df 4f       	sbci	r29, 0xFF	; 255
    1688:	18 82       	st	Y, r1
    168a:	c1 5c       	subi	r28, 0xC1	; 193
    168c:	d0 40       	sbci	r29, 0x00	; 0
      LAST_M2SPEED = 0;      // Last Right Motor Speed
    168e:	ce 53       	subi	r28, 0x3E	; 62
    1690:	df 4f       	sbci	r29, 0xFF	; 255
    1692:	18 82       	st	Y, r1
    1694:	c2 5c       	subi	r28, 0xC2	; 194
    1696:	d0 40       	sbci	r29, 0x00	; 0
      LAST_MDIR    = 0;      // Last Motor Direction (Dead Zone)
    1698:	c0 54       	subi	r28, 0x40	; 64
    169a:	df 4f       	sbci	r29, 0xFF	; 255
    169c:	18 82       	st	Y, r1
    169e:	c0 5c       	subi	r28, 0xC0	; 192
    16a0:	d0 40       	sbci	r29, 0x00	; 0
      KSWITCH = false;       // Kill Switch off
    16a2:	c6 53       	subi	r28, 0x36	; 54
    16a4:	df 4f       	sbci	r29, 0xFF	; 255
    16a6:	18 82       	st	Y, r1
    16a8:	ca 5c       	subi	r28, 0xCA	; 202
    16aa:	d0 40       	sbci	r29, 0x00	; 0

  MCAIDev mcaidev;
  JSMCFSM5 jsmcfsm;

  sei(); // Enable Global Interrupt for System Timer, PWM Timer
    16ac:	78 94       	sei

  SPIClass spi;
  RF24 radio( &PORTB, &DDRB, CE_PIN, &PORTB, &DDRB, CSN_PIN, &spi );  //  Declare RF24 obj instance for nRF24L01+
    16ae:	ce 01       	movw	r24, r28
    16b0:	8d 51       	subi	r24, 0x1D	; 29
    16b2:	9f 4f       	sbci	r25, 0xFF	; 255
    16b4:	5c 01       	movw	r10, r24
    16b6:	68 94       	set
    16b8:	cc 24       	eor	r12, r12
    16ba:	c5 f8       	bld	r12, 5
    16bc:	0f 2e       	mov	r0, r31
    16be:	f4 e2       	ldi	r31, 0x24	; 36
    16c0:	ef 2e       	mov	r14, r31
    16c2:	f1 2c       	mov	r15, r1
    16c4:	f0 2d       	mov	r31, r0
    16c6:	05 e2       	ldi	r16, 0x25	; 37
    16c8:	10 e0       	ldi	r17, 0x00	; 0
    16ca:	20 e1       	ldi	r18, 0x10	; 16
    16cc:	44 e2       	ldi	r20, 0x24	; 36
    16ce:	50 e0       	ldi	r21, 0x00	; 0
    16d0:	65 e2       	ldi	r22, 0x25	; 37
    16d2:	70 e0       	ldi	r23, 0x00	; 0
    16d4:	84 54       	subi	r24, 0x44	; 68
    16d6:	91 09       	sbc	r25, r1
    16d8:	21 dc       	rcall	.-1982   	; 0xf1c <_ZN4RF24C1EPVhS1_hS1_S1_hP8SPIClass>

  radio.begin();
    16da:	ce 01       	movw	r24, r28
    16dc:	81 56       	subi	r24, 0x61	; 97
    16de:	9f 4f       	sbci	r25, 0xFF	; 255
    16e0:	8d dd       	rcall	.-1254   	; 0x11fc <_ZN4RF245beginEv>
  radio.openReadingPipe(1,pipe);
    16e2:	0f 2e       	mov	r0, r31
    16e4:	f1 ee       	ldi	r31, 0xE1	; 225
    16e6:	ef 2e       	mov	r14, r31
    16e8:	f0 2d       	mov	r31, r0
    16ea:	0f 2e       	mov	r0, r31
    16ec:	f0 ef       	ldi	r31, 0xF0	; 240
    16ee:	ff 2e       	mov	r15, r31
    16f0:	f0 2d       	mov	r31, r0
    16f2:	00 ef       	ldi	r16, 0xF0	; 240
    16f4:	18 ee       	ldi	r17, 0xE8	; 232
    16f6:	28 ee       	ldi	r18, 0xE8	; 232
    16f8:	30 e0       	ldi	r19, 0x00	; 0
    16fa:	40 e0       	ldi	r20, 0x00	; 0
    16fc:	50 e0       	ldi	r21, 0x00	; 0
    16fe:	61 e0       	ldi	r22, 0x01	; 1
    1700:	ce 01       	movw	r24, r28
    1702:	81 56       	subi	r24, 0x61	; 97
    1704:	9f 4f       	sbci	r25, 0xFF	; 255
    1706:	ad dc       	rcall	.-1702   	; 0x1062 <_ZN4RF2415openReadingPipeEhy>
  radio.startListening();
    1708:	ce 01       	movw	r24, r28
    170a:	81 56       	subi	r24, 0x61	; 97
    170c:	9f 4f       	sbci	r25, 0xFF	; 255
    170e:	3f dc       	rcall	.-1922   	; 0xf8e <_ZN4RF2414startListeningEv>

  mcaidev.SetM1Speed( 0 );
    1710:	60 e0       	ldi	r22, 0x00	; 0
    1712:	ce 01       	movw	r24, r28
    1714:	80 54       	subi	r24, 0x40	; 64
    1716:	9f 4f       	sbci	r25, 0xFF	; 255
    1718:	47 d9       	rcall	.-3442   	; 0x9a8 <_ZN7MCAIDev10SetM1SpeedEh>
  mcaidev.SetM2Speed( 0 );
    171a:	60 e0       	ldi	r22, 0x00	; 0
    171c:	ce 01       	movw	r24, r28
    171e:	80 54       	subi	r24, 0x40	; 64
    1720:	9f 4f       	sbci	r25, 0xFF	; 255
    1722:	56 d9       	rcall	.-3412   	; 0x9d0 <_ZN7MCAIDev10SetM2SpeedEh>
  mcaidev.SetMDir( 0 );
    1724:	60 e0       	ldi	r22, 0x00	; 0
    1726:	ce 01       	movw	r24, r28
    1728:	80 54       	subi	r24, 0x40	; 64
    172a:	9f 4f       	sbci	r25, 0xFF	; 255
    172c:	65 d9       	rcall	.-3382   	; 0x9f8 <_ZN7MCAIDev7SetMDirEh>

  DDRC = 0xFF;
    172e:	8f ef       	ldi	r24, 0xFF	; 255
    1730:	87 b9       	out	0x07, r24	; 7
  DDRD = 0xFF;
    1732:	8a b9       	out	0x0a, r24	; 10
  DDRJ = 0xFF;
    1734:	80 93 04 01 	sts	0x0104, r24
  DDRH = 0xFF;
    1738:	f1 01       	movw	r30, r2
    173a:	80 83       	st	Z, r24

  timer2.StartTimer( T2OI::T2OI0, 5000 );
    173c:	28 e8       	ldi	r18, 0x88	; 136
    173e:	33 e1       	ldi	r19, 0x13	; 19
    1740:	40 e0       	ldi	r20, 0x00	; 0
    1742:	50 e0       	ldi	r21, 0x00	; 0
    1744:	60 e0       	ldi	r22, 0x00	; 0
    1746:	ce 01       	movw	r24, r28
    1748:	01 96       	adiw	r24, 0x01	; 1
    174a:	a4 d0       	rcall	.+328    	; 0x1894 <_ZN8Timer2OI10StartTimerEN4T2OI1tEm>
    aidev = mcaidev.Driver( &radio );
    if( aidev == false )
    {
      if( timer2.TimerDone( T2OI::T2OI0 ) == true )
      {
        PORTJ = 0XFF;
    174c:	0f 2e       	mov	r0, r31
    174e:	f5 e0       	ldi	r31, 0x05	; 5
    1750:	ef 2e       	mov	r14, r31
    1752:	ff 24       	eor	r15, r15
    1754:	f3 94       	inc	r15
    1756:	f0 2d       	mov	r31, r0
    1758:	1f ef       	ldi	r17, 0xFF	; 255

  timer2.StartTimer( T2OI::T2OI0, 5000 );

  while( true )
  {
    timer2.UpdateTimers();
    175a:	ce 01       	movw	r24, r28
    175c:	01 96       	adiw	r24, 0x01	; 1
    175e:	6b d0       	rcall	.+214    	; 0x1836 <_ZN8Timer2OI12UpdateTimersEv>

    aidev = mcaidev.Driver( &radio );
    1760:	be 01       	movw	r22, r28
    1762:	61 56       	subi	r22, 0x61	; 97
    1764:	7f 4f       	sbci	r23, 0xFF	; 255
    1766:	ce 01       	movw	r24, r28
    1768:	80 54       	subi	r24, 0x40	; 64
    176a:	9f 4f       	sbci	r25, 0xFF	; 255
    176c:	56 d9       	rcall	.-3412   	; 0xa1a <_ZN7MCAIDev6DriverEP4RF24>
    if( aidev == false )
    176e:	81 11       	cpse	r24, r1
    1770:	09 c0       	rjmp	.+18     	; 0x1784 <main+0x304>
    {
      if( timer2.TimerDone( T2OI::T2OI0 ) == true )
    1772:	60 e0       	ldi	r22, 0x00	; 0
    1774:	ce 01       	movw	r24, r28
    1776:	01 96       	adiw	r24, 0x01	; 1
    1778:	9c d0       	rcall	.+312    	; 0x18b2 <_ZN8Timer2OI9TimerDoneEN4T2OI1tE>
    177a:	01 97       	sbiw	r24, 0x01	; 1
    177c:	71 f7       	brne	.-36     	; 0x175a <main+0x2da>
      {
        PORTJ = 0XFF;
    177e:	f7 01       	movw	r30, r14
    1780:	10 83       	st	Z, r17
    1782:	eb cf       	rjmp	.-42     	; 0x175a <main+0x2da>
      }
    }
    else
    {
      timer2.StartTimer( T2OI::T2OI0, 5000 );
    1784:	28 e8       	ldi	r18, 0x88	; 136
    1786:	33 e1       	ldi	r19, 0x13	; 19
    1788:	40 e0       	ldi	r20, 0x00	; 0
    178a:	50 e0       	ldi	r21, 0x00	; 0
    178c:	60 e0       	ldi	r22, 0x00	; 0
    178e:	ce 01       	movw	r24, r28
    1790:	01 96       	adiw	r24, 0x01	; 1
    1792:	80 d0       	rcall	.+256    	; 0x1894 <_ZN8Timer2OI10StartTimerEN4T2OI1tEm>

      jsmcfsm.ExecFSM5State( &mc1, &mc2, &mcaidev );
    1794:	9e 01       	movw	r18, r28
    1796:	20 54       	subi	r18, 0x40	; 64
    1798:	3f 4f       	sbci	r19, 0xFF	; 255
    179a:	ae 01       	movw	r20, r28
    179c:	4f 5a       	subi	r20, 0xAF	; 175
    179e:	5f 4f       	sbci	r21, 0xFF	; 255
    17a0:	be 01       	movw	r22, r28
    17a2:	68 58       	subi	r22, 0x88	; 136
    17a4:	7f 4f       	sbci	r23, 0xFF	; 255
    17a6:	ce 01       	movw	r24, r28
    17a8:	8c 51       	subi	r24, 0x1C	; 28
    17aa:	9f 4f       	sbci	r25, 0xFF	; 255
    17ac:	0e 94 dc 02 	call	0x5b8	; 0x5b8 <_ZN8JSMCFSM513ExecFSM5StateEP15MotorControllerS1_P7MCAIDev>
      mc1.MCDriver();
    17b0:	ce 01       	movw	r24, r28
    17b2:	88 58       	subi	r24, 0x88	; 136
    17b4:	9f 4f       	sbci	r25, 0xFF	; 255
    17b6:	d6 d8       	rcall	.-3668   	; 0x964 <_ZN15MotorController8MCDriverEv>
      mc2.MCDriver();
    17b8:	ce 01       	movw	r24, r28
    17ba:	8f 5a       	subi	r24, 0xAF	; 175
    17bc:	9f 4f       	sbci	r25, 0xFF	; 255
    17be:	d2 d8       	rcall	.-3676   	; 0x964 <_ZN15MotorController8MCDriverEv>
	  uint8_t speed1, speed2, dir;
	  speed1 = mcaidev.GetM1Speed();
    17c0:	ce 01       	movw	r24, r28
    17c2:	80 54       	subi	r24, 0x40	; 64
    17c4:	9f 4f       	sbci	r25, 0xFF	; 255
    17c6:	ed d8       	rcall	.-3622   	; 0x9a2 <_ZN7MCAIDev10GetM1SpeedEv>
	  speed2 = mcaidev.GetM2Speed();
    17c8:	ce 01       	movw	r24, r28
    17ca:	80 54       	subi	r24, 0x40	; 64
    17cc:	9f 4f       	sbci	r25, 0xFF	; 255
    17ce:	fd d8       	rcall	.-3590   	; 0x9ca <_ZN7MCAIDev10GetM2SpeedEv>
      if( mcaidev.IsKillSwitchActive() == true ) {
    17d0:	ce 01       	movw	r24, r28
    17d2:	80 54       	subi	r24, 0x40	; 64
    17d4:	9f 4f       	sbci	r25, 0xFF	; 255
    17d6:	59 d9       	rcall	.-3406   	; 0xa8a <_ZN7MCAIDev18IsKillSwitchActiveEv>
    17d8:	c0 cf       	rjmp	.-128    	; 0x175a <main+0x2da>

000017da <__vector_15>:
}

uint32_t millis( void )
{
  return TMR2OI::TIMER2_CNT;
}
    17da:	1f 92       	push	r1
    17dc:	0f 92       	push	r0
    17de:	0f b6       	in	r0, 0x3f	; 63
    17e0:	0f 92       	push	r0
    17e2:	11 24       	eor	r1, r1
    17e4:	8f 93       	push	r24
    17e6:	9f 93       	push	r25
    17e8:	af 93       	push	r26
    17ea:	bf 93       	push	r27
    17ec:	80 91 0a 02 	lds	r24, 0x020A
    17f0:	90 91 0b 02 	lds	r25, 0x020B
    17f4:	a0 91 0c 02 	lds	r26, 0x020C
    17f8:	b0 91 0d 02 	lds	r27, 0x020D
    17fc:	01 96       	adiw	r24, 0x01	; 1
    17fe:	a1 1d       	adc	r26, r1
    1800:	b1 1d       	adc	r27, r1
    1802:	80 93 0a 02 	sts	0x020A, r24
    1806:	90 93 0b 02 	sts	0x020B, r25
    180a:	a0 93 0c 02 	sts	0x020C, r26
    180e:	b0 93 0d 02 	sts	0x020D, r27
    1812:	86 e0       	ldi	r24, 0x06	; 6
    1814:	80 93 b2 00 	sts	0x00B2, r24
    1818:	81 e0       	ldi	r24, 0x01	; 1
    181a:	90 e0       	ldi	r25, 0x00	; 0
    181c:	90 93 09 02 	sts	0x0209, r25
    1820:	80 93 08 02 	sts	0x0208, r24
    1824:	bf 91       	pop	r27
    1826:	af 91       	pop	r26
    1828:	9f 91       	pop	r25
    182a:	8f 91       	pop	r24
    182c:	0f 90       	pop	r0
    182e:	0f be       	out	0x3f, r0	; 63
    1830:	0f 90       	pop	r0
    1832:	1f 90       	pop	r1
    1834:	18 95       	reti

00001836 <_ZN8Timer2OI12UpdateTimersEv>:
        Parameters: None
        Description: Decreases the timer value for each timer in the array.
*/

unsigned int Timer2OI::UpdateTimers( void )
{
    1836:	cf 93       	push	r28
    1838:	df 93       	push	r29
        Description: Returns whether the interrupt flag is true or false in a 16 bit representation.
*/

unsigned int Timer2OI::GetTimer2IntFlag( void )
{
  return TMR2OI::TIMER2_INT;
    183a:	20 91 08 02 	lds	r18, 0x0208
    183e:	30 91 09 02 	lds	r19, 0x0209
        Description: Decreases the timer value for each timer in the array.
*/

unsigned int Timer2OI::UpdateTimers( void )
{
  if( !GetTimer2IntFlag() ) return false;
    1842:	21 15       	cp	r18, r1
    1844:	31 05       	cpc	r19, r1
    1846:	11 f1       	breq	.+68     	; 0x188c <_ZN8Timer2OI12UpdateTimersEv+0x56>
    1848:	ec 01       	movw	r28, r24

  UpdateObjTimers();
    184a:	95 d0       	rcall	.+298    	; 0x1976 <_ZN9TimerBase15UpdateObjTimersEv>
        Description: Sets the interrupt flag to false, effectively clearing it.
*/

void Timer2OI::ClrTimer2IntFlag( void )
{
  TMR2OI::TIMER2_INT = false;
    184c:	10 92 09 02 	sts	0x0209, r1
    1850:	10 92 08 02 	sts	0x0208, r1
    1854:	fe 01       	movw	r30, r28
    1856:	b8 96       	adiw	r30, 0x28	; 40
    1858:	ce 01       	movw	r24, r28
    185a:	80 5b       	subi	r24, 0xB0	; 176
    185c:	9f 4f       	sbci	r25, 0xFF	; 255

  UpdateObjTimers();
  ClrTimer2IntFlag();

  for( unsigned int i = 0; i < TIMER2OI_ARRAY_SIZE; ++i )
    if( SysTimer[i] != 0 ) --SysTimer[i];
    185e:	40 81       	ld	r20, Z
    1860:	51 81       	ldd	r21, Z+1	; 0x01
    1862:	62 81       	ldd	r22, Z+2	; 0x02
    1864:	73 81       	ldd	r23, Z+3	; 0x03
    1866:	41 15       	cp	r20, r1
    1868:	51 05       	cpc	r21, r1
    186a:	61 05       	cpc	r22, r1
    186c:	71 05       	cpc	r23, r1
    186e:	41 f0       	breq	.+16     	; 0x1880 <_ZN8Timer2OI12UpdateTimersEv+0x4a>
    1870:	41 50       	subi	r20, 0x01	; 1
    1872:	51 09       	sbc	r21, r1
    1874:	61 09       	sbc	r22, r1
    1876:	71 09       	sbc	r23, r1
    1878:	40 83       	st	Z, r20
    187a:	51 83       	std	Z+1, r21	; 0x01
    187c:	62 83       	std	Z+2, r22	; 0x02
    187e:	73 83       	std	Z+3, r23	; 0x03
    1880:	34 96       	adiw	r30, 0x04	; 4
  if( !GetTimer2IntFlag() ) return false;

  UpdateObjTimers();
  ClrTimer2IntFlag();

  for( unsigned int i = 0; i < TIMER2OI_ARRAY_SIZE; ++i )
    1882:	e8 17       	cp	r30, r24
    1884:	f9 07       	cpc	r31, r25
    1886:	59 f7       	brne	.-42     	; 0x185e <_ZN8Timer2OI12UpdateTimersEv+0x28>
    if( SysTimer[i] != 0 ) --SysTimer[i];

  return true;
    1888:	21 e0       	ldi	r18, 0x01	; 1
    188a:	30 e0       	ldi	r19, 0x00	; 0
}
    188c:	c9 01       	movw	r24, r18
    188e:	df 91       	pop	r29
    1890:	cf 91       	pop	r28
    1892:	08 95       	ret

00001894 <_ZN8Timer2OI10StartTimerEN4T2OI1tEm>:

void Timer2OI::StartTimer( const T2OI::t tnum, unsigned long tval )
{
  if( tnum >= TIMER2OI_ARRAY_SIZE ) SystemError();

  SysTimer[tnum] = tval;
    1894:	70 e0       	ldi	r23, 0x00	; 0
    1896:	66 5f       	subi	r22, 0xF6	; 246
    1898:	7f 4f       	sbci	r23, 0xFF	; 255
    189a:	66 0f       	add	r22, r22
    189c:	77 1f       	adc	r23, r23
    189e:	66 0f       	add	r22, r22
    18a0:	77 1f       	adc	r23, r23
    18a2:	86 0f       	add	r24, r22
    18a4:	97 1f       	adc	r25, r23
    18a6:	fc 01       	movw	r30, r24
    18a8:	20 83       	st	Z, r18
    18aa:	31 83       	std	Z+1, r19	; 0x01
    18ac:	42 83       	std	Z+2, r20	; 0x02
    18ae:	53 83       	std	Z+3, r21	; 0x03
    18b0:	08 95       	ret

000018b2 <_ZN8Timer2OI9TimerDoneEN4T2OI1tE>:

unsigned int Timer2OI::TimerDone( const T2OI::t tnum )
{
  if( tnum >= TIMER2OI_ARRAY_SIZE ) SystemError();

  if( SysTimer[tnum] == 0 ) return true;
    18b2:	70 e0       	ldi	r23, 0x00	; 0
    18b4:	66 5f       	subi	r22, 0xF6	; 246
    18b6:	7f 4f       	sbci	r23, 0xFF	; 255
    18b8:	66 0f       	add	r22, r22
    18ba:	77 1f       	adc	r23, r23
    18bc:	66 0f       	add	r22, r22
    18be:	77 1f       	adc	r23, r23
    18c0:	fc 01       	movw	r30, r24
    18c2:	e6 0f       	add	r30, r22
    18c4:	f7 1f       	adc	r31, r23
    18c6:	81 e0       	ldi	r24, 0x01	; 1
    18c8:	90 e0       	ldi	r25, 0x00	; 0
    18ca:	40 81       	ld	r20, Z
    18cc:	51 81       	ldd	r21, Z+1	; 0x01
    18ce:	62 81       	ldd	r22, Z+2	; 0x02
    18d0:	73 81       	ldd	r23, Z+3	; 0x03
    18d2:	45 2b       	or	r20, r21
    18d4:	46 2b       	or	r20, r22
    18d6:	47 2b       	or	r20, r23
    18d8:	11 f0       	breq	.+4      	; 0x18de <_ZN8Timer2OI9TimerDoneEN4T2OI1tE+0x2c>
    18da:	80 e0       	ldi	r24, 0x00	; 0
    18dc:	90 e0       	ldi	r25, 0x00	; 0
  return false;
}
    18de:	08 95       	ret

000018e0 <_ZN9TimerBaseC1Ev>:
      return true;
    }
  }

  return false;
}
    18e0:	fc 01       	movw	r30, r24
    18e2:	88 96       	adiw	r24, 0x28	; 40
    18e4:	11 92       	st	Z+, r1
    18e6:	11 92       	st	Z+, r1
    18e8:	e8 17       	cp	r30, r24
    18ea:	f9 07       	cpc	r31, r25
    18ec:	d9 f7       	brne	.-10     	; 0x18e4 <_ZN9TimerBaseC1Ev+0x4>
    18ee:	08 95       	ret

000018f0 <_ZN9TimerBase12AssignObjectEP9ObjTimers>:
    18f0:	cf 93       	push	r28
    18f2:	df 93       	push	r29
    18f4:	1f 92       	push	r1
    18f6:	1f 92       	push	r1
    18f8:	cd b7       	in	r28, 0x3d	; 61
    18fa:	de b7       	in	r29, 0x3e	; 62
    18fc:	1a 82       	std	Y+2, r1	; 0x02
    18fe:	19 82       	std	Y+1, r1	; 0x01
    1900:	29 81       	ldd	r18, Y+1	; 0x01
    1902:	3a 81       	ldd	r19, Y+2	; 0x02
    1904:	24 31       	cpi	r18, 0x14	; 20
    1906:	31 05       	cpc	r19, r1
    1908:	60 f5       	brcc	.+88     	; 0x1962 <_ZN9TimerBase12AssignObjectEP9ObjTimers+0x72>
    190a:	e9 81       	ldd	r30, Y+1	; 0x01
    190c:	fa 81       	ldd	r31, Y+2	; 0x02
    190e:	ee 0f       	add	r30, r30
    1910:	ff 1f       	adc	r31, r31
    1912:	e8 0f       	add	r30, r24
    1914:	f9 1f       	adc	r31, r25
    1916:	20 81       	ld	r18, Z
    1918:	31 81       	ldd	r19, Z+1	; 0x01
    191a:	23 2b       	or	r18, r19
    191c:	b9 f4       	brne	.+46     	; 0x194c <_ZN9TimerBase12AssignObjectEP9ObjTimers+0x5c>
    191e:	0a c0       	rjmp	.+20     	; 0x1934 <_ZN9TimerBase12AssignObjectEP9ObjTimers+0x44>
    1920:	e9 81       	ldd	r30, Y+1	; 0x01
    1922:	fa 81       	ldd	r31, Y+2	; 0x02
    1924:	ee 0f       	add	r30, r30
    1926:	ff 1f       	adc	r31, r31
    1928:	e8 0f       	add	r30, r24
    192a:	f9 1f       	adc	r31, r25
    192c:	20 81       	ld	r18, Z
    192e:	31 81       	ldd	r19, Z+1	; 0x01
    1930:	23 2b       	or	r18, r19
    1932:	61 f4       	brne	.+24     	; 0x194c <_ZN9TimerBase12AssignObjectEP9ObjTimers+0x5c>
    1934:	29 81       	ldd	r18, Y+1	; 0x01
    1936:	3a 81       	ldd	r19, Y+2	; 0x02
    1938:	22 0f       	add	r18, r18
    193a:	33 1f       	adc	r19, r19
    193c:	fc 01       	movw	r30, r24
    193e:	e2 0f       	add	r30, r18
    1940:	f3 1f       	adc	r31, r19
    1942:	71 83       	std	Z+1, r23	; 0x01
    1944:	60 83       	st	Z, r22
    1946:	81 e0       	ldi	r24, 0x01	; 1
    1948:	90 e0       	ldi	r25, 0x00	; 0
    194a:	10 c0       	rjmp	.+32     	; 0x196c <_ZN9TimerBase12AssignObjectEP9ObjTimers+0x7c>
    194c:	29 81       	ldd	r18, Y+1	; 0x01
    194e:	3a 81       	ldd	r19, Y+2	; 0x02
    1950:	2f 5f       	subi	r18, 0xFF	; 255
    1952:	3f 4f       	sbci	r19, 0xFF	; 255
    1954:	3a 83       	std	Y+2, r19	; 0x02
    1956:	29 83       	std	Y+1, r18	; 0x01
    1958:	29 81       	ldd	r18, Y+1	; 0x01
    195a:	3a 81       	ldd	r19, Y+2	; 0x02
    195c:	24 31       	cpi	r18, 0x14	; 20
    195e:	31 05       	cpc	r19, r1
    1960:	f8 f2       	brcs	.-66     	; 0x1920 <_ZN9TimerBase12AssignObjectEP9ObjTimers+0x30>
    1962:	60 e0       	ldi	r22, 0x00	; 0
    1964:	70 e0       	ldi	r23, 0x00	; 0
    1966:	d5 dc       	rcall	.-1622   	; 0x1312 <_ZN11SystemError8SysErrorEj>
    1968:	80 e0       	ldi	r24, 0x00	; 0
    196a:	90 e0       	ldi	r25, 0x00	; 0
    196c:	0f 90       	pop	r0
    196e:	0f 90       	pop	r0
    1970:	df 91       	pop	r29
    1972:	cf 91       	pop	r28
    1974:	08 95       	ret

00001976 <_ZN9TimerBase15UpdateObjTimersEv>:

void TimerBase::UpdateObjTimers( void )
{
    1976:	0f 93       	push	r16
    1978:	1f 93       	push	r17
    197a:	cf 93       	push	r28
    197c:	df 93       	push	r29
    197e:	1f 92       	push	r1
    1980:	1f 92       	push	r1
    1982:	cd b7       	in	r28, 0x3d	; 61
    1984:	de b7       	in	r29, 0x3e	; 62
    1986:	8c 01       	movw	r16, r24
  volatile unsigned int i = 0;
    1988:	1a 82       	std	Y+2, r1	; 0x02
    198a:	19 82       	std	Y+1, r1	; 0x01

  while( i < OBJPTR_SIZE )
    198c:	89 81       	ldd	r24, Y+1	; 0x01
    198e:	9a 81       	ldd	r25, Y+2	; 0x02
    1990:	44 97       	sbiw	r24, 0x14	; 20
    1992:	e0 f4       	brcc	.+56     	; 0x19cc <_ZN9TimerBase15UpdateObjTimersEv+0x56>
  {
    if( ObjPtr[ i ] != 0 )
    1994:	e9 81       	ldd	r30, Y+1	; 0x01
    1996:	fa 81       	ldd	r31, Y+2	; 0x02
    1998:	ee 0f       	add	r30, r30
    199a:	ff 1f       	adc	r31, r31
    199c:	e0 0f       	add	r30, r16
    199e:	f1 1f       	adc	r31, r17
    19a0:	80 81       	ld	r24, Z
    19a2:	91 81       	ldd	r25, Z+1	; 0x01
    19a4:	89 2b       	or	r24, r25
    19a6:	49 f0       	breq	.+18     	; 0x19ba <_ZN9TimerBase15UpdateObjTimersEv+0x44>
      ObjPtr[i]->UpdateTimers();
    19a8:	e9 81       	ldd	r30, Y+1	; 0x01
    19aa:	fa 81       	ldd	r31, Y+2	; 0x02
    19ac:	ee 0f       	add	r30, r30
    19ae:	ff 1f       	adc	r31, r31
    19b0:	e0 0f       	add	r30, r16
    19b2:	f1 1f       	adc	r31, r17
    19b4:	80 81       	ld	r24, Z
    19b6:	91 81       	ldd	r25, Z+1	; 0x01
    19b8:	2b d9       	rcall	.-3498   	; 0xc10 <_ZN9ObjTimers12UpdateTimersEv>

    ++i;
    19ba:	89 81       	ldd	r24, Y+1	; 0x01
    19bc:	9a 81       	ldd	r25, Y+2	; 0x02
    19be:	01 96       	adiw	r24, 0x01	; 1
    19c0:	9a 83       	std	Y+2, r25	; 0x02
    19c2:	89 83       	std	Y+1, r24	; 0x01

void TimerBase::UpdateObjTimers( void )
{
  volatile unsigned int i = 0;

  while( i < OBJPTR_SIZE )
    19c4:	89 81       	ldd	r24, Y+1	; 0x01
    19c6:	9a 81       	ldd	r25, Y+2	; 0x02
    19c8:	44 97       	sbiw	r24, 0x14	; 20
    19ca:	20 f3       	brcs	.-56     	; 0x1994 <_ZN9TimerBase15UpdateObjTimersEv+0x1e>
    if( ObjPtr[ i ] != 0 )
      ObjPtr[i]->UpdateTimers();

    ++i;
  }
}
    19cc:	0f 90       	pop	r0
    19ce:	0f 90       	pop	r0
    19d0:	df 91       	pop	r29
    19d2:	cf 91       	pop	r28
    19d4:	1f 91       	pop	r17
    19d6:	0f 91       	pop	r16
    19d8:	08 95       	ret

000019da <__tablejump2__>:
    19da:	ee 0f       	add	r30, r30
    19dc:	ff 1f       	adc	r31, r31
    19de:	88 1f       	adc	r24, r24
    19e0:	8b bf       	out	0x3b, r24	; 59
    19e2:	07 90       	elpm	r0, Z+
    19e4:	f6 91       	elpm	r31, Z
    19e6:	e0 2d       	mov	r30, r0
    19e8:	19 94       	eijmp

000019ea <__cmpdi2_s8>:
    19ea:	00 24       	eor	r0, r0
    19ec:	a7 fd       	sbrc	r26, 7
    19ee:	00 94       	com	r0
    19f0:	2a 17       	cp	r18, r26
    19f2:	30 05       	cpc	r19, r0
    19f4:	40 05       	cpc	r20, r0
    19f6:	50 05       	cpc	r21, r0
    19f8:	60 05       	cpc	r22, r0
    19fa:	70 05       	cpc	r23, r0
    19fc:	80 05       	cpc	r24, r0
    19fe:	90 05       	cpc	r25, r0
    1a00:	08 95       	ret

00001a02 <malloc>:
    1a02:	cf 93       	push	r28
    1a04:	df 93       	push	r29
    1a06:	82 30       	cpi	r24, 0x02	; 2
    1a08:	91 05       	cpc	r25, r1
    1a0a:	10 f4       	brcc	.+4      	; 0x1a10 <malloc+0xe>
    1a0c:	82 e0       	ldi	r24, 0x02	; 2
    1a0e:	90 e0       	ldi	r25, 0x00	; 0
    1a10:	e0 91 10 02 	lds	r30, 0x0210
    1a14:	f0 91 11 02 	lds	r31, 0x0211
    1a18:	20 e0       	ldi	r18, 0x00	; 0
    1a1a:	30 e0       	ldi	r19, 0x00	; 0
    1a1c:	c0 e0       	ldi	r28, 0x00	; 0
    1a1e:	d0 e0       	ldi	r29, 0x00	; 0
    1a20:	30 97       	sbiw	r30, 0x00	; 0
    1a22:	11 f1       	breq	.+68     	; 0x1a68 <malloc+0x66>
    1a24:	40 81       	ld	r20, Z
    1a26:	51 81       	ldd	r21, Z+1	; 0x01
    1a28:	48 17       	cp	r20, r24
    1a2a:	59 07       	cpc	r21, r25
    1a2c:	c0 f0       	brcs	.+48     	; 0x1a5e <malloc+0x5c>
    1a2e:	48 17       	cp	r20, r24
    1a30:	59 07       	cpc	r21, r25
    1a32:	61 f4       	brne	.+24     	; 0x1a4c <malloc+0x4a>
    1a34:	82 81       	ldd	r24, Z+2	; 0x02
    1a36:	93 81       	ldd	r25, Z+3	; 0x03
    1a38:	20 97       	sbiw	r28, 0x00	; 0
    1a3a:	19 f0       	breq	.+6      	; 0x1a42 <malloc+0x40>
    1a3c:	9b 83       	std	Y+3, r25	; 0x03
    1a3e:	8a 83       	std	Y+2, r24	; 0x02
    1a40:	2b c0       	rjmp	.+86     	; 0x1a98 <malloc+0x96>
    1a42:	90 93 11 02 	sts	0x0211, r25
    1a46:	80 93 10 02 	sts	0x0210, r24
    1a4a:	26 c0       	rjmp	.+76     	; 0x1a98 <malloc+0x96>
    1a4c:	21 15       	cp	r18, r1
    1a4e:	31 05       	cpc	r19, r1
    1a50:	19 f0       	breq	.+6      	; 0x1a58 <malloc+0x56>
    1a52:	42 17       	cp	r20, r18
    1a54:	53 07       	cpc	r21, r19
    1a56:	18 f4       	brcc	.+6      	; 0x1a5e <malloc+0x5c>
    1a58:	9a 01       	movw	r18, r20
    1a5a:	be 01       	movw	r22, r28
    1a5c:	df 01       	movw	r26, r30
    1a5e:	ef 01       	movw	r28, r30
    1a60:	02 80       	ldd	r0, Z+2	; 0x02
    1a62:	f3 81       	ldd	r31, Z+3	; 0x03
    1a64:	e0 2d       	mov	r30, r0
    1a66:	dc cf       	rjmp	.-72     	; 0x1a20 <malloc+0x1e>
    1a68:	21 15       	cp	r18, r1
    1a6a:	31 05       	cpc	r19, r1
    1a6c:	09 f1       	breq	.+66     	; 0x1ab0 <malloc+0xae>
    1a6e:	28 1b       	sub	r18, r24
    1a70:	39 0b       	sbc	r19, r25
    1a72:	24 30       	cpi	r18, 0x04	; 4
    1a74:	31 05       	cpc	r19, r1
    1a76:	90 f4       	brcc	.+36     	; 0x1a9c <malloc+0x9a>
    1a78:	12 96       	adiw	r26, 0x02	; 2
    1a7a:	8d 91       	ld	r24, X+
    1a7c:	9c 91       	ld	r25, X
    1a7e:	13 97       	sbiw	r26, 0x03	; 3
    1a80:	61 15       	cp	r22, r1
    1a82:	71 05       	cpc	r23, r1
    1a84:	21 f0       	breq	.+8      	; 0x1a8e <malloc+0x8c>
    1a86:	fb 01       	movw	r30, r22
    1a88:	93 83       	std	Z+3, r25	; 0x03
    1a8a:	82 83       	std	Z+2, r24	; 0x02
    1a8c:	04 c0       	rjmp	.+8      	; 0x1a96 <malloc+0x94>
    1a8e:	90 93 11 02 	sts	0x0211, r25
    1a92:	80 93 10 02 	sts	0x0210, r24
    1a96:	fd 01       	movw	r30, r26
    1a98:	32 96       	adiw	r30, 0x02	; 2
    1a9a:	44 c0       	rjmp	.+136    	; 0x1b24 <malloc+0x122>
    1a9c:	fd 01       	movw	r30, r26
    1a9e:	e2 0f       	add	r30, r18
    1aa0:	f3 1f       	adc	r31, r19
    1aa2:	81 93       	st	Z+, r24
    1aa4:	91 93       	st	Z+, r25
    1aa6:	22 50       	subi	r18, 0x02	; 2
    1aa8:	31 09       	sbc	r19, r1
    1aaa:	2d 93       	st	X+, r18
    1aac:	3c 93       	st	X, r19
    1aae:	3a c0       	rjmp	.+116    	; 0x1b24 <malloc+0x122>
    1ab0:	20 91 0e 02 	lds	r18, 0x020E
    1ab4:	30 91 0f 02 	lds	r19, 0x020F
    1ab8:	23 2b       	or	r18, r19
    1aba:	41 f4       	brne	.+16     	; 0x1acc <malloc+0xca>
    1abc:	20 91 02 02 	lds	r18, 0x0202
    1ac0:	30 91 03 02 	lds	r19, 0x0203
    1ac4:	30 93 0f 02 	sts	0x020F, r19
    1ac8:	20 93 0e 02 	sts	0x020E, r18
    1acc:	20 91 00 02 	lds	r18, 0x0200
    1ad0:	30 91 01 02 	lds	r19, 0x0201
    1ad4:	21 15       	cp	r18, r1
    1ad6:	31 05       	cpc	r19, r1
    1ad8:	41 f4       	brne	.+16     	; 0x1aea <malloc+0xe8>
    1ada:	2d b7       	in	r18, 0x3d	; 61
    1adc:	3e b7       	in	r19, 0x3e	; 62
    1ade:	40 91 04 02 	lds	r20, 0x0204
    1ae2:	50 91 05 02 	lds	r21, 0x0205
    1ae6:	24 1b       	sub	r18, r20
    1ae8:	35 0b       	sbc	r19, r21
    1aea:	e0 91 0e 02 	lds	r30, 0x020E
    1aee:	f0 91 0f 02 	lds	r31, 0x020F
    1af2:	e2 17       	cp	r30, r18
    1af4:	f3 07       	cpc	r31, r19
    1af6:	a0 f4       	brcc	.+40     	; 0x1b20 <malloc+0x11e>
    1af8:	2e 1b       	sub	r18, r30
    1afa:	3f 0b       	sbc	r19, r31
    1afc:	28 17       	cp	r18, r24
    1afe:	39 07       	cpc	r19, r25
    1b00:	78 f0       	brcs	.+30     	; 0x1b20 <malloc+0x11e>
    1b02:	ac 01       	movw	r20, r24
    1b04:	4e 5f       	subi	r20, 0xFE	; 254
    1b06:	5f 4f       	sbci	r21, 0xFF	; 255
    1b08:	24 17       	cp	r18, r20
    1b0a:	35 07       	cpc	r19, r21
    1b0c:	48 f0       	brcs	.+18     	; 0x1b20 <malloc+0x11e>
    1b0e:	4e 0f       	add	r20, r30
    1b10:	5f 1f       	adc	r21, r31
    1b12:	50 93 0f 02 	sts	0x020F, r21
    1b16:	40 93 0e 02 	sts	0x020E, r20
    1b1a:	81 93       	st	Z+, r24
    1b1c:	91 93       	st	Z+, r25
    1b1e:	02 c0       	rjmp	.+4      	; 0x1b24 <malloc+0x122>
    1b20:	e0 e0       	ldi	r30, 0x00	; 0
    1b22:	f0 e0       	ldi	r31, 0x00	; 0
    1b24:	cf 01       	movw	r24, r30
    1b26:	df 91       	pop	r29
    1b28:	cf 91       	pop	r28
    1b2a:	08 95       	ret

00001b2c <free>:
    1b2c:	0f 93       	push	r16
    1b2e:	1f 93       	push	r17
    1b30:	cf 93       	push	r28
    1b32:	df 93       	push	r29
    1b34:	00 97       	sbiw	r24, 0x00	; 0
    1b36:	09 f4       	brne	.+2      	; 0x1b3a <free+0xe>
    1b38:	8c c0       	rjmp	.+280    	; 0x1c52 <free+0x126>
    1b3a:	fc 01       	movw	r30, r24
    1b3c:	32 97       	sbiw	r30, 0x02	; 2
    1b3e:	13 82       	std	Z+3, r1	; 0x03
    1b40:	12 82       	std	Z+2, r1	; 0x02
    1b42:	00 91 10 02 	lds	r16, 0x0210
    1b46:	10 91 11 02 	lds	r17, 0x0211
    1b4a:	01 15       	cp	r16, r1
    1b4c:	11 05       	cpc	r17, r1
    1b4e:	81 f4       	brne	.+32     	; 0x1b70 <free+0x44>
    1b50:	20 81       	ld	r18, Z
    1b52:	31 81       	ldd	r19, Z+1	; 0x01
    1b54:	82 0f       	add	r24, r18
    1b56:	93 1f       	adc	r25, r19
    1b58:	20 91 0e 02 	lds	r18, 0x020E
    1b5c:	30 91 0f 02 	lds	r19, 0x020F
    1b60:	28 17       	cp	r18, r24
    1b62:	39 07       	cpc	r19, r25
    1b64:	79 f5       	brne	.+94     	; 0x1bc4 <free+0x98>
    1b66:	f0 93 0f 02 	sts	0x020F, r31
    1b6a:	e0 93 0e 02 	sts	0x020E, r30
    1b6e:	71 c0       	rjmp	.+226    	; 0x1c52 <free+0x126>
    1b70:	d8 01       	movw	r26, r16
    1b72:	40 e0       	ldi	r20, 0x00	; 0
    1b74:	50 e0       	ldi	r21, 0x00	; 0
    1b76:	ae 17       	cp	r26, r30
    1b78:	bf 07       	cpc	r27, r31
    1b7a:	50 f4       	brcc	.+20     	; 0x1b90 <free+0x64>
    1b7c:	12 96       	adiw	r26, 0x02	; 2
    1b7e:	2d 91       	ld	r18, X+
    1b80:	3c 91       	ld	r19, X
    1b82:	13 97       	sbiw	r26, 0x03	; 3
    1b84:	ad 01       	movw	r20, r26
    1b86:	21 15       	cp	r18, r1
    1b88:	31 05       	cpc	r19, r1
    1b8a:	09 f1       	breq	.+66     	; 0x1bce <free+0xa2>
    1b8c:	d9 01       	movw	r26, r18
    1b8e:	f3 cf       	rjmp	.-26     	; 0x1b76 <free+0x4a>
    1b90:	9d 01       	movw	r18, r26
    1b92:	da 01       	movw	r26, r20
    1b94:	33 83       	std	Z+3, r19	; 0x03
    1b96:	22 83       	std	Z+2, r18	; 0x02
    1b98:	60 81       	ld	r22, Z
    1b9a:	71 81       	ldd	r23, Z+1	; 0x01
    1b9c:	86 0f       	add	r24, r22
    1b9e:	97 1f       	adc	r25, r23
    1ba0:	82 17       	cp	r24, r18
    1ba2:	93 07       	cpc	r25, r19
    1ba4:	69 f4       	brne	.+26     	; 0x1bc0 <free+0x94>
    1ba6:	ec 01       	movw	r28, r24
    1ba8:	28 81       	ld	r18, Y
    1baa:	39 81       	ldd	r19, Y+1	; 0x01
    1bac:	26 0f       	add	r18, r22
    1bae:	37 1f       	adc	r19, r23
    1bb0:	2e 5f       	subi	r18, 0xFE	; 254
    1bb2:	3f 4f       	sbci	r19, 0xFF	; 255
    1bb4:	31 83       	std	Z+1, r19	; 0x01
    1bb6:	20 83       	st	Z, r18
    1bb8:	8a 81       	ldd	r24, Y+2	; 0x02
    1bba:	9b 81       	ldd	r25, Y+3	; 0x03
    1bbc:	93 83       	std	Z+3, r25	; 0x03
    1bbe:	82 83       	std	Z+2, r24	; 0x02
    1bc0:	45 2b       	or	r20, r21
    1bc2:	29 f4       	brne	.+10     	; 0x1bce <free+0xa2>
    1bc4:	f0 93 11 02 	sts	0x0211, r31
    1bc8:	e0 93 10 02 	sts	0x0210, r30
    1bcc:	42 c0       	rjmp	.+132    	; 0x1c52 <free+0x126>
    1bce:	13 96       	adiw	r26, 0x03	; 3
    1bd0:	fc 93       	st	X, r31
    1bd2:	ee 93       	st	-X, r30
    1bd4:	12 97       	sbiw	r26, 0x02	; 2
    1bd6:	ed 01       	movw	r28, r26
    1bd8:	49 91       	ld	r20, Y+
    1bda:	59 91       	ld	r21, Y+
    1bdc:	9e 01       	movw	r18, r28
    1bde:	24 0f       	add	r18, r20
    1be0:	35 1f       	adc	r19, r21
    1be2:	e2 17       	cp	r30, r18
    1be4:	f3 07       	cpc	r31, r19
    1be6:	71 f4       	brne	.+28     	; 0x1c04 <free+0xd8>
    1be8:	80 81       	ld	r24, Z
    1bea:	91 81       	ldd	r25, Z+1	; 0x01
    1bec:	84 0f       	add	r24, r20
    1bee:	95 1f       	adc	r25, r21
    1bf0:	02 96       	adiw	r24, 0x02	; 2
    1bf2:	11 96       	adiw	r26, 0x01	; 1
    1bf4:	9c 93       	st	X, r25
    1bf6:	8e 93       	st	-X, r24
    1bf8:	82 81       	ldd	r24, Z+2	; 0x02
    1bfa:	93 81       	ldd	r25, Z+3	; 0x03
    1bfc:	13 96       	adiw	r26, 0x03	; 3
    1bfe:	9c 93       	st	X, r25
    1c00:	8e 93       	st	-X, r24
    1c02:	12 97       	sbiw	r26, 0x02	; 2
    1c04:	e0 e0       	ldi	r30, 0x00	; 0
    1c06:	f0 e0       	ldi	r31, 0x00	; 0
    1c08:	d8 01       	movw	r26, r16
    1c0a:	12 96       	adiw	r26, 0x02	; 2
    1c0c:	8d 91       	ld	r24, X+
    1c0e:	9c 91       	ld	r25, X
    1c10:	13 97       	sbiw	r26, 0x03	; 3
    1c12:	00 97       	sbiw	r24, 0x00	; 0
    1c14:	19 f0       	breq	.+6      	; 0x1c1c <free+0xf0>
    1c16:	f8 01       	movw	r30, r16
    1c18:	8c 01       	movw	r16, r24
    1c1a:	f6 cf       	rjmp	.-20     	; 0x1c08 <free+0xdc>
    1c1c:	8d 91       	ld	r24, X+
    1c1e:	9c 91       	ld	r25, X
    1c20:	98 01       	movw	r18, r16
    1c22:	2e 5f       	subi	r18, 0xFE	; 254
    1c24:	3f 4f       	sbci	r19, 0xFF	; 255
    1c26:	82 0f       	add	r24, r18
    1c28:	93 1f       	adc	r25, r19
    1c2a:	20 91 0e 02 	lds	r18, 0x020E
    1c2e:	30 91 0f 02 	lds	r19, 0x020F
    1c32:	28 17       	cp	r18, r24
    1c34:	39 07       	cpc	r19, r25
    1c36:	69 f4       	brne	.+26     	; 0x1c52 <free+0x126>
    1c38:	30 97       	sbiw	r30, 0x00	; 0
    1c3a:	29 f4       	brne	.+10     	; 0x1c46 <free+0x11a>
    1c3c:	10 92 11 02 	sts	0x0211, r1
    1c40:	10 92 10 02 	sts	0x0210, r1
    1c44:	02 c0       	rjmp	.+4      	; 0x1c4a <free+0x11e>
    1c46:	13 82       	std	Z+3, r1	; 0x03
    1c48:	12 82       	std	Z+2, r1	; 0x02
    1c4a:	10 93 0f 02 	sts	0x020F, r17
    1c4e:	00 93 0e 02 	sts	0x020E, r16
    1c52:	df 91       	pop	r29
    1c54:	cf 91       	pop	r28
    1c56:	1f 91       	pop	r17
    1c58:	0f 91       	pop	r16
    1c5a:	08 95       	ret

00001c5c <_exit>:
    1c5c:	f8 94       	cli

00001c5e <__stop_program>:
    1c5e:	ff cf       	rjmp	.-2      	; 0x1c5e <__stop_program>
